:1035920075A15575A1AAE5B954F84404F5B9E4F545
:0235A200A12264
:0E35F500EF4E600905A1EF1F70F61E80F32255
:10351F00AD07AC06ED4C600E7FE87E031235F5ED7E
:07352F001D70F11C80EE226B
:040FFC0043C61022B6
:102BD100C29FD29EC29DC2CDC2CC4387809002E9E2
:102BE10012065100000082E47B0AFAF9F89002E92A
:102BF100E0FCA3E0FDA3E0FEA3E0FF1204E39002EA
:102C0100EDEBF09002E9E0FCA3E0FDA3E0FEA3E020
:102C1100FFE47B0AFAF9F81204E39002E912062CA8
:102C21009002EDE0C39405401F9002E9E0FCA3E0AF
:102C3100FDA3E0FEA3E02401FFE43EFEE43DFDE44C
:102C41003CFC9002E912062CE589540F4420F589D9
:102C510043C9A09002E9A3A3A3E0F404F58DD28EA9
:042C6100D299D29C96
:012C6500224C
:083651003098FDC298AF9922E8
:083659008F993099FDC29922FE
:0A362900C2C7D2C5D2C475C2F32295
:0836610030C0FDC2C0AFC12260
:083669008FC130C1FDD2C12266
:1035360075A15575A1AAEF600543B101800353B18A
:07354600FEE4F5A1F5FF22F0
:031FFB008FFF2233
:0107FF0022D7
:10336E00E4FFE5DA30E015E50A64016005E5D120F9
:10337E00E0191207FF750A027F15800FE50AC39444
:0B338E000240081207FFEF70027F16DC
:013399002211
:0C361100EF547FFFE5E354804FF5E32207
:0E360300EF600753E2BF53D27F2243E2402222
:10339A009003617408F0E4FF1236117F01123603BC
:1033AA00E5D154FB4402F5D17F0F7E0012351F533D
:0C33BA00D1FD7FFA7E001235F5C2D8224A
:10350700E50AC394025003750A02E5DA30E0064380
:08351700D1017F00227F162282
:1034ED007FC87E0020D909EF1F70011EEF4E70F4CA
:0934FD0030D9047F0080027FFE3B
:0135060022A2
:0B2829009002FEEFF0A3EAF0A3EBF03A
:10283400AF058FD68FD4E4F5DD9002FEE0F5D5C266
:10284400D97FC87E0020D909EF1F70011EEF4E709A
:10285400F4E4F5D520D9037FFE2230D822C2D81261
:10286400336EEFB41502D20DE50AB401037F1622CC
:10287400E50AB402037F15227FC87E001235F530C5
:10288400D96730DE037F0022E5D9540FFFB40E026E
:102894008043EFB40A299002FFE0FCA3E0FD4C70F2
:1028A40003EF803EC3ED94FFEC94FF500E900300C1
:1028B400E024FFF09002FFE034FFF015DD802D905E
:1028C40002FEE0C4540F24F7600D24FC6004240CC1
:1028D4007014EF6017800BEFB40304640B600DEF0A
:1028E400600A4420FF227FFE2275D8FF7F0F7E00FE
:1028F4001235F505DDAFDDEFC39403500302283D27
:022904007F2032
:0129060022AE
:0B185500EBF07B007A007900E4FFFE5E
:0B1860009002F1EBF0A3EAF0A3E9F026
:10186B00E4A3F0A3F0AA06A9077B019002F804F009
:10187B00A3EAF0A3E9F09002F1E0F9A3E0FAA3E008
:10188B009002FBC9F0A3EAF0A3E9F07FC87E001237
:10189B0035F59002FBE0FBA3E0FAA3E0F9EA494B34
:1018AB006004E412046475D7087B107A27E4FD7F8B
:1018BB00D01228299002F6EFF06003E0FF2275D6D4
:1018CB00D075D4D075D701900047E0FE900046E06C
:1018DB00FDEDFF9002F4EEF0A3EFF04E7003021A51
:1018EB005C9002F8E0FBA3E0FAA3E0F9EA494B7045
:1018FB0003021A5C900040E020E7030219B9900242
:10190B00F4E07002A3E070030219B37FC87E0012EB
:10191B0035F57B107A27ADD47F901228299002F6EB
:10192B00EFF0E0FF600122AFDB9002F4E0FCA3E0FC
:10193B00FDD39FEC94004004AFDB8002AF05900217
:10194B00F7EFF0E0FFC39002F5E09FF09002F4E0B8
:10195B009400F09002FBE0FBA3E0FAA3E0F9EA4964
:10196B004B6004EF120442E4FF9002F7E06F602833
:10197B0074002FF582E43400F583E0FE9002F8E06A
:10198B00FBA3E0FAA3E0F9EE1204649002F9E4750C
:10199B00F0011204760F80D1E5DB600C900361E05F
:1019AB001455DB7003021909E4F5D7021A5C900297
:1019BB00F4E07002A3E07003021A5C7FC87E001291
:1019CB0035F5900361E0FFFD9002F4E0FAA3E0FB34
:1019DB00C39DEA940040028002AF038FD7E4FFEF70
:1019EB0065D760289002F8E0FBA3E0FAA3E0F912B8
:1019FB000429FE74402FF582E43400F583EEF09059
:101A0B0002F9E475F0011204760F80D37B107A276C
:101A1B00ADD67F101228299002F6EFF0E0FF60019F
:101A2B0022AFD7C39002F5E09FF09002F4E0940050
:101A3B00F09002FBE0FBA3E0FAA3E0F9EA494B705C
:101A4B00030219B99002FBA3A3E5D71204420219B2
:101A5B00B97FC87E001235F5E5D760047F90800210
:101A6B007F107B107A277DC01228299002F6EFF0A9
:101A7B006003E0FF22E5D77002FF22E5DB7002FF77
:031A8B00227F17A0
:011A8E002235
:1034AE00E4FD8F828E83E493FC74402DF582E43428
:0F34BE0000F583ECF00FBF00010E0DEDB408E335
:0134CD0022DC
:103303009003617408F07E287F011234AE7E007F43
:10331300407B017A0279ED121860EF600122900080
:1033230047E0900361F0902807E493FF9002EDE0FB
:09333300C39F50037F17227F00A5
:01333C00226E
:102DF8007E287F091234AE7E007F407B017A0279FB
:102E0800ED121860EF60012290280FE493FE900203
:102E1800EDE0C39E50037F1722900042E09002ED40
:102E2800F07E287F091234AE9002EDE0900046F063
:102E38007E007F407B017A0279ED121860EF600115
:102E48002290280FE493FF9002EDE0FEC39F400913
:0E2E5800900042E0FFEE9F50037F17227F00A4
:012E66002249
:0533C6009002EDEFF0A4
:1033CB007E287F111234AE9002EDE090004212186D
:1033DB0056EF6001229002EDE0FF1236117F0A7E5C
:0633EB000012351F7F00F7
:0133F10022B9
:1035B500AB077E287F191234AE90004212185522AF
:1035C500AB077E287F211234AE9000441218552295
:102A990012339AE49002E9F0A3F07F017E00123527
:102AA9001F123507EF700E9002E9F0A3E004F0E081
:102AB900D39464500C9002E9E004F0E0C3946440BC
:102AC900D99002E9E060061207FF7F16227F011202
:102AD90036031233039002EAEFF07042900044E0AB
:102AE9009002ECF0902813E493FF1233C69002EAA7
:102AF900EFF0702A122DF89002EAEFF070209000A2
:102B090045E09002EBF090004EE0FF9002ECE0709F
:102B19000AEFB40806750A047F00227FFB22750AB2
:0B2B2900027F011236039002EAE0FF79
:012B3400227E
:10333D00C2EA75E280E4F5E375EB4875E50075E4E6
:10334D000075E70075E640F5D4F5D675E28975D2BE
:10335D004075D8FFFF1207FF0FEFB402F875E103B8
:01336D00223D
:10271C004572726F723A20253032580A005761693F
:10272C0074204469736B52656164790A002F4335D8
:10273C00312F43483535344846542E4300C3BBD360
:10274C00D0D5D2B5BDCEC4BCFE0A00B4D3CEC4BC69
:10275C00FED6D0B6C1B3F6B5C4C7B02564B8F6D7AB
:10276C00D6B7FBCAC73A0A002543000A00CEC4BC40
:10277C00FED2D1BEADBDE1CAF80A00436C6F7365E1
:10278C000A004372656174650A002F4E455746492D
:10279C004C452E54585400427974655772697465CF
:1027AC000A004E6F74653A200D0AD5E2B8F6B3CC28
:1027BC00D0F2CAC7D2D4D7D6BDDACEAAB5A5CEBB75
:1027CC00BDF8D0D055C5CCCEC4BCFEB6C1D0B42C4F
:1027DC00353539BCF2B5A5D1DDCABEB9A6C4DCA16C
:1027EC00A30D0A00B3C9B9A6D0B4C8EB202530326A
:1027FC0058B4CE0A008006000100001200800600CA
:10280C0002000004000005020000000000000900A6
:0D281C0000000000000201000000000000AC
:0B2B35009002EDEFF0A3ECF0A3EDF038
:102B4000E4A3F0900048E4F09002EDE0FF25E0906F
:102B50000049F0A3E4F0A3F0A37480F0900336E002
:102B600090004DF0A3740AF0A37428F0A3E4F09051
:102B70000318E0900051F0900319E0900052F0909B
:102B8000031AE0900053F090031BE0900054F0A370
:102B9000E4F0A3F0A3EFF0A3E4F09002EEE0FEA3D4
:102BA000E0FF121A96E50D7002FF229002F0E0FF9E
:102BB0001231108F0DE50D6003AF0D229002F0E091
:102BC00004F0E0C394035003022B43750D1F7F1FD5
:012BD00022E2
:0B0F5B009002EDEFF0A3ECF0A3EDF02E
:100F6600E4A3F0900048E4F09002EDE0FF25E09065
:100F76000049F0A3E4F0A3F0A3F0900336E090005C
:100F86004DF0A3740AF0A3742AF0A3E4F0900318BA
:100F9600E0900051F0900319E0900052F090031A8F
:100FA600E0900053F090031BE0900054F0A3E4F0AF
:100FB600A3F0A3EFF0A3E4F09002EEE0FEA3E0FFBF
:100FC600121A96E50D70097FC8FE1235F57F0022CC
:100FD6009002F0E0FF1231108F0DE50D6003AF0DAA
:100FE600229002F0E004F0E0C394035003020F697C
:050FF600750D1F7F1FB7
:010FFB0022D3
:1007DE0053E37FE5E3B40213E5D130E0037F00225B
:1007EE00E5DA30E006750A027F0022750A017F16EF
:0107FE0022D8
:011FFE0022C0
:1033F200122FFCEFC3941050037FFF227E007F80C8
:103402008E0B8F0C900316EEF0A3EFF0E4F50A900A
:0C3412000343120651000000007F00225E
:10354D00EF60137BFF7A27791C9002ECE4F0A3EF78
:07355D00F0120C6180FE2258
:101615001235927F057E0012351F122BD112333DF4
:101625001233F2C20DE4900280F030D80FC2D81206
:10163500336E900280EFF0BF1502D20D200D0B9096
:101645000280E06415600302184BC20D7FC87E005E
:1016550012351F122A99900280EFF0600302184B91
:10166500750A04900282F07BFF7A277929120C61B2
:10167500123065900280EFF060117F327E001235E6
:101685001F900282E004F0E0B40ADCE50AC3940589
:10169500500302184B78227C007D007BFF7A277966
:1016A50039120757120003900280EFF064B360040B
:1016B500E0B4420C7BFF7A277949120C610217A727
:1016C500900283E4F0A37464F07BFF7A2779579046
:1016D50002ECE4F0A37464F0120C61900283E0FE66
:1016E500A3E0FF4E7003021793D3EF941FEE94000F
:1016F5009002814005741FF08002EFF0900281E0B6
:10170500FF7822E4F608EFF6087402F6087485F609
:101715001223F9900280EFF07822E6FE08E6FFC377
:10172500900284E09FF0900283E09EF0E4900282B4
:10173500F0900282E0782366700218E6602B7BFF4A
:101745007A277974900282E0FF7824E6FC08E68C1B
:10175500832FF582E43583F583E09002ECF0120CDB
:1017650061900282E004F080C8900281E0FFC378B6
:1017750023E69F18E6940040030216E07BFF7A27D4
:101785007977120C617BFF7A277979120C617BFFDF
:101795007A277987120C61123000900282EFF012DD
:1017A500354D7BFF7A27798E120C6178227C007D7E
:1017B500007BFF7A277996120757121CC390028087
:1017C500EFF012354D7BFF7A2779A3120C617BFF71
:1017D5007A2779AE9002EC1206827B017A0279852E
:1017E500120C5B900282EFF0E4900281F09002828D
:1017F500E0FF7822E4F608EFF6087402F60874852F
:10180500F612135E900280EFF012354D7BFF7A27BA
:1018150079F0900281E0FF9002ECE4F0A3EFF01282
:101825000C61900281E004F0E0C3940A40BF7BFFA5
:101835007A277987120C617822760112300090029E
:1018450082EFF012354D7F647E0012351F02162A95
:1035D50021FF000000000000A1FE00000000010026
:062CF90090031812062CE6
:102CFF00900335E0FF90031BE06F7024900332E0E8
:102D0F00FF900318E06F7018900333E0FF900319E2
:102D1F00E06F700C900334E0FF90031AE06F605681
:102D2F00900318E0FCA3E0FDA3E0FEA3E0FF9003F7
:102D3F003212062C900316E0FEA3E0FBCAEECA6522
:102D4F000C7003EA650B7012A3E0FCA3E0FDA3E097
:102D5F00FEA3E0FF90033712062CCEEACECFEBCFC7
:102D6F00CDEFCDCCEECC7F01122B358F0DEF600365
:092D7F0012357BAF0D227F00220A
:0C2C660090034A1205C690031812062CB9
:102C720090033AE0FF90031BE06F7024900337E06B
:102C8200FF900318E06F7018900338E0FF9003196B
:102C9200E06F700C900339E0FF90031AE06F60540C
:102CA200900318E0FCA3E0FDA3E0FEA3E0FF900385
:102CB2003712062CAB0CAA0B900316E06A7003A322
:102CC200E06B7014900318E0FCA3E0FDA3E0FEA308
:102CD200E0FF90033212062CCEEACECFEBCFCDEF3F
:102CE200CDCCEECC7F01122B358F0DEF6003123568
:072CF2007BAF0D227F0022E1
:1031FA009003181205C690033212062C900316E0AB
:10320A00FEA3E0FBCAEECA650C7003EA650B700AFE
:10321A00A31205C690033712062CCEEACECFEBCF07
:10322A00CDEFCDCCEECC7F01120F5B8F0DEF60039B
:06323A0012357BAF0D22EE
:102D88008F118E108D0F8C0EE509241AF582E4350B
:102D980008F583E50EF0A3E50FF0E5092414F582A4
:0C2DA800E43508F583E510F0A3E511F018
:102DB4009003181205C690033712062CAB0CAA0B0D
:102DC400900316E06A7003A3E06B700C9003181272
:102DD40005C690033212062CCEEACECFEBCFCDEF50
:102DE400CDCCEECC7F01120F5B8F0DEF600312355B
:042DF4007BAF0D2282
:0E10000090031C1205C690031212062CE4FF8A
:10100E008FD3900347E0FBB40212900312E0FCA3CF
:10101E00E0FDA3E0FEA3E0FF78018014EBB403151E
:10102E00900312E0FCA3E0FDA3E0FEA3E0FF780234
:10103E001205A7803EC200900315E030E002D200F8
:10104E00900312E0F8A3E0F9A3E0FAA3E0FBE8C0F6
:10105E00E0900312E0FCA3E0FDA3E0FEA3E0FF7826
:10106E0001120594D0E0F8EB2FFFEA3EFEE93DFDBC
:10107E00E83CFC90031212062C900314E0FEA3E051
:10108E00FFEE5401FE900317E02FF509900316E0D2
:10109E003EF508900312E0FCA3E0FDA3E0FEA3E002
:1010AE0012363D90034EE0F8A3E0F9A3E0FAA3E078
:1010BE002FFFEA3EFEE93DFDE83CFC9003121206CE
:1010CE002C900335E0FF900315E06F7024900332EF
:1010DE00E0FF900312E06F7018900333E0FF90036F
:1010EE0013E06F700C900334E0FF900314E06F6018
:1010FE001F300B07122F3AEF600122900312E0FC13
:10110E00A3E0FDA3E0FEA3E0FF122CF9EF600122A5
:10111E00E5D36044E5D3B4040C900312120651FFDC
:10112E00FFFFFF8031E5D3B4010C9003121206517C
:10113E0000000000802090033EE0900312F0900328
:10114E003DE0900313F090033CE0900314F0900305
:10115E003BE0900315F0D20BC20C900347E0FB640A
:10116E00027046850982850883E0F50FA3E0F5102D
:10117E00850F11E4F50EF50FC3E51194F7E5109404
:10118E00FF4002D20CE5D36014900312E0FFA3E0FF
:10119E00850982850883CFF0A3EFF0615B300C02E6
:1011AE00615BAE10AF11E46153EB64037071AF0974
:1011BE00AE081235E58F118E108D0F8C0EE50E5484
:1011CE00F0FF900315E0540F4FF0530E0FE50ED3C2
:1011DE00940F5016E50EB40F13E50FB4FF0EE51085
:1011EE00B4FF09E511C394F74002D20CE5D36016A3
:1011FE00900312E0FCA3E0FDA3E0FEA3E0FF85094F
:10120E00828508836158300C02615B90033BE50ECA
:10121E00F0A3E50FF0A3E510F0A3E511F0615B85F7
:10122E000982850883E0F511900312E0FFC454F0A3
:10123E00FEE511540F4EF50EA3E0FEC454F0FDEF83
:10124E00C4540F4DF50F900317E024FFFD900316C5
:10125E00E03401FCED65097003EC6508603A850920
:10126E0082850883A3E0F510E5D37002611C30007F
:10127E000F850982850883E50EF0A3E50FF0611C4A
:10128E00900312E0850982850883F0EE540FFFE586
:10129E001054F04FA3F08076E5D36014300004AF05
:1012AE000E8005900312E0FF850982850883EFF01A
:1012BE00A20BE43345D36007122F3AEF6001229060
:1012CE000332E0FCA3E0FDA3E0FEA3E02401FFE473
:1012DE003EFEE43DFDE43CFC122CF9EF6001229051
:1012EE000316E0FEA3E0FFF5828E83E0F510E5D352
:1012FE00601C300004AD0F800D900313E0540FFD01
:10130E00E51054F04DFD8F828E83EDF0D20BE4F597
:10131E000EF50F300014E510C4F854F0C868F5103F
:10132E00E511C4540F48F511800353100FC3E51196
:10133E0094F7E510940F4002D20CE5D3700F200CF9
:10134E000CAE10AF11FCFD90033B12062C7F002259
:10200000900320E0FCA3E0FDA3E0FEA3E0FF90032B
:102010003BE0F8A3E0F9A3E0FAA3E0FBD3120583C9
:1020200040037FB12290033BE0FCA3E0FDA3E0FE70
:10203000A3E02401FFE43EFEE43DFDE43CFC90020D
:10204000E912062C121006CBEFCB9002E9E0FCA3BC
:10205000E0FDA3E0FEA3E0FF90033B12062CEB6043
:1020600002FF22E511700AE50E450F4510700221AE
:10207000F0900322E0FF9002EBE06F701A900320D3
:10208000E0FF9002E9E06F700E900321E0FF900204
:10209000EAE06F70020100900347E0FF6401700204
:1020A0000100900316E0FCA3E08C08F509EF640240
:1020B0007031F50E750FFFF5107511FF74022509CB
:1020C000F509E43508F508850982F583E07004A375
:1020D000E0606CE50F150F7002150E14AE0E4E7019
:1020E000DB21CC750E00750F7F75100075117F74A4
:1020F000042509F509E43508F508850982F583E02A
:10210000600221BCA3E0600221BC850982850883AE
:10211000A3A3E0600221BC850982850883A3A3A351
:10212000E0540F600221BC850982850883A3A37453
:10213000FFF0850982850883A3A3A3E0440FF085FF
:10214000098285088374FFF0A3F0AE10AF119003ED
:102150003BE0F8A3E0F9A3E0FAA3E04FFFEA4EFE6C
:10216000E9FDE8FCEEC0E0EFC0E0E50F24FFFFE58D
:102170000E34FFCBEFCBFAD0E0FFD0E0FEC3EF9BF5
:10218000FFEE9AFEED9400FDEC9400FC90033B12F0
:10219000062C900320E0FCA3E0FDA3E0FEA3E0FFFB
:1021A00090033BE0F8A3E0F9A3E0FAA3E0FBD3122D
:1021B000058340037FB122D20B7F0022E50F150F6C
:1021C0007002150E14AE0E4E600201EF90033BE05C
:1021D000F8A3E0F9A3E0FAA3E0FBAE10AF11EB4FD8
:1021E000FFEA4EFEE9FDE8FC90033B12062C0100DD
:1021F0009002E9E0FCA3E0FDA3E0FEA3E0FF900372
:0A2200001212062C7F0412100E22A9
:10356400122000EF64B160012290033B1206510067
:0735740000000012200022FC
:10000300E50AC394105007120800EF60012212346E
:100013006AEF600122C20A7822E6FF7002FF22EF34
:10002300645C6004EFB42F0A7F239003587423F0B9
:1000330080197823E6643A600201DFEFC3944350EA
:100043000201DF7F259003587425F0900347E0FBFE
:10005300B403089003541205C68005E4FFFEFDFCBB
:1000630090031C12062C900358E0F8E67076900378
:100073003F120651FFFFFFFFEB6403603E90031F37
:100083007402F0900357E0900311F090032A1205D5
:10009300C6EFC0E0900311E0FBE4FAF9F8D0E0FF0B
:1000A30012049990032A12062C900311E0FFE4FC3A
:1000B300FDFE12364790033F12062C90031C1205D7
:1000C300C690033B12062C90035912065100000000
:1000D30000E4900325F0750A127F41227F229003EA
:1000E300587422F090031C1205C6EC4D4E4F60323B
:1000F300900311E0900325F090031C1205C6EF2432
:10010300FEFFEE34FFFEED34FFFDEC34FFFC900305
:1001130024E0F9F81205A790032A1205DF12048CD4
:100123008017900357E0FF900325F0FBE4FAF9F8FA
:1001330090032A1205C612049990034A12062C90C2
:100143000325E0700261DC122C66EF600122E4906B
:100153000328F0A3F0900328E0FEA3E0FFC3EE948E
:1001630002400261BBEF250CF509EE350BF508855E
:100173000982F583E0FF70028106EF64E570026196
:10018300AFEFB405027FE5900358E0F8E6FE6F6039
:1001930007EE642A600261AFEF6E70047F01800294
:1001A3007F008F10AF10EFC3940B5059AE10900324
:1001B30058E02EF8E6FEE5092FF582E43508F583CD
:1001C300E0FD6E603BEE6009645C6005EE642F70D9
:1001D3001FED6420702FEFC394085010E509240825
:1001E300F582E43508F583E0642070197F0B8015F0
:1001F300EEB42E11E51064086004EDB420077F0708
:100203000F051080A1AE10900358E02EF8E6F5110B
:10021300EFC3940B500241FDE509240BF582E4354D
:1002230008F583E030E30241FDC20CE509241AFF1F
:10023300E43508FE123633E4FCFD90031C12062C51
:10024300900347E0B40314E5092414FFE43508FEE2
:1002530012363390031CEEF0A3EFF0E51160052096
:100263000C0241F190031C1205C690033B12062CAD
:1002730090035912065100000000E4900325F0E5B5
:1002830009240BF582E43508F583E030E41E90037E
:100293003F120651FFFFFFFF7D137F1012346EEFF5
:1002A300600122300C037F43227F4122E509241C95
:1002B300FFE43508FE1235E590033F12062C900348
:1002C3001C1205C6EC4D4E4F701090032574FFF0C1
:1002D30090033F120651000000007D147F1012347A
:1002E3006EEF600122300C037F43227F0022E51072
:1002F30004FF900358E02FF001E7E511642A600240
:1003030061AFE509240BF582E43508F583E030E3BA
:100313000261AFE5A1645460037F112290033F1291
:1003230005C6EC4D4E4F602890033FE030E70312C3
:100333001FFE90033F1205C6EF24FFFFEE34FFFEBE
:10034300ED34FFFDEC34FFFC90033F12062C805C80
:10035300E4FFF50EE5092FF582E43508F583E06443
:10036300206036EFB4080CAE0E900358E02EF876FA
:100373002E050EE5092FF582E43508F583E0FEAD81
:100383000E900358E0FC2DF8EEF6E50E7009C8EC6C
:10039300C8E6B4050276E5050E0FEFB40BB6AF0E53
:1003A300900358E02FF8E4F6D20C412E900328E492
:1003B30075F020120476215890034A1205C6EF24E3
:1003C30001FFE43EFEE43DFDE43CFC90034A1206DB
:1003D3002C900325E014F0214290031C1205C6EC77
:1003E3004D4E4F601E121000EF600122200C14903E
:1003F300031CE50EF0A3E50FF0A3E510F0A3E51150
:10040300F001E7E4FF900358E0CEEFCE0F2EF8E6BD
:10041300FE6010642A600CEE645C6004EEB42FE5A9
:060423007FB3227F42229C
:1032400090033B1205C6EF24FEFFEE34FFFEED3483
:10325000FFFDEC34FFFC900324E0F9F81205A79081
:10326000032A1205DF12048CC8ECC8C9EDC9CAEEE6
:10327000CACBEFCB900325E0FFE4FCFDFE12048CEB
:0632800090031802062C69
:1029070090031C1205C6EC4D4E4F700221C5782668
:102917001205BA12363DEFC0E0900325E0FBE4FA5A
:10292700F9F8D0E0FF1204998F118E108D0F8C0EDD
:10293700AF11AE10AD0FAC0E78221205D2C312053F
:1029470083401878221205BAC3EF9511FFEE951050
:10295700FEED950FFDEC950EFC804490031C1205CF
:10296700C690033B12062C900311E0FFE4FCFDFE2A
:1029770078221205D2C3120583402B90033B121015
:1029870003EF600122200C3678221205BAEFC0E06F
:10299700900311E0FBE4FAF9F8D0E0FF120499780C
:1029A7002212062080C17825E6900325F0123240D6
:1029B7009003181205C678221206207F0022900382
:1029C7002574FFF07822120638FFFFFFFF7F0022F1
:032FFC007F102221
:10357B00900337120651FFFFFFFF900332120651E3
:07358B00FFFFFFFFC20B224E
:04346A007D107F1042
:10346E00AE0AEEC39F4005CEEDCE8D0AEE6D700214
:0F347E00FF22750A011207DEEF6001227F832211
:10344500AB0DEBB41611750A01900343120651003A
:10345500000000CFEBCF22EBB41507750A02CFEBC6
:05346500CF227F0022D0
:102FA1007F027E0012351F900353E50DF01207DEFC
:102FB100EF600122E50AC3940450037F83227E352A
:102FC1007FD51234AE900352E0900044F0E4FDFF4F
:102FD100FE1218608F0DEFB4160122900349E054E0
:102FE1000FFF1235C5900348E0540F4480FF12359E
:0B2FF100C5900353E0FFF50DE4F02253
:10328600900048EDF0A3E4F0A3F0A3F0ED60047E17
:103296008080027E0090004CEEF0900336E09000B5
:1032A6004DF0A37406F0A3EFF0A3E4F0A3F0A3F0AF
:0F32B600A3EDF0A3E4F0A3F0A3F0A3F0A3F022A4
:071A8F001232867E007F6227
:101A96008E148F159000407455F0A37453F0A37400
:101AA60042F0A304F075D71F900349E0FF9003535B
:101AB600E0FD7BE87AFD1228298F0DEFB41601228E
:101AC600EF60397E007F627C007D407B1B7A0012CE
:101AD600348D122FA17E007F407C007D627B1B7AB5
:101AE6000012348D900349E0FF900353E0FD7BE83C
:101AF6007AFD1228298F0DEF600281BD900353E015
:101B06006440F0900048E0FDA3E0FF4D7002818242
:101B1600EFF512EDF51390004CE020E70261DBD201
:101B260001E5134512700261D3E5127007E513C390
:101B360094404009AF158514E58FE48008C201750D
:101B4600E50075E400900348E0FF900353E0FD7B59
:101B5600E87AFD1228298F0DEF601A75E50075E405
:101B660000EF642E600122900348E0540F4480FF8A
:101B76001235C58058900353E06480F030011FE5AC
:101B8600DB6440704874C02513F51374FF3512F5F5
:101B96001274402515F515E43514F5148083AFDB72
:101BA600AE13EEC39F5003CFEECFE4FEEE6F601D83
:101BB60074002EF582E43400F583E08515828514E1
:101BC60083F00515E515700205140E80DF75E50036
:101BD60075E4008182E51345127002817CE512707E
:101BE60008AF13EFC394404023AD158514E78DE687
:101BF60074C02513F51374FF3512F51274402515BC
:101C0600F515E43514F51475D740803375E700757E
:101C1600E6408FD7E4FFE5136F601F8515828514B4
:101C260083E0FE74402FF582E43400F583EEF00580
:101C360015E515700205140F80DCE4F512F5139016
:101C46000349E0FF900353E0FD7BE87AFD12282963
:101C56008F0DEF601875E70075E640EF642E6001A2
:101C660022900349E0540FFF1235C58009900353B3
:101C7600E06440F061DB75E70075E640900348E0FC
:101C8600FF900353E0FD7BE87AFD1228298F0DEFC4
:101C9600600122900353E06480F0750D1FE5DB645C
:101CA6000D6003AF0D2290000CE0FE7004F50DFFF1
:0D1CB60022EEC394024003022FA1AF0D22C5
:1034CE007F0A7E0012351F7D127F03121A8F7F0531
:0F34DE007E0012351FE50D7002FF2212344522C9
:1030BB00750E0F7D087F2512328690004E740AF034
:1030CB00900053E4F0121A92AF0DEF700B90006862
:1030DB00E06402602D7F1722EF64166025EF641504
:1030EB006020EF6413601B8F0F1234CE850F0DE53C
:1030FB000E7E0030E3047F4080027FC812351FD55F
:05310B000EB1AF0F2220
:1025E0001207DEEF600122E50AC3940450037F83E3
:1025F00022750A04122DF88F0DEF60012290004E13
:10260000E06408705FC209A3E0B40602D20990003A
:102610004BE0900352F0E4F50EE50E600790005B8E
:10262000E0FF8005900054E0FF8F0FE50E600790FB
:10263000005DE0FF8005900056E0FFEF64407024ED
:10264000E50F30E70CE50F540F4490900348F080FD
:102650000AE50F540F4410900349F0050EE50EB43F
:1026600002B78006750D1FAF0D22900045E0FF12E6
:1026700035B58F0DEF600122E4F50E7E357FDD125A
:1026800034AE900352E0900044F07D0FAF0CAE0BDF
:102690001218608F0DEF7010E50FB4011A850C82CF
:1026A000850B83E0F50E800FE50DB42E07E4FF12D5
:1026B00035C58003AF0D227F057E0012351F123510
:1026C0007BE4900353F0900336F07D247F121232A6
:1026D00086AF0CAE0B121A96E50D7023E50E60184E
:1026E000900336E07012850C82850B83E0B40508F8
:1026F0009003367401F080D27D057F0402346EE5CC
:102700000E600E900336E0C394035005E004F080A1
:0C271000B9E4900336F07F011231102272
:103065007822120638000000001207DEEF60012208
:10307500E50AC3940550281225E0EF600E7F407ED7
:103085000012351F1225E0EF6001221230BBEF6000
:1030950003AF0D229000621205C67822120620E4C5
:1030A500FDFF121A8FE50D7002FF22850D0E1234F9
:0630B500CEAF0E8F0D22CC
:10311000E4FDFCE4F5A10DBD00010CBC01F5BDF41E
:10312000F2EFC394024014AE0AEEB41205750A051C
:103130008009EED394104003750A10AE0DEF6014B1
:10314000EE6416600FEE6415600A1234CECEEFCE38
:0F315000EE7001227F027E0012351F12344522DD
:10080000E50AC39405500A1225E0EF600122123078
:10081000BB12357B9003431205C6EF54F0FFEC7B0F
:10082000707A5679347812C3120583700A900346A1
:10083000E0540FF5098003E4F509E4900311F0900A
:100840000325F090033F12065100000000900318AA
:1008500012065100000000122C72EF600D122FA141
:100860001230BB122C72EF600122E509700F850C6B
:1008700082850B83E054FD64E970022173E50C244A
:10088000FEF582E50B3401F583E0FEA3E064AA7077
:1008900003EE645560037F9122900311E0F508E5B3
:1008A0000864407002215FE50C24BEFFE50B3401B3
:1008B000FE7C00EF2508FFEC3ECF2408CF3400FE7D
:1008C0001235E590031812062CE50C24BEFFE50B4B
:1008D0003401FE7C00EF2508FFEC3EF583EF240495
:1008E000F582E43583F583E0F50EE50E64056005D9
:1008F000E50EB40F309003181205C690033F1205A1
:10090000DF12048C90031812062C900325E060027D
:100910000157E5082410F09003181205C690033F14
:1009200012062C0157E50E30E703530E3FE50E602B
:1009300026E50EC3940F501FE5099401501790034C
:10094000181205C69003371205DF12048C900318A5
:1009500012062C801E150974102508F508019F90B9
:100960000325E0FF600A900311E07004EFF00143FB
:100970007F92229003181205C690034312062C1290
:100980002C72EF600122850C82850B83E054FD649C
:10099000E960037FA122E50C24FEF582E50B34011A
:1009A000F583E0FEA3E064AA7003EE645560037F64
:1009B000A122E50C240DF582E4350BF583E0FF90D0
:1009C0000311F09003247407F0EF20E713EF25E004
:1009D000FF900324E014F0E070EF9003117401F035
:1009E000E50C2416FFE4350BFE123633E4FCFD90D3
:1009F000032E12062C900330E0FEA3E04E7012E5A9
:100A00000C2424FFE4350BFE1235E590032E12066C
:100A10002CE50C2413FFE4350BFE123633E4FCFD09
:100A200090035912062C90035BE0FEA3E04E701277
:100A3000E50C2420FFE4350BFE1235E59003591236
:100A4000062CE50C2411FFE4350BFE123633EF249F
:100A50000FFFE43EC4F854F0C868FEEFC4540F48DA
:100A6000FFE4FCFD90035412062CE50C240EFFE479
:100A7000350BFE123633E4FCFD90034E12062C902B
:100A80000357E0FF7E00900350E0FCA3E02FFFEE51
:100A90003CFEE4FCFD90032E1205DF12048C8F1146
:100AA0008E108D0F8C0EE50C2410F582E4350BF5BD
:100AB00083E090032EB402191205C6EF2511F5113B
:100AC000EE3510F510ED350FF50FEC350EF50E8007
:100AD00007120651000000009003181205C6EF250A
:100AE00011FFEE3510FEED350FFDEC350EFC9003D9
:100AF0002A12062C9003591205C6C3EF9511FFEE7A
:100B00009510FEED950FFDEC950EFC900324E0F999
:100B1000F812059490032012062CE47FF57EFFFD69
:100B2000FC9003201205DFC31205835023E49003D9
:100B300026F0A3F0900322E0FEA3E0C394F5EE9428
:100B40000F90034750057401F080317402F0802C3F
:100B5000E50C2430FFE4350BFE123633900326EE0D
:100B6000F0A3EFF0E50C242CFFE4350BFE1235E585
:100B700090035412062C9003477403F0900350E046
:100B8000FEA3E04E60479003541205C6EC4D4E4F55
:100B9000603BE50C2410F582E4350BF583E064013D
:100BA000600C90032E1205C6EC4D4E4F601FE50CF5
:100BB000240BF582E4350BF583E07011E50C240C71
:100BC000F582E4350BF583E0C39402500CE509701F
:100BD00005750901013A7FA32290034E1205C690C4
:100BE00003181205DF12048C90034E12062C7D10A0
:060BF0007F0512346E22A5
:102F3A009003321205C690031812062C1231FAEFCA
:102F4A0060012290032E1205C6EC4D4E4F6043904D
:102F5A0003181205C690032E1205DF12048C900383
:102F6A001812062C900316E0FCA3E0FD7F01120F55
:102F7A005B8F0D9003181205C690032E1205DF12FF
:102F8A00049990031812062CE50D600612357BAFE2
:072F9A000D22C20B7F002293
:102E6700122000EF600564B1600122EF601190034A
:102E77003B12065100000000122000EF60012212F1
:102E87002F3AEF60012290033B1205C690031C12F4
:102E9700062C122C66EF600122900329E0250CF521
:102EA70009900328E0350BF508F583E509241CF59F
:102EB70082E43583F5831206510100000090031C5C
:0A2EC7001205C6123671122D882282
:082ED1007FFF7EFF7DFF7CFF07
:102ED9008F118E108D0F8C0E900326E0FCA3E0FD60
:102EE9004C7002FF22CFEDCFCEECCEE4FCFD900377
:102EF900431205DF12048C122C6CEF600122E50CE1
:102F090024E8FFE50B3401FE1235E5EF2511FFEE4C
:102F19003510FEED350FFDEC350EFC123671E50C62
:102F290024E8F582E50B3401F58312062C122DB441
:012F39002275
:10315F00C20AE50AC394144042122C66EF600122A2
:10316F00900329E0250CF509900328E0350BF508AD
:10317F00F583E509240BF582E43583F583E020E43C
:10318F001A90033F1205C6123671E509241CF58209
:0E319F00E43508F58312062C022DB47F0022C1
:10300000AF0AEFC3941250037FB422EFB41235908D
:103010000347E06403602D900324E0FF7401C8EFD0
:10302000C8088002C333D8FC900311F090032A1221
:1030300005DF900357E0FFE4FCFDFE12048C9003D3
:103040002A12062CAF0AEFD394134009EFB41407E9
:103050007822E67002C20A300A0712315FEF60017F
:053060002212346A2277
:1029D700E50AC394135007120003EF600122123473
:1029E7006AEF600122122C66EF600122900328E053
:1029F700FEA3E0250CF582E50B3EF58374E5F012A6
:102A07002DB4EF60012290031CE0F50EA3E0F50F53
:102A1700A3E0F510A3E0F511E50E450F45104511AC
:102A2700606D90031C1205C6EF24FFFFEE34FFFE16
:102A3700ED34FFFDEC34FFFC90031C12062C9003D1
:102A47003B12065100000000900312E50EF0A3E5CB
:102A57000FF0A3E510F0A3E511F07F0112100EEFC0
:102A670060012290033B1205C6EF2401FFE43EFEFE
:102A7700E43DFDE43CFC90033B12062C300CC912EC
:102A87002F3AEF60012290033B1205C6022ED97F31
:022A970000221B
:101CC300120003900325EFF070091229D7EF700279
:101CD300A1E722900325E0FF6442600122C3900341
:101CE30028E094025002A1E790031C1205C6EC4DB4
:101CF3004E4F7002A195121000EF600122200C02DA
:101D0300A1E790031C1205C690033B12062C123563
:101D130064EF60012290031C1205C69003121206A1
:101D23002C7F0212100EEF600122122F3AEF600196
:101D330022850C82850B837F02E4FEE4F0A3DEFBA5
:101D4300DFF7E4900325F0123240E4900328F0A378
:101D5300F09003181205C690034A12062C90031143
:101D6300E0F50EE50E6024122DB4EF60012290031E
:101D7300181205C6EF2401FFE43EFEE43DFDE43CFA
:101D8300FC90031812062C150E80D8122ED1EF608A
:101D93005322900357E0900325F090034A74FF12F7
:101DA30005ED122C6CEF600122E4900328F0A3F000
:101DB300900328E0FEA3E0FFC3EE9402501BE50C62
:101DC3002FF582E50B3EF583E064E5601790032869
:101DD300E475F02012047680D7900325E014F070A8
:101DE300B97FB22290031C1205C690033B12062C46
:101DF300E5B1549060037F1122123564EF60012234
:101E0300122F3AEF60012290033B1205C690031C88
:101E130012062C122ED1EF600122122C66EF600104
:101E230022900329E0250CF509900328E0350BF5F2
:101E330008E4FFEFC3940B50047E2080027E00E58C
:101E4300092FF582E43508F583EEF00FEFB420E3B4
:101E5300E5092418F582E43508F5837421F0A374A9
:101E630030F0E509241CF582E43508F5837401F0AC
:101E7300E4FFEFC3940B5031900358E0F8E6FE60A3
:101E830028EEB42E087F08900358E004F09003581E
:101E9300E0F8E6FEE5092FF582E43508F583EEF078
:101EA3000F900358E004F080C990031C1205C6127A
:101EB3003671122D88EF60012290031C1205C69023
:101EC300033B12062C90033F1206510000000090C2
:101ED300035912065100000000E4900325F07D141D
:061EE3007F1012346E2294
:10220A00D20A900324E0FFE47E02C8EFC8088005E2
:10221A00C333CE33CED8F924FFFFEE34FFFEE4FCFD
:10222A00FD90033F1205DF12048C900324E0240979
:10223A00F9F812059490035D12062C9003591205C1
:10224A00C6C8E9C812059490031212062C9003120C
:10225A001205C690035D1205DFD312058340149060
:10226A00035D1205C69003121205DF12049990034A
:10227A005D800990031C1205C690033B12062C9040
:10228A00031C1205C6EC4D4E4F701590033F120504
:10229A00C6EC4D4E4F7002FF22122E67EF601722D6
:1022AA0090033F1205C6EC4D4E4F700A90035D1223
:1022BA0006510000000190033B1205C6782212065F
:1022CA002090035D1205C6EF24FFFFEE34FFFEEDFA
:1022DA0034FFFDEC34FFFC90035D12062C90033BA7
:1022EA001205C690031212062C7826120620E4FF65
:1022FA0012100EEF600122300C6B90035D1205C6BE
:10230A00EC4D4E4F700E78221205BA90033B12061E
:10231A002C7F002290035D1205C6120575122ED974
:10232A00EF60012290033B1205C67826120620129E
:10233A003564EF60012278261205BA90031212065C
:10234A002C7F0212100EEF60012290035D74FF12BF
:10235A0005EDEC4D4E4F70CC78221205BA90033B36
:10236A0012062C61F590035DE0600241CBA3E060A8
:10237A000241CBA3E0600241CBA3E0600241CB78EB
:10238A00261205BA8F118E108D0F8C0E900312E54E
:10239A000EF0A3E50FF0A3E510F0A3E511F07F011D
:1023AA0012100EEF60012290035D1205C6EF2401A0
:1023BA00FFE43EFEE43DFDE43CFC90035D12062C86
:1023CA00300CC990035D1205C6122ED9EF600122A6
:1023DA0090031C1205C690033B12062C9003591257
:0F23EA00065100000000E4900325F0122F3A2264
:101EE900E50AC3941350037FB422122C66EF6001F4
:101EF90022C20E900329E0250CF509900328E0354C
:101F09000BF508782AE6FFE509240BF582E4350884
:101F1900F583E0F6EFF4600FE509240BF582E4356B
:101F290008F583EFF0D20E7928E7F50F7829E6F561
:101F39000EE5092416FFE43508FE1236337828EE3B
:101F4900F608EFF6E50FF47003E50EF46014E50901
:101F59002416F582E43508F583E50EF0A3E50FF0C4
:101F6900D20E7926E7F50F7827E6F50EE50924184C
:101F7900FFE43508FE1236337826EEF608EFF6E56B
:101F89000FF47003E50EF46014E5092418F582E4F2
:101F99003508F583E50EF0A3E50FF0D20E7822128D
:101FA90005BA8F118E108D0F8C0EE509241CFFE4E4
:101FB9003508FE1235E57822120620E50E550F5533
:101FC900105511F46023AF11AE10AD0FAC0E900394
:101FD9003F12062C123671E509241CF582E43508F6
:101FE900F58312062CD20EC20A300E03022DB47FDD
:021FF9000022C4
:1035A400E4FF74222FF876FF0FEFB40AF5121EE938
:0135B40022F4
:1032C500E50A641460037FB42290031C1205C690BE
:1032D500033B12062C900359120651000000009082
:1032E500031C1205C6EC4D4E4F60047F0080027F23
:0E32F500FF900325EFF07D157F1412346E223A
:1031AD00E50A641560071232C5EF600122900359DC
:1031BD001205C6782612062078221205BA900359F8
:1031CD0012062C90033F1205DFC3120583500C909D
:1031DD00033F1205C690035912062C900359120590
:0D31ED00C612363D78221206201229072254
:1023F900E50A641560071232C5EF6001227822E60A
:10240900FF08E67826CFF608EFF6E47822F608F614
:10241900900325E0B4FF037F00227827E618467071
:1024290002A1DD9003591205C690033F1205DFD3BF
:102439001205835002A1DD12324090035BE0FEA336
:10244900E0FF900341E0FCA3E0C39FF50FEC9EF58C
:102459000ED3E50F782796E50E18964007E6F50E98
:1024690008E6F50FC3E50E94025002A10C90035C37
:10247900E06002A10C90035BE030E002A10CE50EE4
:1024890013750E00F50F900325E0FF900311E0C3CB
:102499009FFFAE0FEED39F4005750E008F0FAF0F54
:1024A9007925E7782326FD19E71836FC122B35EF35
:1024B900600122AF0F900325E02FF0AF0FEF25E069
:1024C900750F00F50E9003591205DFAE0EAF0FE43C
:1024D900FCFD12048C90035912062CC37827E6954B
:1024E9000FF618E6950EF67823E50F26F618E50E91
:1024F90036F6900311E0FF900325E0C39F50028157
:1025090023A1AA90035BE0FEA3E0FFEE5401FEC302
:10251900E49FFF74029EFED3E50F9FE50E9E4004E3
:102529008E0E8F0F122C72EF60012290035BE0FE7A
:10253900A3E0FFEE5401FEEF250CFFEE350BFE790B
:1025490025E7782326FD19E71836FCAB0FAA0E12EA
:10255900348D9003591205DFAE0EAF0FE4FCFD1266
:10256900048C90035912062CC37827E6950FF618A8
:10257900E6950EF67823E50F26F618E50E36F69061
:10258900035CE06002812390035BE030E002812379
:10259900900311E0FF900325E004F0C39F500281EE
:1025A9002390033B1205C690031212062CE4FF1276
:1025B900100EEF600122300C1490032574FFF09087
:1025C90003591205C690033F12062C8007E49003B5
:0725D90025F081237F0022A1
:10135E00E50A641560071232C5EF6001227822E6B5
:10136E00FE08E6FF7826EEF6FE08EFF64E70063023
:10137E000A0302315FE47822F608F67827E618466B
:10138E007002C108900325E0F46002811B90031CDB
:10139E001205C6EC4D4E4F604DE50AB4120B90038C
:1013AE0047E0640360037FB12290033B1205C690B1
:1013BE00035912062C123564EF6001229003591264
:1013CE0005C690031212062C7F0212100EEF60015A
:1013DE0022900316E0650B7004A3E0650C700E12EC
:1013EE002F3AEF600822122E67EF6001227FFF7EF8
:1013FE00FF7DFF7CFF122ED9EF60012290033F127A
:10140E0005C690035912062CE4900325F0123240C3
:10141E00900325E0FF900311E0C39F25E0FFEFFE50
:10142E0090035BE0FCA3E0FDEC5401FCC3E49DF5EE
:10143E000FEE9CF50ED3E50F782796E50E18964025
:10144E0007E6F50E08E6F50FC3E50E94025002818D
:10145E00FD90035CE0600281FD90035BE030E002F2
:10146E0081FDE50E13750E00F50FAF0F7925E778A8
:10147E002326FD19E71836FC120F5BEF600122AF31
:10148E000F900325E02FF0AF0FEF25E0750F00F55D
:10149E000E9003591205DFAE0EAF0FE4FCFD1204E1
:1014AE008C90035912062CC37827E6950FF618E692
:1014BE00950EF67823E50F26F618E50E36F6900310
:1014CE00591205C690033F1205DFC3120583500E55
:1014DE009003591205C690033F12062CD20A9003B0
:1014EE0011E0FF900325E0C39F50026189A1E190B6
:1014FE00035BE0FEA3E0FFEE5401FEC3E49FFF7426
:10150E00029EFED3E50F9FE50E9E40048E0E8F0FBA
:10151E0090035CE0701990035BE020E01290035999
:10152E001205C690033F1205DFD312058340071242
:10153E002C72EF6001227925E7782326FF19E71830
:10154E0036FE90035BE0FCA3E0FDEC5401FCED25C0
:10155E000CFDEC350BFCAB0FAA0E12348D9003591B
:10156E001205DFAE0EAF0FE4FCFD12048C90035992
:10157E0012062CC37827E6950FF618E6950EF67828
:10158E0023E50F26F618E50E36F6122DB4EF6001A0
:10159E00229003591205C690033F1205DFC31205B0
:1015AE0083500E9003591205C690033F12062CD29B
:1015BE000A90035CE06002618990035BE030E00218
:1015CE006189900311E0FF900325E004F0C39F5062
:1015DE0002618990033B1205C690031212062CE499
:1015EE00FF12100EEF600122300C0890032574FFDD
:1015FE00F06189E4900325F06189300B07122F3AD0
:07160E00EF6001227F0022C2
:1035E5008F828E83E0FFA3E0FEA3E0FDA3E0FC2233
:0A3633008F828E83E0FFA3E0FE22E9
:07367100EFCCFFEECDFE22BD
:0A363D00C3E4CC13CD13CE13FF221B
:0A364700C3E4CF33CE33CD33FC22B1
:10348D0005A28D828C8315A28F828E837F00EA60C8
:10349D0007E0A3A5DFFBDAF9EB6005E0A3A5DBFBF5
:0134AD0022FC
:0300000002361DA8
:0C361D00787FE4F6D8FD75814102161597
:10042900BB010689828A83E0225002E722BBFE02D1
:09043900E32289828A83E4932204
:10044200BB010989828A83F8E028F022500327F74A
:1004520022BBFE05F8E328F3228A838982F8E4931B
:0204620028224E
:10046400BB010689828A83F0225002F722BBFE0177
:02047400F32271
:10047600C5F0F8A3E028F0C5F0F8E5821582700211
:060486001583E038F022AE
:0D048C00EF2BFFEE3AFEED39FDEC38FC22BF
:0E049900C3EF9BFFEE9AFEED99FDEC98FC225E
:1004A70075F008758200EF2FFFEE33FECD33CDCC0C
:1004B70033CCC58233C5829BED9AEC99E58298408F
:1004C7000CF582EE9BFEED9AFDEC99FC0FD5F0D66C
:1004D700E4CEFBE4CDFAE4CCF9A88222B800C1B996
:1004E7000059BA002DEC8BF084CFCECDFCE5F0CBD4
:1004F700F97818EF2FFFEE33FEED33FDEC33FCEB0D
:1005070033FB10D703994004EB99FB0FD8E5E4F9C7
:10051700FA227818EF2FFFEE33FEED33FDEC33FCB4
:10052700C933C910D7059BE99A4007EC9BFCE99AA8
:10053700F90FD8E0E4C9FAE4CCFB2275F010EF2FED
:10054700FFEE33FEED33FDCC33CCC833C810D707ED
:100557009BEC9AE899400AED9BFDEC9AFCE899F828
:0E0567000FD5F0DAE4CDFBE4CCFAE4C8F922BB
:0E057500C3E49FFFE49EFEE49DFDE49CFC2297
:10058300EB9FF5F0EA9E42F0E99D42F0E89C45F0CE
:010593002245
:10059400E8600FECC313FCED13FDEE13FEEF13FF45
:0305A400D8F12269
:1005A700E8600FEFC333FFEE33FEED33FDEC33FCB2
:0305B700D8F12256
:0C05BA00E6FC08E6FD08E6FE08E6FF226D
:0C05C600E0FCA3E0FDA3E0FEA3E0FF22A8
:0D05D200E6FB08E6F908E6FA08E6CBF82299
:0C05DF00E0F8A3E0F9A3E0FAA3E0FB229F
:1005EB007401FF3395E0FEFDFCA3A3A3E02FFFF006
:1005FB00E582158270021583E03EFEF0E5821582DE
:10060B0070021583E03DFDF0E582158270021583C3
:05061B00E03CFCF022B0
:0C062000ECF608EDF608EEF608EFF62206
:0C062C00ECF0A3EDF0A3EEF0A3EFF02241
:10063800D083D082E493F608740193F60874029389
:09064800F608740393F6740473C0
:10065100A8828583F0D083D08212066812066812C0
:100661000668120668E473E493A3C583C5F0C583E5
:10067100C8C582C8F0A3C583C5F0C583C8C582C8F3
:010681002256
:09068200EBF0A3EAF0A3E9F02279
:100BF600E51224ECF582E43402F583E00512229036
:100C060002E93007039002ECE475F0011207A10235
:100C160004292000E97F2ED2008018EF540F24907B
:100C2600D43440D4FF30040BEF24BFB41A00500371
:100C36002461FFE513600215130516E5167002051B
:100C46001530070E9002E9E475F0011207A1EF02D4
:100C5600046402341E7403D2078003E4C207F5124B
:100C66009002E9120682E4F513F515F516E5136010
:100C7600077F20120C3980F57514FFC201C200C22D
:100C860002C203C205C206C208120C05FF700D306F
:100C960007057F00120C4AAF16AE1522B4255FC2B7
:100CA600D5C204120C05FF24D0B40A00501A75F000
:100CB6000A781330D50508B6FF0106C6A426F62025
:100CC600D5047002D20380D924CFB41A00EF5004A1
:100CD600C2E5D204020E4BD20180C6D20080C0D239
:100CE6000280BCD2D580BAD20580B47F20120C39DE
:100CF6002002077401B5130040F1120BF6FF120C27
:100D060039020C73D208D2068095120BF6FB120B31
:100D1600F6FA120BF6F94A4B7006791C7A0F7BFF2E
:100D260020022EE513602A7E008E8275830012074C
:100D36007460060EEE651470F0C2D5EBC0E0EAC032
:100D4600E0E9C0E0EE120E92D0E0F9D0E0FAD0E091
:100D5600FB120429FF60AAEBC0E0EAC0E0E9C0E0AC
:100D6600120C39D0E02401F9D0E03400FAD0E0FBCF
:100D7600E5140460DCD514D980877BFF7A0E798E62
:100D8600D202809C791080027908C206C2088008C7
:100D9600D2D5790A8004790AC2D5E514047002F521
:100DA60014E4FAFDFEFF120BF6FC7B082001131279
:100DB6000BF6FD7B1030000A120BF6FE120BF6FF47
:100DC6007B20EC3382D592D55013C3E43000069FC6
:100DD600FFE49EFEE42001039DFDE49CFCE4CBF8C9
:100DE600C201EC700CCFCECDCCE824F8F870F380BD
:100DF60017C3EF33FFEE33FEED33FDEC33FCEB337D
:100E0600FB994002FB0FD8E9EB300105F8D0E0C4AE
:100E160048B201C0E00AEC4D4E4F78207B0070C20C
:100E2600EAB5140040BCC0E0120E94D0F0D0E02029
:100E36000104C4C0E0C4B201C0F0120C22D0F0D547
:100E4600F0EB020C731207B80D10530D8A580CE123
:100E56004C0CDD420D8E4F0D96440D96490CF64313
:080E66000D9C550D80460D8026
:100E6E00450D80470F3C500CE52D0CE92E0D0C2B3B
:100E7E000CED230D0A200F252A0CA54800000D04A9
:100E8E003F3F3F00790AA2D5200314300509B9105F
:100E9E00020404B9080104A2D52006025001042060
:100EAE0002689202B513005034C0E07F203003195F
:100EBE007F30A20272067205500F120EEBC202C2F2
:100ECE0006C205C2087F30800F300503E9C0E0126C
:100EDE000C39300503D0E0F9D0E0B513CC3005174E
:100EEE007F30B9100C120C397F583004077F788090
:100EFE0003B90803120C393002057F2D020C397F1D
:100F0E00202008F87F2B2006F322920280CF286E35
:100F1E00756C6C2900D201120BF63001F8C2017803
:100F2E001330D50108F6020CA52D50434958120B6B
:100F3E00F62403B405004001E4900F3793120C2AF7
:0D0F4E00743A120C2AD203751304020D8AA6
:10068B00E709F60870FA8046E709F20870FA803E2F
:10069B0088828C83E709F0A370FA807EE309F60861
:1006AB0070FA8076E309F20870FA806E88828C8388
:1006BB00E309F0A370FA806289828A83E0A3F608CB
:1006CB0070FA805689828A83E0A3F20870FA804A16
:1006DB0080D280FA80C680D4806580F28031801011
:1006EB0080A680EA809A80A880DA80E280CA803176
:1006FB0089828A83ECFAE493A3C8C582C8CCC583EC
:10070B00CCF0A3C8C582C8CCC583CC70E9800D8959
:10071B00828A83E493A3F60870F9ECFAA9F0EDFB57
:10072B002289828A83ECFAE0A3C8C582C8CCC58330
:10073B00CCF0A3C8C582C8CCC583CC70EA80DD8958
:10074B00828A83E493A3F20870F980CE88F0ED24BB
:10075B0002B4040050C4F582EB2402B4040050BA76
:09076B0023234582239006DB7371
:10077400BB010CE58229F582E5833AF583E022503A
:1007840006E92582F8E622BBFE06E92582F8E22284
:0D079400E58229F582E5833AF583E493229E
:1007A100F8E0FBA3A3E0F925F0F0E58215827002E1
:0707B1001583E0FA38F02285
:1007B800D083D082F8E4937012740193700DA3A3D0
:1007C80093F8740193F5828883E4737402936860E4
:0607D800EFA3A3A380DFE4
:10341E00EFB40A07740D123429740A309811A89962
:10342E00B8130CC2983098FDA899C298B811F6300E
:07343E0099FDC299F59922E6
:00000001FF
