:100D0D0073746172742E2E2E0A00253032580A002B
:0A0D510075A15575A1AA75A1FF2236
:0E0D1D00EF4E600905A1EF1F70F61E80F32255
:100CDF00AD07AC06ED4C600E7FE87E03120D1DEDE7
:070CEF001D70F11C80EE22D4
:0D0D2B0043C60143C40843C50C43CE10224B
:100B4C00C29FD29EC29DC2CDC2CC43878090000171
:100B5C0012065200000082E47B0AFAF9F8900001B8
:100B6C00E0FCA3E0FDA3E0FEA3E0FF1205A69000CD
:100B7C0005EBF0900001E0FCA3E0FDA3E0FEA3E098
:100B8C00FFE47B0AFAF9F81205A69000011206465A
:100B9C00900005E0C39405401F900001E0FCA3E029
:100BAC00FDA3E0FEA3E02401FFE43EFEE43DFDE4F2
:100BBC003CFC900001120646E589540F4420F5894F
:100BCC0043C9A0900001A3A3A3E0F404F58DD28E39
:040BDC00D299D29C3C
:010BE00022F2
:080D64003098FDC298AF9922FE
:080D6C008F993099FDD2992204
:100CF6008E858F84E58630E60B7586A6E58664408C
:070D0600547FFF227F402211
:100CBE008E858F84CEECCECFEDCF8E8F8F8EE58648
:100CCE0030E60B75869AE5866440547FFF227F409E
:010CDE0022F3
:100BE100900031E0FCE41200AD7BDB7A0F794978AB
:100BF100401200061200E1900032EFF075A1557528
:100C0100A1AA43B1047F007EF0120CF6CBEFCB75A5
:100C1100A15575A1AA53B1FB75A1FF75A15575A188
:100C2100AA43B104E0FD7C007F00120CBE75A15502
:0B0C310075A1AA53B1FB75A1FFE0FF05
:010C3C002295
:060D3800120BE1CEEFCE2C
:070D3E0090F000E493FF2296
:080D7400120D38C3EF9EFF22AF
:090D5B00120D38C3EF9E04FF22C3
:100C3D007F327E00120CDF120B4C7BFF7A0D790D8B
:100C4D00120734900031E5A1F0120D74900000EF01
:100C5D00F0120D5BEF75F00AA4FF900000E0C39F4A
:100C6D00E5F06480F8748098501E7BFF7A0D79173B
:100C7D00E0FF900004E4F0A3EFF0120734120D5BD7
:0A0C8D00900000E02FF080C980FE07
:10000300020157EC5D046005E85904700302014DD9
:10001300120118580460F6EC4860F2EC7004FDFE1F
:10002300FF22C860DB2481C85009C39860025006D0
:100033000201549850CAF582E9294B4A7005AB82F4
:1000430002014375F0007C1A7880C3EF9BEE9AEDB2
:1000530099400DC3EF9BFFEE9AFEED99FDE842F048
:10006300DC23ACF0D0E0FFD0E0FED0E0FDAB82209B
:10007300E7101BEB60BAEC2CFCEF33FFEE33FEED25
:1000830033FD02012FE803F830E705C0F075F000F7
:10009300EF2FFFEE33FEED33FD40B830E7C280AA09
:1000A30075F020800E75F010800575F0087D007ED8
:1000B300007F003392D530D503120638EC3340105D
:1000C300EF33FFEE33FEED33FDEC33FCD5F0ED22E1
:0E00D300E5F0247EA2D513CC92E7CDCEFF221D
:1000E100EDD2E7CD33EC3392D524814006E4FFFE17
:1000F100FDFC22FCE4CFCECDCC24E0501174FF8076
:10010100EDC3CC13CCCD13CDCE13CECF13CF047012
:07011100F030D5DE020638D4
:1006C900E5082404F582E43400F583E00508229066
:1006D9000001300703900004E475F001120683025B
:1006E90005122000E97F2ED2008018EF540F2490C4
:1006F900D43440D4FF30040BEF24BFB41A005003A4
:100709002461FFE50960021509050CE50C70020575
:100719000B30070E900001E475F001120683EF0219
:100729000558020C977403D2078003E4C207F50841
:1007390090000112069AE4F509F50BF50CE509603C
:10074900077F2012070C80F5750AFFC201C200C29B
:1007590002C203C205C206C2081206D8FF700D30D4
:1007690007057F0012071DAF0CAE0B22B4255FC22F
:10077900D5C2041206D8FF24D0B40A00501A75F065
:100789000A780930D50508B6FF0106C6A426F62061
:10079900D5047002D20380D924CFB41A00EF5004D3
:1007A900C2E5D204020A0FD20180C6D20080C0D2AB
:1007B9000280BCD2D580BAD20580B47F2012070C42
:1007C9002002077401B5090040F11206C9FF12079A
:1007D9000C020746D208D20680951206C9FB1206FA
:1007E900C9FA1206C9F94A4B7006790D7A0B7BFFD3
:1007F90020022EE509602A7E008E8275830012058B
:100809002B60060EEE650A70F0C2D5EBC0E0EAC0B7
:10081900E0E9C0E0EE120A70D0E0F9D0E0FAD0E0E9
:10082900FB120512FF60AAEBC0E0EAC0E0E9C0E0F4
:1008390012070CD0E02401F9D0E03400FAD0E0FB33
:10084900E50A0460DCD50AD98087D20280A2120A9F
:100859005260F7E50A700104120162A90A600DE508
:100869000A600914F50A120AFAEF60F3EA30E7029E
:10087900F404C3995079EAF4250A0430E701E40441
:10088900F50A800D120A5260C1EA050A250A120109
:1008990062EA900030F030E701E4250A04D50A0441
:1008A90020050114120A70E4C0E0120AFA9000301F
:1008B900E0601320E70714F01206F4802204F0D058
:1008C900E014C0E07F001206F4E50A60071206EBA7
:1008D900150A800B3005031206EBD0E0020746D05B
:1008E900E00480C4120A52609EE50A041201629073
:1008F9000030EAF0E50A2005026001042404120A26
:01090900707D
:10090A0074FF04C0E0120AFA1206F4E50A2005028E
:10091A0060031206EBD0E0B50AE87F451206FE90A6
:10092A000030E07F2B30E7047F2DF404C0E012078B
:10093A000CD0E075F00A84C0F01206F5D0E0120679
:10094A00F5020746791080027908C206C2088008B3
:10095A00D2D5790A8004790AC2D5E50A047002F56B
:10096A000AE4FAFDFEFF1206C9FC7B0820011312F5
:10097A0006C9FD7B1030000A1206C9FE1206C9FF1D
:10098A007B20EC3382D592D55013C3E43000069F06
:10099A00FFE49EFEE42001039DFDE49CFCE4CBF809
:1009AA00C201EC700CCFCECDCCE824F8F870F380FD
:1009BA0017C3EF33FFEE33FEED33FDEC33FCEB33BD
:1009CA00FB994002FB0FD8E9EB300105F8D0E0C4EF
:1009DA0048B201C0E00AEC4D4E4F78207B0070C24D
:1009EA00EAB50A0040BCC0E0120A72D0F0D0E0209A
:1009FA000104C4C0E0C4B201C0F01206F5D0F0D5BB
:100A0A00F0EB0207461206A307E353094E5807B450
:100A1A004C07B04209524F095A44095A4907C94377
:100A2A00096055088D4608ED450857470B2D5007B4
:100A3A00B82D07BC2E07DF2B07C02307DD200B16B6
:100A4A002A077848000007D7E50AB4FF03750A06A3
:100A5A001206C9FC1206C9FD1206C9FE1206C9FF12
:100A6A0090002902019F790AA2D5200314300509B2
:100A7A00B910020404B9080104A2D52006025001E3
:100A8A00042002689202B509005034C0E07F203089
:100A9A0003197F30A20272067205500F120AC9C2E8
:100AAA0002C206C205C2087F30800F300503E9C0C2
:100ABA00E012070C300503D0E0F9D0E0B509CC30DC
:100ACA0005177F30B9100C12070C7F583004077FC6
:100ADA00788003B9080312070C3002057F2D02073C
:100AEA000C7F202008F87F2B2006F322920280CF69
:100AFA007F00B40700500B2429F582E43400F58303
:100B0A00E0FF22286E756C6C2900D2011206C930EA
:100B1A0001F8C201780930D50108F60207782D508C
:100B2A004349581206C92403B405004001E4900B56
:100B3A0028931206FD743A1206FDD20375090402BF
:020B4A00094E52
:10011800E9D2E7C933E833F892D5EDD2E7CD33EC2D
:0701280033FC5002B2D522A6
:10012F00EC30E7100FBF000C0EBE00080DBD000431
:10013F000BEB6014A2D5EB13FCED92E7FD2274FFDD
:10014F00FCFDFEFF22E480F8A2D574FF13FC7D8036
:03015F00E480EF4A
:10016200F920E73624F950037907E4F42402FBE589
:1001720082158270021583DBF6E024FB501BE960D6
:1001820014E4F0E582158270021583E004F0B40AEB
:0D01920008E4F0D9EE7401F00A22C2D52273
:10019F00ED33EC3392D5FA602AB4FF33EDC2E77B2F
:1001AF00FF60067A0179C4E4227A0179CD20D50463
:1001BF007A0179C8224E614E002B494E46002D49D7
:1001CF004E4600E47A08F0A3DAFC7B00740722C0E5
:1001DF0083C082ECC0E0EDC0E0EEC0E0EFC0E0EA2B
:1001EF0075F010A4CAABF075F04DA42BFBE435F0FD
:1001FF00FCEA2410FAEB34C5FBEC34D9FCEDC2E772
:10020F00FF75F056A4F42411C5F0F434C58FF0A493
:10021F002AE5F03BE43CF020E7141204D2D0E0FFD3
:10022F00D0E0FED0E0FDD0E0FC1200068014F40414
:10023F001204D2D0E0FFD0E0FED0E0FDD0E0FC12FF
:10024F00039CD082D083E0FAEDD2E7CD33EC332498
:10025F0082FBE4C3CF33CFCE33CECD33CD33DBF3FD
:10026F007B0775F00A846004F0A31B0AE5F0F0A386
:10027F008FF0740AA4FFACF08EF0740AA42CFEACBD
:10028F00F050010C8DF0740AA42CFDE435F0F0A3AE
:05029F00DBDE74072204
:1002A40002014DE86480F8E933E83360110460F03A
:1002B400ED33EC337009E8FCE9FDEAFEEBFF2204C0
:1002C40060DED3EB9FEA9EE99DE8C2E78CF0C2F7BB
:1002D40095F0400CE8CCF8E9CDF9EACEFAEBCFFB87
:1002E40012011885D0F05804700320D5B3E80470C7
:1002F400075002B2D502015792D5EC0460F7E4CC62
:10030400C0E0C398F8603B94186008400DD0E0FB4F
:1003140002012FE4FBFAC9FC8028E830E406E4C9B2
:10032400FBE4CAFCE830E305E4C9CACBFCE85407A3
:100334006010F8C3E913F9EA13FAEB13FBEC13FCAE
:10034400D8F130F52FC3E49CFCEF9BFFEE9AFEED51
:1003540099FDD0E0FBEF4E4D4C701222DB030201FD
:1003640054EC2CFCEF33FFEE33FEED33FDED30E7C0
:10037400EB02012FEF2BFFEE3AFEED39FDD0E0FB4F
:1003840050130BBB0003020157ED13FDEE13FEEFF8
:0803940013FFEC13FC02012F22
:10039C00EC4D6011E8497017ED33EC3304600DE45B
:1003AC00FCFFFEFD22E933E8330470F802014D1224
:1003BC00011858046009E4CC248150062850090225
:1003CC000157284003020154C0E0EB4A7044B98045
:1003DC0006D0E0FB020143EF4E701CBD8008EBFF22
:1003EC00EAFEE9FD80EBE98DF0A4FEE5F002048560
:1003FC00E9CDF9EAFEEBFFEF89F0A4FCE5F0CE893C
:10040C00F0A42EFFE435F0CD89F0A42DFEE435F0F8
:10041C008067EF4E7005BD80D780C3EF8BF0A4AC26
:10042C00F0EE8BF0A42CFCE435F0F8EF8AF0A42C61
:10043C00E5F038FCE433CB8DF0A42CFCE5F03BF874
:10044C00EE8AF0A42CFCE5F038F8E433CF89F0A464
:10045C002CFCE5F038CF3400CE89F0A42FFFE5F06A
:10046C003EFEE433C98DF0A42EFEE5F039CD8AF0C2
:10047C00A42FFFE5F03EFEE43DFD33D0E0FB50073A
:10048C000BBB000F020157EC2CFCEF33FFEE33FEDD
:06049C00ED33FD02012F0B
:1004A2003F8000004120000042C80000447A000062
:1004B200461C400047C35000497424004B189680E4
:1004C2004CBEBC205A0E1BCA6753C21C749DC5AEDB
:1004D200FB60065407601C2323120500EB543860AE
:1004E200091204EC1204FB12039CECF8EDF9EEFA8B
:1004F200EFCB22EB1204FB80F1543803241C90044E
:10050200A2FE93FC0EEE93FD0EEE930ECE93FF220F
:03000000020D45A9
:0C0D4500787FE4F6D8FD758121020C3D9A
:10051200BB010689828A83E0225002E722BBFE02E7
:09052200E32289828A83E493221A
:10052B00BB010CE58229F582E5833AF583E0225085
:10053B0006E92582F8E622BBFE06E92582F8E222CF
:0D054B00E58229F582E5833AF583E49322E9
:10055800BB010689828A83F0225002F722BBFE0182
:02056800F3227C
:10056A0075F008758200EF2FFFEE33FECD33CDCC48
:10057A0033CCC58233C5829BED9AEC99E5829840CB
:10058A000CF582EE9BFEED9AFDEC99FC0FD5F0D6A8
:10059A00E4CEFBE4CDFAE4CCF9A88222B800C1B9D2
:1005AA000059BA002DEC8BF084CFCECDFCE5F0CB10
:1005BA00F97818EF2FFFEE33FEED33FDEC33FCEB49
:1005CA0033FB10D703994004EB99FB0FD8E5E4F904
:1005DA00FA227818EF2FFFEE33FEED33FDEC33FCF1
:1005EA00C933C910D7059BE99A4007EC9BFCE99AE5
:1005FA00F90FD8E0E4C9FAE4CCFB2275F010EF2F2A
:10060A00FFEE33FEED33FDCC33CCC833C810D70729
:10061A009BEC9AE899400AED9BFDEC9AFCE899F864
:0E062A000FD5F0DAE4CDFBE4CCFAE4C8F922F7
:0E063800C3E49FFFE49EFEE49DFDE49CFC22D3
:0C064600ECF0A3EDF0A3EEF0A3EFF02227
:10065200A8828583F0D083D08212066912066912BD
:100662000669120669E473E493A3C583C5F0C583E2
:10067200C8C582C8F0A3C583C5F0C583C8C582C8F2
:010682002255
:10068300F8E0FBA3A3E0F925F0F0E5821582700200
:070693001583E0FA38F022A4
:09069A00EBF0A3EAF0A3E9F02261
:1006A300D083D082F8E4937012740193700DA3A3E6
:1006B30093F8740193F5828883E4737402936860FA
:0606C300EFA3A3A380DFFA
:100C9700EFB40A07740D120CA2740A309811A899C0
:100CA700B8130CC2983098FDA899C298B811F630BD
:070CB70099FDC299F5992295
:00000001FF
