:101FC50075A15575A1AAE5B954F84404F5B9E4F528
:021FD500A12247
:0E1FE700EF4E600905A1EF1F70F61E80F32279
:101F8400AD07AC06ED4C600E7FE87E03121FE7ED53
:071F94001D70F11C80EE221C
:0420420043C610225F
:10195C00C29FD29EC29DC2CDC2CC438780900086CE
:10196C00120FD400000082E47B0AFAF9F89000868A
:10197C00E0FCA3E0FDA3E0FEA3E0FF120F36900015
:10198C008AEBF0900086E0FCA3E0FDA3E0FEA3E070
:10199C00FFE47B0AFAF9F8120F36900086120FC892
:1019AC0090008AE0C39405401F900086E0FCA3E001
:1019BC00FDA3E0FEA3E02401FFE43EFEE43DFDE4D4
:1019CC003CFC900086120FC8E589540F4420F58921
:1019DC0043C9A0900086A3A3A3E0F404F58DD28E96
:0419EC00D299D29C1E
:0119F00022D4
:082015003098FDC298AF99223A
:08201D008F993099FDC2992250
:0A200100C2C7D2C5D2C475C2F322D3
:0820250030C0FDC2C0AFC122B2
:08202D008FC130C1FDD2C122B8
:101F9B0075A15575A1AAEF600543B101800353B13B
:071FAB00FEE4F5A1F5FF22A1
:032046008FFF22E7
:101FD700210A0000000000002109000200000100A2
:08203500E49000C4F0A3F022C6
:101D9B00E4FFE5DA30E0189000C4E06005E5D120FF
:101DAB00E01E1220359000C47401F07F1580119055
:101DBB0000C4E0C394014008122035EF70027F1677
:011DCB0022F5
:0C1FF500EF547FFFE5E354804FF5E3223A
:051FB2007402F07F0144
:0E1FB700EF600753E2BF53D27F2243E2402285
:101DFD009000AE7408F0E4FF121FF57F01121FB7BB
:101E0D00E5D154FB4402F5D17F0F7E00121F8453A0
:0C1E1D00D1FD7FFA7E00121FE7C2D82220
:101D33009000C4E0C3940150037401F0E5DA30E08D
:101D430020E5D120E015E5DA30E1047F0080027F51
:101D5300019000C6EFF0700343D10443D1017F002B
:041D6300227F1622A3
:101C4D00AE07EE602975F005A424ABF582E43400EF
:101C5D00F583E0FF121FF5EE75F005A424ACF582B7
:101C6D00E43400F583E0FF701043D280800B9000C8
:0D1C7D00C5E0FF121FF5A3E0FF121FB72204
:101F6A007FC87E0020D909EF1F70011EEF4E70F462
:091F7A0030D9047F0080027FFED3
:011F8300223B
:0B17C6009000A2EFF0A3EAF0A3EBF00C
:1017D100AF058FD68FD4E4F5DD9000A2E0F5D5C238
:1017E100D97FC87E0020D909EF1F70011EEF4E700E
:1017F100F4E4F5D520D9037FFE2230D823C2D812D4
:101801001D9BEFB41502D2099000C4E0FE70037F66
:101811001622EEB401037F15227FC87E00121FE756
:1018210030D96730DE037F0022E5D9540FFFB40EB3
:10183100028043EFB40A299000A3E0FCA3E0FD4C31
:101841007003EF803EC3ED94FFEC94FF500E9000C7
:10185100A4E024FFF09000A3E034FFF015DD802D1B
:101861009000A2E0C4540F24F7600D24FC6004240E
:101871000C7014EF6017800BEFB40304640B600D60
:10188100EF600A4420FF227FFE2275D8FF7F0F7E82
:1018910000121FE705DDAFDDEFC39403500302170C
:0318A100DA7F20CB
:0118A4002221
:0A1077007E007F407B017A00798E35
:0B108100900095EBF0A3EAF0A3E9F06B
:10108C00E4A3F0A3F0AA06A9077B0190009C04F04E
:10109C00A3EAF0A3E9F0900095E0F9A3E0FAA3E04D
:1010AC0090009FC9F0A3EAF0A3E9F07FC87E00127C
:1010BC001FE790009FE0FBA3E0FAA3E0F9EA494B9D
:1010CC006004E4120ED275D7087B107A27E4FD7FFA
:1010DC00D01217C690009AEFF06003E0FF2275D68D
:1010EC00D075D4D075D701900047E0FE900046E053
:1010FC00FDEDFF900098EEF0A3EFF04E700302129E
:10110C009B90009CE0FBA3E0FAA3E0F9EA494B704A
:10111C000302129B900040E020E7030211DA9000DA
:10112C0098E07002A3E070030211D47FC87E001215
:10113C001FE77B107A27ADD47F901217C690009AC8
:10114C00EFF0E0FF600122AFDB900098E0FCA3E041
:10115C00FDD39FEC94004004AFDB8002AF05900000
:10116C009BEFF0E0FFC3900099E09FF0900098E0B7
:10117C009400F090009FE0FBA3E0FAA3E0F9EA49A9
:10118C004B6004EF120EB0E4FF90009BE06F602800
:10119C0074002FF582E43400F583E0FE90009CE0AF
:1011AC00FBA3E0FAA3E0F9EE120ED290009DE475D9
:1011BC00F001120EE40F80D1E5DB600C9000AEE084
:1011CC001455DB700302112AE4F5D702129B900030
:1011DC0098E07002A3E0700302129B7FC87E00129D
:1011EC001FE79000AEE0FFFD900098E0FAA3E0FB53
:1011FC00C39DEA940040028002AF038FD790009CFD
:10120C00E0FBA3E0FAA3E0F9900001120E83B4090D
:10121C000A9000C3E06401F0120ED2E4FFEF65D730
:10122C00602890009CE0FBA3E0FAA3E0F9120E6AA0
:10123C00FE74402FF582E43400F583EEF090009DAF
:10124C00E475F001120EE40F80D37B107A27ADD633
:10125C007F101217C690009AEFF0E0FF600122AFEA
:10126C00D7C3900099E09FF0900098E09400F09024
:10127C00009FE0FBA3E0FAA3E0F9EA494B700302FC
:10128C0011DA90009FA3A3E5D7120EB00211DA7FFA
:10129C00C87E00121FE7E5D760047F9080027F10A4
:1012AC007B107A277DC01217C690009AEFF060036E
:1012BC00E0FF22E5D77002FF22E5DB7002FF227F00
:0112CC00170A
:0112CD0022FE
:101EF400E4FD8F828E83E493FC74402DF582E434F8
:0F1F040000F583ECF00FBF00010E0DEDB408E304
:011F130022AB
:101C8A009000AE7408F07E167F29121EF47E007F43
:101C9A00407B017A00798E121081EF600122900058
:101CAA0047E09000AEF090162FE493FF90008EE08C
:091CBA00C39F50037F17227F0035
:011CC30022FE
:101BB3007E167F31121EF4121077EF600122901609
:101BC30037E493FE90008EE0C39E50037F1722906C
:101BD3000042E090008EF07E167F31121EF49000DA
:101BE3008EE0900046F0121077EF600122901637D6
:101BF300E493FF90008EE0FEC39F4009900042E013
:0A1C0300FFEE9F50037F17227F00C1
:011C0D0022B4
:051CFD0090008EEFF0E5
:101D02007E167F39121EF490008EE0900042F07B26
:101D1200007A007900E4FFFE121081EF6001229048
:101D2200008EE0FF121FF57F0A7E00121F847F00E3
:011D3200228E
:051F1400900089E0FFD0
:101F1900AB077E167F41121EF4900042EBF07B0066
:0B1F29007A007900E4FFFE1210812214
:101F3400AB077E167F51121EF4900044EBF07B0039
:0B1F44007A007900E4FFFE12108122F9
:101F4F00AB077E167F49121EF4900042EBF07B0028
:0B1F5F007A007900E4FFFE12108122DE
:101AEA00788D7C007D017BFF7A1F79D77E007F0885
:101AFA00120E44E4FF748D2FF582E43400F583E07E
:101B0A00FE74402FF582E43400F583EEF00FEFB453
:101B1A0008E37E007F407B017A00798C1210817E77
:101B2A00167F61121EF47E007F407B017A00798C59
:101B3A00121081EF60012290162FE493FF90008C1F
:0A1B4A00E0C39F50037F17227F00C5
:011B5400226E
:101E29007E167F59121EF47E007F407B007A00796E
:101E390008121081EF60012290165FE493FFE50814
:091E4900C39F50037F17227F00A4
:011E5200226D
:051C0E00900088E0FFDA
:101C130090004074A3F0A3E4F0A3F0A3F0A3EFF0CB
:101C2300A3E4F0A37404F0A3E4F07E007F407B01FF
:101C33007A00798C121081EF60012290008CE0C34E
:091C4300940450037F17227F0076
:011C4C002275
:071E5300900088E0FF7D0410
:101E5A009000407423F0A37403F0A3EDF0A3E4F020
:101E6A00A3EFF0A3E4F0A3F0A3F0FBFAF9FFFE124C
:031E7A00108122B2
:051E7D00900088E0FF69
:101E82009000407423F0A37401F0A3EDF0A3E4F0FA
:101E9200A3EFF0A3E4F0A3F0A3F0FBFAF9FFFE1224
:031EA2001081228A
:101CC4007E167F69121EF47E007F407B017A0079C4
:101CD4008C121081EF600122901670E493FE90162E
:101CE4006FE493FDEDFFC390008DE09F90008CE0C6
:081CF4009E50037F17227F00C0
:011CFC0022C5
:041B55007E007F404F
:101B5900E4F9FC8F828E83A3A3E0FBECC39B50477F
:101B6900EF2CF582E43EF583A3E064057025EF2CA4
:101B7900F582E43EF583A3A3A3E05403FBBB03135F
:101B8900EF2CF582E43EF583A3A3E030E705540F7B
:101B9900F98014EF2CF582E43EF583E0FDD394102F
:091BA9005005ED2CFC80ACAF01ED
:011BB2002210
:050A3800900086EFF0C4
:100A3D00121DFDE4900087F0A3F07F017E00121FD0
:100A4D0084121D33EF700E900087F0A3E004F0E0E8
:100A5D00D39414500C900087E004F0E0C3946440EC
:100A6D00D9900087E060061220357F1622E4FF1230
:100A7D001C4D121C8A900088EFF06003020D6890E7
:100A8D000044E090008AF090163BE493FF900086BE
:100A9D00E02FFF121CFD900088EFF06003020D683F
:100AAD0090163B93FF900086E02F9000C5F0121B2F
:100ABD00B3900088EFF06003020D68900045E09060
:100ACD000089F090004EE090008BF090008AE0706D
:100ADD0020A3E0B4081B121F14900088EFF06003F0
:100AED00020D689000C47403F09000C77408020DE5
:100AFD006090008AE06003020BB3A3E0640760031B
:100B0D00020BB390004FE064016003020BB3900041
:100B1D0053E0FFB4050BA3E0FE60069000C8F08023
:100B2D001CEFB40518900054E0FF7C0060047D01BB
:100B3D0080027D00ED4C70059000C9EFF090005AD9
:100B4D00E0FFB40510900054E0600A90005BE09067
:100B5D0000C8F0801EEFB4051A900054E07E0060CE
:100B6D00047F0180027F00EF4E700890005BE090E3
:100B7D0000C9F0121F14900088EFF06003020D6899
:100B8D00A3E0FF121F4F900088EFF0121CC49000DD
:100B9D0088EFF06003020D689000C47403F09000BC
:100BAD00C77407020D6090008AE07065A3E06403CE
:100BBD00705F90004FE0D394015056121B5590007A
:100BCD0088EFF0540F9000C8F0900050E090008B2B
:100BDD00F0121F14900088EFF06003020D68121AD6
:100BED00EA900088EFF09000C47403F090008BE061
:100BFD00FEB401089000C77423020D60EEB4020824
:100C0D009000C77433020D6090008874FBF0020DE4
:100C1D006890008AE064096003020D3E121B559036
:100C2D000088EFF0540F9000C9F0121E2990008833
:100C3D00EFF06003020D68900042E09000C8F0D321
:100C4D00940440037404F0121F14900088EFF060B8
:100C5D0003020D689000C47403F09000C77409F08E
:100C6D009000877401F09000C8E0FF900087E0D3FA
:100C7D009F5023E0FF75F005A424AAF582E434000B
:100C8D00F583E4F07D08121E5A900088EFF0900075
:100C9D0087E004F080D09000877401F09000C8E0E8
:100CAD00FE900087E0FFD39E50127D10121E8290A1
:100CBD000088EFF0900087E004F080E090008774EA
:100CCD0001F09000C8E0FE900087E0FFD39E400346
:100CDD00020D61121C13900088EFF0604C900040E3
:100CED00E06046900087E0FF75F005A424AAF58228
:100CFD00E43400F583E06403602F7D04121E5A90E6
:100D0D000088EFF06003E0FF227F017E00121F8458
:100D1D00900087E0FF121C13900088EFF06003E055
:100D2D00FF22900040E020E4E0900087E004F08096
:100D3D0091121F14900088EFF070209000C474037E
:100D4D00F090008AE0FF6002800590008BE0FF903C
:100D5D0000C4EFF07F01121FB71F229000C4121FB5
:060D6D00B2900088E0FFD7
:010D7300225D
:101EA500E4780EF6780EE6FFC3940250189000C44D
:101EB500E0B4010C120A38780DEFF66003E6FF2254
:071EC500780E0680DF7F00AC
:011ECC0022F3
:0512CE00900089EFF023
:1012D30070037FFE22900089E0FF121C4D121C8ACE
:1012E300AE07EE600122900044E090008CF0900085
:1012F30089E02410FF90008BF0121CFDAE07EE6016
:10130300012290008BE0FF900089E075F005A42492
:10131300ABF582E43400F583EFF0121BB3AE07EEB6
:10132300600122900045E090008BF090004EE09029
:10133300008DF090008CE0703EA3E064087038905C
:10134300008BE0FF121F19AE07EE600302148C90AE
:101353000089E0FF75F005A424AAF582E43400F5C2
:10136300837403F0EF75F005A424ADF582E4340033
:10137300F583740802148490008CE0600302141552
:10138300A3E06403600302141590004FE0D39401BB
:101393004003021415121B55AE07900089E075F047
:1013A30005A424AEF582E43400F583EEF0900050FA
:1013B300E090008DF090008BE0FF121F19AE07EE56
:1013C300600302148C900089E0FF75F005A424AA41
:1013D300F582E43400F5837403F090008DE0FDB4EE
:1013E3000113EF75F005A424ADF582E43400F58311
:1013F3007423021484EDB40215900089E075F0059E
:10140300A424ADF582E43400F583743380737EFB4A
:10141300807790008CE064097028900089E075F073
:1014230005A424ADF582E43400F5837409F090003B
:101433008AE0FF7D01121E82AE07EE6001227EFB71
:10144300804790008BE0FF121F19AE07EE703A90B1
:101453000089E0FF75F005A424AAF582E43400F5C1
:10146300837403F090008CE0FD6002800590008D92
:10147300E0FDEF75F005A424ADF582E43400F583B7
:10148300EDF07F01121FB71F22900089E075F00570
:0F149300A424AAF582E43400F583121FB2AF0639
:0114A2002227
:101671009000887401F09000C8E0FF900088E0D3EA
:101681009F40030217C3E4FF121C4D121C0EEF60B2
:101691000122900040E030E007900042E020E00BA2
:1016A100900042E064106003021764900088E0FF3C
:1016B10075F005A424AAF582E43400F5837401F0E1
:1016C100EF75F005A424ABF582E43400F583E4F072
:1016D100121C13EF600122900041E030E1047E0012
:1016E10080027E01900088E075F005A424ACF582AB
:1016F100E43400F583EEF07FC87E00121F84121ED1
:1017010053EF6001227F017E00121F84121C0EEF35
:10171100600122900040E020E4EB7F647E00121F14
:10172100847D14121E7D7D10121E7DEF6001221238
:101731001C0EEF600122900040E020E01390008831
:10174100E075F005A424AAF582E43400F583E4F001
:10175100900088E0FF1212CEEF6001227F01121F7C
:10176100B78056900042E030E128900088E0FF7D8C
:1017710011121E82121E53EF6001227F017E0012A0
:101781001F84121C0EEF600122900040E020E4EB68
:101791008027900040E020E020900088E0FF75F075
:1017A10005A424AAF582E43400F583E4F090004214
:1017B100E030E0057D10121E82900088E004F00206
:0417C10016777F0018
:0117C5002201
:101D6700E4900087F09000C4E0C39403401990000A
:101D7700C7E0B40912E4FF121C4D121671900086D9
:101D8700EFF07F01121FB7900087E004F0E0B40284
:031D9700D47F00F6
:011D9A002226
:021A7D00A907B7
:101A7F00E4FF9000C7E0FDB5010E9000C4E0C394F1
:101A8F00034005EF7F00FE22ED640970439000C410
:101A9F00E0C39403403A7D019000C8E0FEEDD39E71
:101AAF00502EED75F005A424ADF582E43400F583D6
:101ABF00E0697019ED75F005A424AAF582E43400ED
:101ACF00F583E0C394034005EFFEEDFF220D80C8C0
:0A1ADF000FEF6402709C7EFF7FFF92
:011AE90022DA
:0B18A500900086EBF0A3EAF0A3E9F04E
:1018B00078897C007D017BFF7A1F79DF7E007F08BD
:1018C000120E44900086E0FBA3E0FAA3E0F990003A
:1018D00001120E83FF120E6A4FFF900003120E8357
:1018E0004FFF900004120E834FFF900005120E83ED
:1018F0004FFF900006120E834FFF900007120E83D9
:1019000070047E0180027E00EE4FFF900086E0FBB7
:10191000A3E0FAA3E0F9900002120E83B453047E10
:101920000180027E00EE5F6030E4FF74892FF58253
:10193000E43400F583E0FE74402FF582E43400F5D2
:1019400083EEF00FEFB408E37E007F407B017A0066
:0B1950007991121081EF6001227F00EE
:01195B002269
:101DCC00C2EA75E280E4F5E375EB4875E50075E46D
:101DDC000075E70075E640F5D4F5D675E28975D245
:101DEC004075D8FFFF1220350FEFB402F875E103F0
:011DFC0022C4
:1014A300537461727420404368697049443D253028
:1014B30032580A0057616974204465766963652070
:1014C300496E0A00456E756D416C6C526F6F7444C2
:1014D300657620657272203D20253032580A00253A
:1014E3006300456E756D416C6C487562506F727424
:1014F30020657272203D20253032580A00517565EF
:101503007279204D6F7573652040253034580A0079
:101513004D6F75736520646174613A2000782530DE
:10152300325820000A004D6F757365206572726F23
:101533007220253032780A004D6F757365206E6F07
:1015430020696E7465727275707420656E64706F55
:10155300696E740A005175657279204B6579626F03
:101563006172642040253034580A002530325820F7
:1015730020006B6579626F61726420646174613A03
:1015830020006B6579626F617264206572726F729D
:1015930020253032780A006B6579626F61726420AE
:1015A3006E6F20696E7465727275707420656E64F7
:1015B300706F696E740A00485542206572726F72CB
:1015C30020253032780A00485542202530326420E5
:1015D3006E6F20696E7465727275707420656E64C7
:1015E300706F696E740A00524F4F5448554220255C
:1015F300303264206E6F74204855420A005175657D
:101603007279205072696E746572204025303458A7
:101613000A005072696E746572206572726F72206F
:10162300253032780A00800600010000120080068F
:101633000002000004000005020000000000000991
:10164300000000000000010B000000000000020188
:10165300000000000000A006002900000900810628
:0E166300002200004100A10000000000F10381
:04203D004100C3009B
:10000300121FC57F057E00121F8412195C7BFF7AC5
:100013001479A3AFA1900089E4F0A3EFF012073E97
:10002300121DCCC2097BFF7A1479B712073EE49004
:100033000081F030D80FC2D8121D9B900081EFF0E1
:10004300BF1502D209300926C2097FC87E00121FDC
:1000530084121EA5900081EFF060137BFF7A147960
:10006300C7E0FF900089E4F0A3EFF012073E309859
:10007300BD12200B900080EFF07BFF7A1479E290A1
:100083000089F012073E900080E0B4451D121D6701
:10009300900081EFF060137BFF7A1479E5E0FF9025
:1000A3000089E4F0A3EFF012073E900080E024B84B
:1000B300700302035324FD700302020224FB700346
:1000C300020588240360030200317F33121A7D90F6
:1000D3000084EEF0A3EFF0F47002EEF4700302007C
:1000E300317BFF7A157900900084E0FFA3E0900054
:1000F30089CFF0A3EFF012073E900084E0FCA3E069
:10010300FDEC900080F0CFEDCF900082EFF0121C59
:100113004D900082E0601175F005A424AEF582E4F1
:100123003400F583E0FF80059000C8E0FF90008372
:10013300EFF0540F70030201F6E0FE547F4490FF8A
:10014300EE30E7047DC080027D00E4FBFA1217C69F
:10015300900081EFF060030201DD900083E0648092
:10016300F0900082E0FF6015A3E0FEEF75F005A4B8
:1001730024AEF582E43400F583EEF080089000832A
:10018300E09000C8F0900082E5DBF0E0700302032A
:100193004B7BFF7A15791312073EE4900080F090B1
:1001A3000082E0FF900080E0FEC39F50257BFF7A32
:1001B30015792074002EF582E43400F583E0FF9076
:1001C3000089E4F0A3EFF012073E900080E004F012
:1001D30080CD7BFF7A157927801F900081E0FF6433
:1001E3002A60197BFF7A157929900089E4F0A3EF3F
:1001F300F080067BFF7A15793B12073E02034B7FA3
:1002030023121A7D900084EEF0A3EFF0F47002EE57
:10021300F470030200317BFF7A157958900084E073
:10022300FFA3E0900089CFF0A3EFF012073E900008
:1002330084E0FCA3E0FDEC900080F0CFEDCF9000D4
:1002430082EFF0121C4D900082E0601175F005A45E
:1002530024AEF582E43400F583E0FF80059000C806
:10026300E0FF900083EFF07BFF7A15796E900089B1
:10027300F012073E900083E0FE540F700302034226
:10028300EE547F4490FFEE30E7047DC080027D0092
:10029300E4FBFA1217C6900081EFF0600302032912
:1002A300900083E06480F0900082E0FF6015A3E09B
:1002B300FEEF75F005A424AEF582E43400F583EE79
:1002C300F08008900083E09000C8F0900082E5DBA6
:1002D300F0E060747B017A0079001218A57BFF7A45
:1002E30015797512073EE4900080F0900082E0FFDC
:1002F300900080E0FEC39F50257BFF7A1579207420
:10030300002EF582E43400F583E0FF900089E4F0E9
:10031300A3EFF012073E900080E004F080CD7BFF56
:100323007A157927801F900081E0FF642A60197B8A
:10033300FF7A157985900089E4F0A3EFF080067BBE
:10034300FF7A15799A12073E7F01121FB702003117
:100353007F23121A7D900084EEF0A3EFF0F4700275
:10036300EEF470030204937BFF7A157958900084AE
:10037300E0FFA3E0900089CFF0A3EFF012073E90D7
:100383000084E0FCA3E0FDEC900080F0CFEDCF9083
:100393000082EFF0121C4D900082E0601175F005B1
:1003A300A424AEF582E43400F583E0FF80059000D9
:1003B300C8E0FF900083EFF07BFF7A15796E900021
:1003C30089F012073E900083E0FE540F700302048D
:1003D3008AEE547F4490FFEE30E7047DC080027DB7
:1003E30000E4FBFA1217C6900081EFF060030204E9
:1003F30071900083E06480F0900082E0FF6015A3B9
:10040300E0FEEF75F005A424AEF582E43400F58335
:10041300EEF08008900083E09000C8F0900082E541
:10042300DBF0E0606B7BFF7A15797512073EE49091
:100433000080F0900082E0FF900080E0FEC39F50B8
:10044300257BFF7A15792074002EF582E43400F5BC
:1004530083E0FF900089E4F0A3EFF012073E9000E1
:1004630080E004F080CD7BFF7A157927801F900010
:1004730081E0FF642A60197BFF7A157985900089F2
:10048300E4F0A3EFF080067BFF7A15799A12073E1A
:10049300E4900080F0900080E0C3940240030200E7
:1004A300319000C4E06403600302056E9000C7E06E
:1004B3006409600302056EFF121C4D9000C9E090B1
:1004C3000083F0540F700302055EE0FE547F4490F6
:1004D300FFEE30E7047DC080027D00E4FBFA1217D3
:1004E300C6900081EFF0705A900083E06480F09032
:1004F30000C9F0900082E5DBF0E0700302057F1293
:100503001671E4900080F0900082E0FF900080E09C
:10051300FEC39F50257BFF7A15792074002EF58248
:10052300E43400F583E0FF900089E4F0A3EFF012D8
:10053300073E900080E004F080CD7BFF7A15792799
:100543008037900081E0FF642A60317BFF7A157960
:10055300BA900089E4F0A3EFF0801E7BFF7A15794F
:10056300CA900080E0900089F0800E7BFF7A1579B5
:10057300EA900080E0900089F012073E900080E04E
:1005830004F00204983090030200317E007F407D26
:10059300007B017A007940121005900040741BF033
:1005A300A37440F0A3741DF0A37455F0A37442F038
:1005B300A37402F0A37418F0A3741DF0A37476F06F
:1005C300A37430F0E4A3F0A37430F0E4A3F0A374B5
:1005D30018F07F07121A7D900084EEF0A3EFF0F479
:1005E3007002EEF470030200317BFF7A16790090FB
:1005F3000084E0FFA3E0900089CFF0A3EFF012079F
:100603003E900084E0FCA3E0FDEC900080F0CFED91
:10061300CF900082EFF0121C4D900082E0601175C4
:10062300F005A424AEF582E43400F583E0FF8005F1
:100633009000C8E0FF900083EFF07BFF7A15796E9E
:10064300900089F012073E900083E0FE540F700380
:1006530002003175D740EE547F4410FFEE30E704BB
:100663007DC080027D0074FFFBFA1217C6900081E3
:10067300EFF0703C900083E06480F07E007F407D6B
:10068300007B017A00794012100575D740900083F2
:10069300E0FE547F4410FFEE30E7047DC080027D0E
:1006A3000074FFFBFA1217C6900081EFF0020031CD
:1006B300900081E0FF642A70030200317BFF7A1609
:1006C3007915900089E4F0A3EFF012073E020031A0
:030000000219F1F1
:0C19F100787FE4F6D8FD758121021A38D9
:100D7400E709F608DFFA8046E709F208DFFA803E61
:100D840088828C83E709F0A3DFFA8032E309F6084E
:100D9400DFFA8078E309F208DFFA807088828C83B6
:100DA400E309F0A3DFFA806489828A83E0A3F6086A
:100DB400DFFA805889828A83E0A3F208DFFA804C44
:100DC40080D280FA80C680D4806980F2803380101B
:100DD40080A680EA809A80A880DA80E280CA803384
:100DE40089828A83ECFAE493A3C8C582C8CCC583FC
:100DF400CCF0A3C8C582C8CCC583CCDFE9DEE780CC
:100E04000D89828A83E493A3F608DFF9ECFAA9F04A
:100E1400EDFB2289828A83ECFAE0A3C8C582C8CCA0
:100E2400C583CCF0A3C8C582C8CCC583CCDFEADEB9
:100E3400E880DB89828A83E493A3F208DFF980CC1B
:100E440088F0EF60010E4E60C388F0ED2402B40414
:100E54000050B9F582EB2402B4040050AF232345BB
:060E64008223900DC4730F
:100E6A00BB010689828A83E0225002E722BBFE0286
:090E7A00E32289828A83E49322B9
:100E8300BB010CE58229F582E5833AF583E0225024
:100E930006E92582F8E622BBFE06E92582F8E2226E
:0D0EA300E58229F582E5833AF583E4932288
:100EB000BB010989828A83F8E028F022500327F7D2
:100EC00022BBFE05F8E328F3228A838982F8E493A3
:020ED0002822D6
:100ED200BB010689828A83F0225002F722BBFE01FF
:020EE200F322F9
:100EE400C5F0F8A3E028F0C5F0F8E5821582700299
:060EF4001583E038F02236
:100EFA0075F008758200EF2FFFEE33FECD33CDCCAF
:100F0A0033CCC58233C5829BED9AEC99E582984031
:100F1A000CF582EE9BFEED9AFDEC99FC0FD5F0D60E
:100F2A00E4CEFBE4CDFAE4CCF9A88222B800C1B938
:100F3A000059BA002DEC8BF084CFCECDFCE5F0CB76
:100F4A00F97818EF2FFFEE33FEED33FDEC33FCEBAF
:100F5A0033FB10D703994004EB99FB0FD8E5E4F96A
:100F6A00FA227818EF2FFFEE33FEED33FDEC33FC57
:100F7A00C933C910D7059BE99A4007EC9BFCE99A4B
:100F8A00F90FD8E0E4C9FAE4CCFB2275F010EF2F90
:100F9A00FFEE33FEED33FDCC33CCC833C810D70790
:100FAA009BEC9AE899400AED9BFDEC9AFCE899F8CB
:0E0FBA000FD5F0DAE4CDFBE4CCFAE4C8F9225E
:0C0FC800ECF0A3EDF0A3EEF0A3EFF0229C
:100FD400A8828583F0D083D082120FEB120FEB121C
:100FE4000FEB120FEBE473E493A3C583C5F0C58341
:100FF400C8C582C8F0A3C583C5F0C583C8C582C867
:0110040022C9
:1006D300E5082489F582E43400F583E005082290D7
:1006E3000086300703900089E475F001121031028F
:1006F3000E6A2000E97F2ED2008018EF540F249059
:10070300D43440D4FF30040BEF24BFB41A00500399
:100713002461FFE50960021509050CE50C7002056B
:100723000B30070E900086E475F001121031EF02D2
:100733000ED2021ECD7403D2078003E4C207F5086C
:10074300900086121048E4F509F50BF50CE50960F5
:10075300077F2012071680F5750AFFC201C200C287
:1007630002C203C205C206C2081206E2FF700D30C0
:1007730007057F00120727AF0CAE0B22B4255FC21B
:10078300D5C2041206E2FF24D0B40A00501A75F051
:100793000A780930D50508B6FF0106C6A426F62057
:1007A300D5047002D20380D924CFB41A00EF5004C9
:1007B300C2E5D204020928D20180C6D20080C0D289
:1007C3000280BCD2D580BAD20580B47F201207162E
:1007D3002002077401B5090040F11206D3FF120786
:1007E30016020750D208D20680951206D3FB1206D2
:1007F300D3FA1206D3F94A4B700679F97A097BFFCB
:1008030020022EE509602A7E008E82758300120E77
:100813008360060EEE650A70F0C2D5EBC0E0EAC055
:10082300E0E9C0E0EE12096FD0E0F9D0E0FAD0E0E1
:10083300FB120E6AFF60AAEBC0E0EAC0E0E9C0E089
:10084300120716D0E02401F9D0E03400FAD0E0FB1F
:10085300E50A0460DCD50AD980877BFF7A09796BC6
:10086300D202809C791080027908C206C2088008EF
:10087300D2D5790A8004790AC2D5E50A047002F553
:100883000AE4FAFDFEFF1206D3FC7B0820011312D3
:1008930006D3FD7B1030000A1206D3FE1206D3FFE7
:1008A3007B20EC3382D592D55013C3E43000069FEE
:1008B300FFE49EFEE42001039DFDE49CFCE4CBF8F1
:1008C300C201EC700CCFCECDCCE824F8F870F380E5
:1008D30017C3EF33FFEE33FEED33FDEC33FCEB33A5
:1008E300FB994002FB0FD8E9EB300105F8D0E0C4D7
:1008F30048B201C0E00AEC4D4E4F78207B0070C235
:10090300EAB50A0040BCC0E0120971D0F0D0E02083
:100913000104C4C0E0C4B201C0F01206FFD0F0D598
:10092300F0EB02075012105107ED5308675807BE4A
:100933004C07BA42086B4F08734408734907D34303
:08094300087955085D46085DC6
:10094B0045085D470A195007C22D07C62E07E92B2C
:10095B0007CA2307E7200A022A078248000007E19B
:10096B003F3F3F00790AA2D5200314300509B91087
:10097B00020404B9080104A2D52006025001042088
:10098B0002689202B509005034C0E07F2030031991
:10099B007F30A20272067205500F1209C8C202C242
:1009AB0006C205C2087F30800F300503E9C0E01294
:1009BB000716300503D0E0F9D0E0B509CC300517A8
:1009CB007F30B9100C1207167F583004077F7880E0
:1009DB0003B908031207163002057F2D0207167F95
:1009EB00202008F87F2B2006F322920280CF286E5E
:1009FB00756C6C2900D2011206D33001F8C2017854
:100A0B000930D50108F60207822D504349581206CA
:100A1B00D32403B405004001E4900A149312070792
:0D0A2B00743A120707D20375090402086728
:0A200B003098FDAF99C2987E0022C4
:10100500EF4E6012EF60010EEDBB010B89828A8302
:10101500F0A3DFFCDEFA2289F05007F709DFFCA90F
:0C102500F022BBFEFCF309DFFCA9F02266
:1019FD00020003E493A3F8E493A34003F68001F2FD
:101A0D0008DFF48029E493A3F85407240CC8C333EA
:101A1D00C4540F4420C8834004F456800146F6DFB9
:101A2D00E4800B010204081020408090203DE47EEC
:101A3D00019360BCA3FF543F30E509541FFEE493AE
:101A4D00A360010ECF54C025E060A840B8E493A375
:101A5D00FAE493A3F8E493A3C8C582C8CAC583CAA0
:101A6D00F0A3C8C582C8CAC583CADFE9DEE780BE58
:01204100009E
:10103100F8E0FBA3A3E0F925F0F0E5821582700248
:071041001583E0FA38F022EC
:09104800EBF0A3EAF0A3E9F022A9
:10105100D083D082F8E4937012740193700DA3A32E
:1010610093F8740193F5828883E473740293686042
:06107100EFA3A3A380DF42
:101ECD00EFB40A07740D121ED8740A309811A89930
:101EDD00B8130CC2983098FDA899C298B811F63075
:071EED0099FDC299F599224D
:00000001FF
