:10020C0075A15575A1AAE5B954F84404F5B9E4F5FE
:02021C00A1221D
:0E021E00EF4E600905A1EF1F70F61E80F3225F
:1001DE00AD07AC06ED4C600E7FE87E0312021EEDFD
:0701EE001D70F11C80EE22E0
:0402620043C610225D
:10011400C29FD29EC29DC2CDC2CC438780900000B4
:100124001200DD00000082E47B0AFAF9F890000076
:10013400E0FCA3E0FDA3E0FEA3E0FF12003F90007B
:1001440004EBF0900000E0FCA3E0FDA3E0FEA3E0DC
:10015400FFE47B0AFAF9F812003F9000001200D184
:10016400900004E0C39405401F900000E0FCA3E06D
:10017400FDA3E0FEA3E02401FFE43EFEE43DFDE434
:100184003CFC9000001200D1E589540F4420F5890D
:1001940043C9A0900000A3A3A3E0F404F58DD28E7C
:0401A400D299D29C7E
:0101A8002234
:080242003098FDC298AF99222B
:08024A008F993099FDC2992241
:0A023800C2C7D2C5D2C475C2F322BA
:0802520030C0FDC2C0AFC122A3
:08025A008FC130C1FDD2C122A9
:1001F50075A15575A1AAEF600543B101800353B1FF
:07020500FEE4F5A1F5FF2264
:030266008FFF22E5
:1001A900E4900008F0A3F0B2977F327E001201DEDE
:1001B9002096F4C2AF900005E4F0A37438F0A3E4EC
:1001C900F07F64FE1201DE900005A3E0FAA3E0F9D6
:0501D90012010E80FE82
:0300000002022CCD
:0C022C00787FE4F6D8FD7581070201A977
:1000030075F008758200EF2FFFEE33FECD33CDCCB4
:1000130033CCC58233C5829BED9AEC99E582984037
:100023000CF582EE9BFEED9AFDEC99FC0FD5F0D614
:10003300E4CEFBE4CDFAE4CCF9A88222B800C1B93E
:100043000059BA002DEC8BF084CFCECDFCE5F0CB7C
:10005300F97818EF2FFFEE33FEED33FDEC33FCEBB5
:1000630033FB10D703994004EB99FB0FD8E5E4F970
:10007300FA227818EF2FFFEE33FEED33FDEC33FC5D
:10008300C933C910D7059BE99A4007EC9BFCE99A51
:10009300F90FD8E0E4C9FAE4CCFB2275F010EF2F96
:1000A300FFEE33FEED33FDCC33CCC833C810D70796
:1000B3009BEC9AE899400AED9BFDEC9AFCE899F8D1
:0E00C3000FD5F0DAE4CDFBE4CCFAE4C8F92264
:0C00D100ECF0A3EDF0A3EEF0A3EFF022A2
:1000DD00A8828583F0D083D0821200F41200F4122E
:1000ED0000F41200F4E473E493A3C583C5F0C58353
:1000FD00C8C582C8F0A3C583C5F0C583C8C582C86D
:01010D0022CF
:06010E008A838982E4737C
:00000001FF
