:100BD200422E3D2020253034780A007E00602020FD
:100BE200433A5C4849445F524543562E4558452096
:100BF20020200D20202000120110010000000831E9
:100C020051072000110000000105010906A101059C
:100C12000719E029E715002501950875018102955C
:100C220008750181010508190129039503750191D0
:100C320002950175059101050719002AFF001500AB
:100C420026FF00950675088100C00600FF0901A174
:100C520001090215002600FF750895408106090268
:100C620015002600FF750895409106C00902420052
:100C7200020100A032090400000103010100092160
:100C8200110100012241000705810308000A09043D
:100C920001000203000000092110012101222200AB
:0E0CA200070582034000320705020340000AE6
:100E81004300DBFF0BDF604000EC000000000000CE
:100E91000000000000000000000000000000000051
:100EA1000000000000000000000000000000000041
:100EB1000000000000000000000000000000000031
:100EC100000000000000000000004800D100000008
:090ED10000000000004100D00007
:10000300C2EAE4F5E275EF0075EE0A75ED0075ECF2
:100013000075E50075E45043EA4075D21275DC02C1
:1000230043EB0C75D412F5E375D18075E22943D106
:0A0033000175D8FF75E107D2EA223B
:10103200780A7C007D017B017A0079D17E007F08ED
:101042001208AE75D30853D2FCE5D2540360FA22DB
:1010520078907C007D017B017A0079EC7E007F40F4
:101062001208AE75D54053D4FCE5D4540360FA227D
:0300430002004672
:0D004600C0E0C0F0C083C082C0D075D008FB
:1000530020D903020430E5D9543F700302041D2460
:10006300FE602324E2700302039E14602424F160E3
:1000730034240E600302042E75D500E5D454FC44E9
:1000830002F5D402042EE5D454F34402F5D4020459
:100093002E75D300E5D254FC4402F5D29000DA74F5
:1000A30001F002042E90012CE5DBF0E0640860030C
:1000B300020370900006E09000DFF0900007E0700C
:1000C300099000DFE0D3947F40069000DF747FF057
:1000D30090012CE4F0900000E0FF54606026EFB440
:1000E300210BA3E0B409069000DE7401F090000038
:1000F300E0B42108A3E0B40A0375DD0090012CE409
:10010300F0020376900001E09000E0F0E0B40B0011
:10011300400302036690011FF82828730203440278
:10012300025D0203660202A602036602022A0201BC
:100133004002036602023502025202037690000374
:10014300E024FE601E24E060302421706B9000E9FF
:1001530074FFF0A3740BF0A374F9F090012C7412E4
:10016300F0805B9000E974FFF0A3740CF0A3746E4D
:10017300F090012C7442F08045900004E0FF70166B
:100183009000E974FFF0A3740CF0A3740BF09001DA
:100193002C7441F08028EFB401169000E974FFF04D
:1001A300A3740CF0A3744CF090012C7422F0800E15
:1001B30090012C74FFF0800690012C74FFF09001E5
:1001C3002CE0FFF470030203769000DFE0D39F403E
:1001D3000890012CE09000DFF09000DFE0C394086A
:1001E30040047F0880059000DFE0FF90012CEFF0D2
:1001F300E0FF7E0078007C007D019000E9E0FBA336
:10020300E0FAA3E0F91208AE9000DFE0FF90012CC2
:10021300E0FEC3EF9E9000DFF0EEFF9000EAE48F74
:10022300F01208ED020376900002E09000DFF00286
:1002330003769000D9E0900000F09000DFE0C394D3
:1002430001500302037690012C7401F002037690AF
:100253000002E09000D9F0020376900000E0541F02
:1002630064027036900004E014601D2480600E1454
:10027300701CE5D454BC4402F5D4020376E5D25491
:10028300BC4402F5D202037653D273020376900183
:100293002C74FFF002037602037690012C74FFF0B6
:1002A300020376900000E0541FFD702D900003E0E0
:1002B300FE900002E0FBEEEB64014E7013900C75B0
:1002C3009330E50302037690012C74FFF00203766A
:1002D30090012C74FFF0020376ED6402705B9000D2
:1002E30003E0FE900002E0FDEEED4E704490000549
:1002F300E0FE900004E0FDEEEDFFEE702AEF24FE39
:1003030060112481601714701EE5D454BF4403F5B3
:10031300D48060E5D4547F440CF5D48056E5D254A0
:10032300BF4403F5D2804C90012C74FFF0804480CD
:100333004290012C74FFF0803A90012C74FFF080FE
:1003430032900000E4F0A3F09000DFE0C394024099
:100353000890012C7402F0801A9000DFE090012CC9
:10036300F0801090012C74FFF08008800690012C1F
:1003730074FFF090012CE0FFB4FF099000E074FFDC
:10038300F002042EEFD3940850088FDD75DCC00211
:10039300042E75DD0075DCC002042E9000E0E0241D
:1003A300FB60591470659000DFE0C3940840047F3C
:1003B3000880059000DFE0FF90012CEFF0E0FF7E66
:1003C3000078007C007D019000E9E0FBA3E0FAA344
:1003D300E0F91208AE9000DFE0FF90012CE0FEC3CD
:1003E300EF9E9000DFF0EEFF9000EAE48FF012083A
:1003F300ED90012CE0F5DD63DC40800FE5E35480F4
:10040300FF9000DFE04FF5E375DC0290012CE0B4D0
:10041300FF1975DD0075DC02801190012CE5DBF01E
:100423009000E0E0FF75DD0075DC00C2D930D81222
:1004330075DC0275D21075D41275E300C2DAC2D925
:10044300C2D830DA23C2DAE5DA30E21FE5A220E7C8
:10045300FB75A15575A1AA75A98143870275A1559D
:0B04630075A1AA75A900800375D8FFE1
:0B046E00D0D0D082D083D0F0D0E0329C
:100A9F001208D4FEC3648094E1400CD3EE648094BA
:100AAF00FA5004EE24E0FEC3EE648094C14012D3EA
:100ABF00EE648094DA500AEE24C39000D3F0020B58
:100ACF009CC3EE648094B14012D3EE648094B9500D
:100ADF000AEE24ED9000D3F0020B9CEE120A0E0BDF
:100AEF00340D0B2C200B90210B4A2B0B7B2E0B65FF
:100AFF002F0B73300B3C3A0B245C0B575F0B1660BC
:100B0F000B837E00000B9C9000D17408F09000D3F3
:100B1F007415F080789000D37431F080709000D30A
:100B2F007402F080689000D37428F080609000D138
:100B3F007402F09000D37433F08052E49000D1F03F
:100B4F009000D37457F080459000D17402F090005C
:100B5F00D3742DF080379000D17405F09000D374CA
:100B6F0016F080299000D37427F080219000D37461
:100B7F0037F080199000D17404F09000D304F08006
:100B8F000C9000D17404F09000D37408F07F147EA1
:100B9F00001210729000DAE060FA1210329000DA50
:100BAF00E060FA7F147E00121072E49000D1F09092
:100BBF0000D3F09000DAE060FA1210329000DAE021
:020BCF0060FACA
:010BD1002201
:10100C0090012F7401F0120F9890012FE024ECF551
:10101C0082E43400F583E02FF090012FE004F0E03F
:05102C00C3944040E107
:01103100229C
:100CB0007815E6FF08E690012DCFF0A3EFF0E5C32D
:100CC00030E72490012DE5C5F0A3E5C4F07BFF7A61
:100CD0000B79D290012DE0547FFFA3E0900132CF39
:100CE000F0A3EFF01204E49000D0E060257816E65F
:100CF000249CFF18E634FFFEC390012EE09F900174
:100D00002DE09E500D9000ECE004F012100C12103B
:100D100052229000D0E0703E9000DBE0FBA3E0FAAE
:100D2000A3E0F9120A9F9000DCE475F0011208EDCF
:100D30009000DBE0FBA3E0FAA3E0F91208D4701600
:100D40007BFF7A0B79DD120A9F7FC87E001210723A
:060D50009000D07401F0D8
:010D5600227A
:0B10C000412E3D2020253034780A002E
:040EDA0002150000FD
:100F3C001210A07F057E00121072120D57120003C2
:100F4C00D2AFE4F5D3F5D59000DAF09000DEF07F67
:100F5C00011210CB7F03120EDF9000DEE0B401050E
:100F6C00120CB080F4E5C330E7EF7815A6C508A6DF
:100F7C00C47BFF7A1079C018E6547FFF08E6900115
:0C0F8C0032CFF0A3EFF01204E480CE227C
:0B10CB00EF600443C3102253C3EF2268
:100EDF0053C3F8EF6054EFB401085393FE43C301BB
:100EEF008048EFB402085393FD43C302803CEFB434
:100EFF0003085393EF43C3038030EFB404085393B5
:100F0F00DF43C3048024EFB405085393BF43C305E5
:100F1F008018EFB4060853937F43C306800CEFB4D9
:0D0F2F00070543C30780037FFF227F0022D8
:1010A00075A15575A1AAE5B954F84404F5B9E4F55C
:0210B000A1227B
:0E10B200EF4E600905A1EF1F70011E80F322B2
:10107200AD07AC06ED4C600E7FE87E031210B2EDB8
:071082001D70011C80EE222D
:04003D0043C6102284
:100D5700C29FD29EC29DC2CDC2CC43878090012D37
:100D67001209DD00000082E47B0AFAF9F890012DF0
:100D7700E0FCA3E0FDA3E0FEA3E0FF12093F900122
:100D870031EBF090012DE0FCA3E0FDA3E0FEA3E032
:100D9700FFE47B0AFAF9F812093F90012D1209D1F5
:100DA700900131E0C39405402590012DE0FCA3E0BC
:100DB700FDA3E0FEA3E0FFE4FAF9F8EF2401FFEA60
:100DC7003EFEE93DFDE83CFC90012D1209D1E58985
:100DD700540F4420F58943C9A090012DE0A3E0A357
:0D0DE700E0A3E0F404F58DD28ED299D29CE9
:010DF40022DC
:0810E0003098FDC298AF99227F
:0810E8008F993099FDC2992295
:0A10D600C2C7D2C5D2C475C2F3220E
:0810F00030C0FDC2C0AFC122F7
:0810F8008FC130C1FDD2C122FD
:1010890075A15575A1AAEF600543B101800353B15C
:07109900FEE4F5A1F5FF22C2
:031100008FFF223C
:03000000020DF5F9
:0C0DF500787FE4F6D8FD758121020E3CE9
:1007DE00E709F608DFFA8046E709F208DFFA803EFD
:1007EE0088828C83E709F0A3DFFA8032E309F608EA
:1007FE00DFFA8078E309F208DFFA807088828C8352
:10080E00E309F0A3DFFA806489828A83E0A3F60805
:10081E00DFFA805889828A83E0A3F208DFFA804CDF
:10082E0080D280FA80C680D4806980F280338010B6
:10083E0080A680EA809A80A880DA80E280CA80331F
:10084E0089828A83ECFAE493A3C8C582C8CCC58397
:10085E00CCF0A3C8C582C8CCC583CCDFE9DEE78067
:10086E000D89828A83E493A3F608DFF9ECFAA9F0E6
:10087E00EDFB2289828A83ECFAE0A3C8C582C8CC3C
:10088E00C583CCF0A3C8C582C8CCC583CCDFEADE55
:10089E00E880DB89828A83E493A3F208DFF980CCB7
:1008AE0088F0EF60010E4E60C388F0ED2402B404B0
:1008BE000050B9F582EB2402B4040050AF23234557
:0608CE00822390082E7346
:1008D400BB010689828A83E0225002E722BBFE0222
:0908E400E32289828A83E4932255
:1008ED00C5F0F8A3E028F0C5F0F8E5821582700296
:0608FD001583E038F02233
:1009030075F008758200EF2FFFEE33FECD33CDCCAB
:1009130033CCC58233C5829BED9AEC99E58298402E
:100923000CF582EE9BFEED9AFDEC99FC0FD5F0D60B
:10093300E4CEFBE4CDFAE4CCF9A88222B800C1B935
:100943000059BA002DEC8BF084CFCECDFCE5F0CB73
:10095300F97818EF2FFFEE33FEED33FDEC33FCEBAC
:1009630033FB10D703994004EB99FB0FD8E5E4F967
:10097300FA227818EF2FFFEE33FEED33FDEC33FC54
:10098300C933C910D7059BE99A4007EC9BFCE99A48
:10099300F90FD8E0E4C9FAE4CCFB2275F010EF2F8D
:1009A300FFEE33FEED33FDCC33CCC833C810D7078D
:1009B3009BEC9AE899400AED9BFDEC9AFCE899F8C8
:0E09C3000FD5F0DAE4CDFBE4CCFAE4C8F9225B
:0C09D100ECF0A3EDF0A3EEF0A3EFF02299
:1009DD00A8828583F0D083D0821209F41209F41213
:1009ED0009F41209F4E473E493A3C583C5F0C58338
:1009FD00C8C582C8F0A3C583C5F0C583C8C582C864
:010A0D0022C6
:100A0E00D083D082F8E4937012740193700DA3A377
:100A1E0093F8740193F5828883E47374029368608B
:060A2E00EFA3A3A380DF8B
:10047900E5102432F582E43401F583E00510229079
:10048900012F300703900132E475F001120A7F024F
:1004990008D42000E97F2ED2008018EF540F249051
:1004A900D43440D4FF30040BEF24BFB41A005003F6
:1004B9002461FFE511600215110514E514700205A8
:1004C9001330070E90012FE475F001120A7FEF0235
:1004D9000A61020FE57403D2078003E4C207F5102D
:1004E90090012F120A96E4F511F513F514E5116040
:1004F900077F201204BC80F57512FFC201C200C239
:1005090002C203C205C206C208120488FF700D3078
:1005190007057F001204CDAF14AE1322B4255FC2C4
:10052900D5C204120488FF24D0B40A00501A75F009
:100539000A781130D50508B6FF0106C6A426F620AB
:10054900D5047002D20380D924CFB41A00EF500425
:10055900C2E5D2040206CED20180C6D20080C0D242
:100569000280BCD2D580BAD20580B47F201204BCE7
:100579002002077401B5110040F1120479FF120439
:10058900BC0204F6D208D2068095120479FB120443
:1005990079FA120479F94A4B7006799F7A077BFF39
:1005A90020022EE511602A7E008E82758300120AD0
:1005B9003460060EEE651270F0C2D5EBC0E0EAC0F9
:1005C900E0E9C0E0EE120715D0E0F9D0E0FAD0E09A
:1005D900FB1208D4FF60AAEBC0E0EAC0E0E9C0E082
:1005E9001204BCD0E02401F9D0E03400FAD0E0FBD9
:1005F900E5120460DCD512D980877BFF7A0779116F
:10060900D202809C791080027908C206C20880084B
:10061900D2D5790A8004790AC2D5E512047002F5A7
:1006290012E4FAFDFEFF120479FC7B082001131283
:100639000479FD7B1030000A120479FE120479FF57
:100649007B20EC3382D592D55013C3E43000069F4A
:10065900FFE49EFEE42001039DFDE49CFCE4CBF84D
:10066900C201EC700CCFCECDCCE824F8F870F38041
:1006790017C3EF33FFEE33FEED33FDEC33FCEB3301
:10068900FB994002FB0FD8E9EB300105F8D0E0C433
:1006990048B201C0E00AEC4D4E4F78207B0070C291
:1006A900EAB5120040BCC0E0120717D0F0D0E02034
:1006B9000104C4C0E0C4B201C0F01204A5D0F0D551
:1006C900F0EB0204F6120A0E059353060D58056461
:1006D9004C05604206114F0619440619490579432C
:0806E900061F55060346060337
:1006F1004506034707BF5005682D056C2E058F2B56
:10070100057023058D2007A82A05284800000587C4
:100711003F3F3F00790AA2D5200314300509B910E3
:10072100020404B9080104A2D520060250010420E4
:1007310002689202B511005034C0E07F20300319E5
:100741007F30A20272067205500F12076EC202C2FA
:1007510006C205C2087F30800F300503E9C0E012F0
:1007610004BC300503D0E0F9D0E0B511CC30051759
:100771007F30B9100C1204BC7F583004077F788099
:1007810003B908031204BC3002057F2D0204BC7FAB
:10079100202008F87F2B2006F322920280CF286EBA
:1007A100756C6C2900D2011204793001F8C201780C
:1007B1001130D50108F60205282D5043495812047D
:1007C100792403B405004001E49007BA931204AD03
:0D07D100743A1204ADD20375110402060D36
:100F980090004A120A737810EC4D4E4F70047CA5ED
:100FA8007DA5C3EC13FCED13FDEE13FEEF13FF500C
:100FB80010EC64CCFCED644CFDEE644EFEEF64CEA8
:100FC800FFD8DF90004A1209D1EE547FFE2290002C
:0D0FD8004AEEF0EFA3F0A374A5F0A3F02201
:100E0100020F3CE493A3F8E493A34003F68001F2BC
:100E110008DFF48029E493A3F85407240CC8C333F2
:100E2100C4540F4420C8834004F456800146F6DFC1
:100E3100E4800B0102040810204080900E81E47EC2
:100E4100019360BCA3FF543F30E509541FFEE493B6
:100E5100A360010ECF54C025E060A840B8E493A37D
:100E6100FAE493A3F8E493A3C8C582C8CAC583CAA8
:100E7100F0A3C8C582C8CAC583CADFE9DEE780BE60
:010EDE000013
:100A3400BB010CE58229F582E5833AF583E0225077
:100A440006E92582F8E622BBFE06E92582F8E222C1
:0D0A5400E58229F582E5833AF583E49322DB
:100A6100BB010689828A83F0225002F722BBFE0174
:020A7100F3226E
:0C0A7300E0FCA3E0FDA3E0FEA3E0FF22F6
:100A7F00F8E0FBA3A3E0F925F0F0E5821582700200
:070A8F001583E0FA38F022A4
:090A9600EBF0A3EAF0A3E9F02261
:100FE500EFB40A07740D120FF0740A309811A8991E
:100FF500B8130CC2983098FDA899C298B811F6306C
:0710050099FDC299F5992243
:00000001FF
