:1006D30075A15575A1AAE5B954F84404F5B9E4F533
:0206E300A12252
:0E06E500EF4E600905A1EF1F70F61E80F32294
:1006A500AD07AC06ED4C600E7FE87E031206E5ED66
:0706B5001D70F11C80EE2214
:04075F0043C610225B
:10051100C29FD29EC29DC2CDC2CC438780900001B2
:1005210012044200000082E47B0AFAF9F89000010B
:10053100E0FCA3E0FDA3E0FEA3E0FF1203A4900012
:1005410005EBF0900001E0FCA3E0FDA3E0FEA3E0D9
:10055100FFE47B0AFAF9F81203A4900001120436B1
:10056100900005E0C39405401F900001E0FCA3E06A
:10057100FDA3E0FEA3E02401FFE43EFEE43DFDE433
:100581003CFC900001120436E589540F4420F589A2
:1005910043C9A0900001A3A3A3E0F404F58DD28E7A
:0405A100D299D29C7D
:0105A5002233
:080729003098FDC298AF99223F
:080731008F993099FDC2992255
:0A070C00C2C7D2C5D2C475C2F322E1
:0807390030C0FDC2C0AFC122B7
:080741008FC130C1FDD2C122BD
:1006BC0075A15575A1AAEF600543B101800353B133
:0706CC00FEE4F5A1F5FF2299
:030763008FFF22E3
:10068900E4F5FCEF700575FA608007EFB4030375B4
:0C069900FA6853920F4393B05393BF22B2
:0A07160043FC5043FA0175F8FF227E
:060759008FF930FBFD22C8
:0907200075F9FF30FBFDAFF92271
:0D06F30075FC8075FA8153920F53930F220E
:080749008FF930FCFDC2FC2217
:0807510030FCFDC2FCAFF922EF
:100636007374617274202E2E2E0A004572723A204F
:100646002530325820202530325820200A00737574
:0C065600636365737320253032780A005E
:1005A600E4900000F01206D37F057E001206A51225
:1005B60005117BFF7A06793612006E7F03120689D3
:1005C60075FB02C2947F061207597F027E0012064F
:1005D600E5900000E0FF1207597F027E001206E553
:1005E600120720D294900000E0FEF46F60197BFFA2
:1005F6007A067941EEFD900004E4F0A3EDF0A3E461
:10060600F0A3EFF012006E7F327E001206A5900076
:1006160000E004F0E0FF75F02884E5F070A57BFFAC
:100626007A067954900004F0A3EFF012006E8093DE
:03000000020700F4
:0C070000787FE4F6D8FD7581210205A683
:1003680075F008758200EF2FFFEE33FECD33CDCC4C
:1003780033CCC58233C5829BED9AEC99E5829840CF
:100388000CF582EE9BFEED9AFDEC99FC0FD5F0D6AC
:10039800E4CEFBE4CDFAE4CCF9A88222B800C1B9D6
:1003A8000059BA002DEC8BF084CFCECDFCE5F0CB14
:1003B800F97818EF2FFFEE33FEED33FDEC33FCEB4D
:1003C80033FB10D703994004EB99FB0FD8E5E4F908
:1003D800FA227818EF2FFFEE33FEED33FDEC33FCF5
:1003E800C933C910D7059BE99A4007EC9BFCE99AE9
:1003F800F90FD8E0E4C9FAE4CCFB2275F010EF2F2E
:10040800FFEE33FEED33FDCC33CCC833C810D7072D
:100418009BEC9AE899400AED9BFDEC9AFCE899F868
:0E0428000FD5F0DAE4CDFBE4CCFAE4C8F922FB
:0C043600ECF0A3EDF0A3EEF0A3EFF02239
:10044200A8828583F0D083D08212045912045912F3
:100452000459120459E473E493A3C583C5F0C58318
:10046200C8C582C8F0A3C583C5F0C583C8C582C804
:010472002267
:10000300E5082404F582E43400F583E00508229032
:100013000001300703900004E475F0011204CB02E1
:1000230004732000E97F2ED2008018EF540F249030
:10003300D43440D4FF30040BEF24BFB41A00500370
:100043002461FFE50960021509050CE50C70020542
:100053000B30070E900001E475F0011204CBEF02A0
:1000630004B90206627403D2078003E4C207F508E9
:100073009000011204E2E4F509F50BF50CE50960C3
:10008300077F2012004680F5750AFFC201C200C235
:1000930002C203C205C206C208120012FF700D306D
:1000A30007057F00120057AF0CAE0B22B4255FC2C9
:1000B300D5C204120012FF24D0B40A00501A75F0FE
:1000C3000A780930D50508B6FF0106C6A426F6202E
:1000D300D5047002D20380D924CFB41A00EF5004A0
:1000E300C2E5D204020258D20180C6D20080C0D237
:1000F3000280BCD2D580BAD20580B47F20120046DC
:100103002002077401B5090040F1120003FF120039
:1001130046020080D208D2068095120003FB12002B
:1001230003FA120003F94A4B700679297A037BFF1D
:1001330020022EE509602A7E008E82758300120458
:100143008C60060EEE650A70F0C2D5EBC0E0EAC023
:10015300E0E9C0E0EE12029FD0E0F9D0E0FAD0E08F
:10016300FB120473FF60AAEBC0E0EAC0E0E9C0E061
:10017300120046D0E02401F9D0E03400FAD0E0FBCD
:10018300E50A0460DCD50AD980877BFF7A02799B74
:10019300D202809C791080027908C206C2088008C6
:1001A300D2D5790A8004790AC2D5E50A047002F52A
:1001B3000AE4FAFDFEFF120003FC7B082001131280
:1001C3000003FD7B1030000A120003FE120003FF40
:1001D3007B20EC3382D592D55013C3E43000069FC5
:1001E300FFE49EFEE42001039DFDE49CFCE4CBF8C8
:1001F300C201EC700CCFCECDCCE824F8F870F380BC
:1002030017C3EF33FFEE33FEED33FDEC33FCEB337B
:10021300FB994002FB0FD8E9EB300105F8D0E0C4AD
:1002230048B201C0E00AEC4D4E4F78207B0070C20B
:10023300EAB50A0040BCC0E01202A1D0F0D0E02031
:100243000104C4C0E0C4B201C0F012002FD0F0D545
:10025300F0EB0200801204EB011D5301975800EEEE
:100263004C00EA42019B4F01A34401A3490103430C
:0802730001A955018D46018D22
:10027B0045018D4703495000F22D00F62E01192B35
:10028B0000FA2301172003322A00B24800000111A3
:10029B003F3F3F00790AA2D5200314300509B9105E
:1002AB00020404B9080104A2D5200602500104205F
:1002BB0002689202B509005034C0E07F2030031968
:1002CB007F30A20272067205500F1202F8C202C2F0
:1002DB0006C205C2087F30800F300503E9C0E0126B
:1002EB000046300503D0E0F9D0E0B509CC30051756
:1002FB007F30B9100C1200467F583004077F78808E
:10030B0003B908031200463002057F2D0200467F19
:10031B00202008F87F2B2006F322920280CF286E34
:10032B00756C6C2900D2011200033001F8C2017800
:10033B000930D50108F60200B22D5043495812007E
:10034B00032403B405004001E490034493120037E7
:0D035B00743A120037D203750904020197AD
:10047300BB010689828A83E0225002E722BBFE0287
:09048300E32289828A83E49322BA
:10048C00BB010CE58229F582E5833AF583E0225025
:10049C0006E92582F8E622BBFE06E92582F8E2226F
:0D04AC00E58229F582E5833AF583E4932289
:1004B900BB010689828A83F0225002F722BBFE0122
:0204C900F3221C
:1004CB00F8E0FBA3A3E0F925F0F0E58215827002BA
:0704DB001583E0FA38F0225E
:0904E200EBF0A3EAF0A3E9F0221B
:1004EB00D083D082F8E4937012740193700DA3A3A0
:1004FB0093F8740193F5828883E4737402936860B4
:06050B00EFA3A3A380DFB3
:10066200EFB40A07740D12066D740A309811A89936
:10067200B8130CC2983098FDA899C298B811F630F8
:0706820099FDC299F59922D0
:00000001FF
