:1006870012011001FF000208861A23550403000017
:1006970000010902270001010080F009040000039E
:1006A700FF01020007058202200000070502022061
:1006B7000000070581030800013000C300FFEC9F1D
:1006C700ECFFECDFECDFECDFEC9FEC9FEC9FEC9FAB
:0306D700ECFFEC49
:080791004101240041012D008B
:1007660075A15575A1AA43B34053B37F75A1FF2266
:0E077600EF4E600905A1EF1F70F61E80F32202
:10073E00AD07AC06ED4C600E7FE87E03120776ED3A
:07074E001D70F11C80EE227A
:0D07840043C60143C40843C50C43CE1022F8
:1004F300C29FD29EC29DC2CDC2CC43878090008C46
:100503001204C200000082E47B0AFAF9F890008C1E
:10051300E0FCA3E0FDA3E0FEA3E0FF1204249000AF
:1005230090EBF090008CE0FCA3E0FDA3E0FEA3E0E1
:10053300FFE47B0AFAF9F812042490008C1204B643
:10054300900090E0C39405401F90008CE0FCA3E072
:10055300FDA3E0FEA3E02401FFE43EFEE43DFDE451
:100563003CFC90008C1204B6E589540F4420F589B5
:1005730043C9A090008CA3A3A3E0F404F58DD28E0D
:04058300D299D29C9B
:010587002251
:08079A003098FDC298AF9922CE
:0807A2008F993099FDD29922D4
:10072300E4F5E253E27F43E229F5E353E4BF53E206
:0B073300BF53E4FB43E43043E4012229
:1007550043E10443E10243E10143D81FD2EAD2AFAA
:010765002271
:1006DA0090244C7400F0A37408F0902447E044047A
:1006EA00F0E04408F0E054FEF075D41290244A7405
:1006FA0000F0A374A0F0902446E04440F0E054EFE8
:10070A00F075D2129024487400F0A37400F090247B
:09071A0046E054F3F075DC022204
:10061400900089EBF0A3EAF0A3E9F0900131E064E3
:1006240001705F90012DE0D39420402D78487C0028
:100634007D01900089E0FBA3E0FAA3E0F97E007F4E
:10064400201203AC75D52053D4FCE5D4540360FACE
:1006540090012DE024E0F080CA90012DE0FF7E009F
:1006640078487C007D01900089E0FBA3E0FAA3E0D8
:10067400F91203AC90012DE0F5D553D4FCE49001BC
:0306840031F02230
:10000300AFD17E0078E27C007D017B017A00790824
:100013001203ACE5D454F34408F5D49001317401D0
:02002300F022C9
:0300430002004672
:0D004600C0E0C0F0C083C082C0D075D008FB
:1000530020D90302029CE5D9543F700302028E2487
:10006300E0700302021D24FE602024F2602D242E82
:10007300600302029A90012DE5D1F01200037B0187
:100083007A0079E212061402029A75D50053D4F36A
:10009300E5D454FC4402F5D402029A900088E5D1D9
:1000A300F0E0640860030201F1900000E0FF9001BA
:1000B30022F0900006E09000E1F0900088E4F090D8
:1000C3000001E0900123F0EF64C07033A3E0FF90E0
:1000D30006C093900000F0EF9006C193900001F0EA
:1000E3009000887402F0900124E0C394185007E054
:1000F3002402F00201F79001247418F00201F79032
:100103000122E0B440099000887409F00201F790DD
:100113000123E024FB70030201C424FD70030201E8
:10012300CE1470030201E7240360030201F190007F
:1001330003E024FE601904702C90012E74FFF0A3D9
:100143007406F0A37487F09000887412F0801C90FA
:10015300012E74FFF0A37406F0A37499F090008845
:100163007427F0800690008874FFF0900088E0FF09
:100173009000E1E0D39F4002EFF09000E1E0FFC385
:10018300940840047F088000900088EFF07E007898
:10019300007C007D0190012EE0FBA3E0FAA3E0F9CF
:1001A3001203AC9000E1E0FF900088E0FEC3EF9EF5
:1001B3009000E1F0EEFF90012FE48FF01203D28064
:1001C30033900002E09000E1F080299000E0E0909D
:1001D3000000F09000E1E0C394014018900088749F
:1001E30001F08010900002E09000E0F080069000A3
:1001F3008874FFF0900088E0FFB4FF0C9001237433
:10020300FFF075DCCF02029AEFD3940850048FDD20
:10021300800375DD0075DCC0807D900123E024FB45
:10022300605314705E9000E1E0FFC3940840047FC4
:10023300088000900088EFF07E0078007C007D014C
:1002430090012EE0FBA3E0FAA3E0F91203AC9000C7
:10025300E1E0FF900088E0FEC3EF9E9000E1F0EE46
:10026300FF90012FE48FF01203D2900088E0F5DDB8
:1002730063DC408022E5E35480FF9000E1E04FF52A
:10028300E3800375DD0075DC02800C900088E5D106
:10029300F075DD0075DC00C2D930D80975E300C202
:1002A300DAC2D9C2D830DA23C2DAE5DA30E21FE59E
:1002B300A220E7FB75A15575A1AA75EB81438702BF
:0E02C30075A15575A1AA75EB00800375D800D2
:0B02D100D0D0D082D083D0F0D0E0323B
:100025007F1E7E0012073E1204F31207231206DA22
:0C003500120755E4F5DDF5D3F5D580FE8B
:030000000205886E
:0C058800787FE4F6D8FD75810F0205CFE6
:1002DC00E709F608DFFA8046E709F208DFFA803E04
:1002EC0088828C83E709F0A3DFFA8032E309F608F1
:1002FC00DFFA8078E309F208DFFA807088828C8359
:10030C00E309F0A3DFFA806489828A83E0A3F6080C
:10031C00DFFA805889828A83E0A3F208DFFA804CE6
:10032C0080D280FA80C680D4806980F280338010BD
:10033C0080A680EA809A80A880DA80E280CA803326
:10034C0089828A83ECFAE493A3C8C582C8CCC5839E
:10035C00CCF0A3C8C582C8CCC583CCDFE9DEE7806E
:10036C000D89828A83E493A3F608DFF9ECFAA9F0ED
:10037C00EDFB2289828A83ECFAE0A3C8C582C8CC43
:10038C00C583CCF0A3C8C582C8CCC583CCDFEADE5C
:10039C00E880DB89828A83E493A3F208DFF980CCBE
:1003AC0088F0EF60010E4E60C388F0ED2402B404B7
:1003BC000050B9F582EB2402B4040050AF2323455E
:0603CC00822390032C7354
:1003D200C5F0F8A3E028F0C5F0F8E58215827002B6
:0603E2001583E038F02253
:1003E80075F008758200EF2FFFEE33FECD33CDCCCC
:1003F80033CCC58233C5829BED9AEC99E58298404F
:100408000CF582EE9BFEED9AFDEC99FC0FD5F0D62B
:10041800E4CEFBE4CDFAE4CCF9A88222B800C1B955
:100428000059BA002DEC8BF084CFCECDFCE5F0CB93
:10043800F97818EF2FFFEE33FEED33FDEC33FCEBCC
:1004480033FB10D703994004EB99FB0FD8E5E4F987
:10045800FA227818EF2FFFEE33FEED33FDEC33FC74
:10046800C933C910D7059BE99A4007EC9BFCE99A68
:10047800F90FD8E0E4C9FAE4CCFB2275F010EF2FAD
:10048800FFEE33FEED33FDCC33CCC833C810D707AD
:100498009BEC9AE899400AED9BFDEC9AFCE899F8E8
:0E04A8000FD5F0DAE4CDFBE4CCFAE4C8F9227B
:0C04B600ECF0A3EDF0A3EEF0A3EFF022B9
:1004C200A8828583F0D083D0821204D91204D91273
:1004D20004D91204D9E473E493A3C583C5F0C58398
:1004E200C8C582C8F0A3C583C5F0C583C8C582C884
:0104F20022E7
:10059400020025E493A3F8E493A34003F68001F258
:1005A40008DFF48029E493A3F85407240CC8C33368
:1005B400C4540F4420C8834004F456800146F6DF37
:1005C400E4800B0102040810204080900791E47E2F
:1005D400019360BCA3FF543F30E509541FFEE4932C
:1005E400A360010ECF54C025E060A840B8E493A3F3
:1005F400FAE493A3F8E493A3C8C582C8CAC583CA1E
:10060400F0A3C8C582C8CAC583CADFE9DEE780BED5
:01079900005F
:00000001FF
