:10065D0075A15575A1AAE5B954F84404F5B9E4F5A9
:02066D00A122C8
:0E066F00EF4E600905A1EF1F70F61E80F3220A
:10004100AD07AC06ED4C600E7FE87E0312066FED46
:070051001D70F11C80EE227E
:0406C30043C61022F8
:10056C00C29FD29EC29DC2CDC2CC43878090000058
:10057C0012049D00000082E47B0AFAF9F890000056
:10058C00E0FCA3E0FDA3E0FEA3E0FF1203FF90005C
:10059C0004EBF0900000E0FCA3E0FDA3E0FEA3E080
:1005AC00FFE47B0AFAF9F81203FF900000120491A1
:1005BC00900004E0C39405401F900000E0FCA3E011
:1005CC00FDA3E0FEA3E02401FFE43EFEE43DFDE4D8
:1005DC003CFC900000120491E589540F4420F589ED
:1005EC0043C9A0900000A3A3A3E0F404F58DD28E20
:0405FC00D299D29C22
:0106000022D7
:08069D003098FDC298AF9922CC
:0806A5008F993099FDC29922E2
:0A068900C2C7D2C5D2C475C2F32265
:0806AD0030C0FDC2C0AFC12244
:0806B5008FC130C1FDD2C1224A
:1006460075A15575A1AAEF600543B101800353B1A9
:07065600FEE4F5A1F5FF220F
:030058008FFF22F5
:100628007374617274202E2E2E0A0050574D5F434A
:0E06380059435F454E442020253032580A00B9
:1000030012065D7F057E0012004112056C7BFF7AAC
:100013000679281200C95392CF439330759E044347
:100023009D02539DFD439D04439D08539DDF439DC6
:0E003300401206BDD2AF759C10759B4080FE3A
:0606BD00439D90D2ED22E6
:03005B0002069307
:0A069300439D10759C10759B4032CA
:0300000002067D78
:0C067D00787FE4F6D8FD758121020003AF
:1003C30075F008758200EF2FFFEE33FECD33CDCCF1
:1003D30033CCC58233C5829BED9AEC99E582984074
:1003E3000CF582EE9BFEED9AFDEC99FC0FD5F0D651
:1003F300E4CEFBE4CDFAE4CCF9A88222B800C1B97B
:100403000059BA002DEC8BF084CFCECDFCE5F0CBB8
:10041300F97818EF2FFFEE33FEED33FDEC33FCEBF1
:1004230033FB10D703994004EB99FB0FD8E5E4F9AC
:10043300FA227818EF2FFFEE33FEED33FDEC33FC99
:10044300C933C910D7059BE99A4007EC9BFCE99A8D
:10045300F90FD8E0E4C9FAE4CCFB2275F010EF2FD2
:10046300FFEE33FEED33FDCC33CCC833C810D707D2
:100473009BEC9AE899400AED9BFDEC9AFCE899F80D
:0E0483000FD5F0DAE4CDFBE4CCFAE4C8F922A0
:0C049100ECF0A3EDF0A3EEF0A3EFF022DE
:10049D00A8828583F0D083D0821204B41204B412E2
:1004AD0004B41204B4E473E493A3C583C5F0C58307
:1004BD00C8C582C8F0A3C583C5F0C583C8C582C8A9
:0104CD00220C
:10005E00E5082403F582E43400F583E005082290D8
:10006E000000300703900003E475F001120526022C
:10007E0004CE2000E97F2ED2008018EF540F24907A
:10008E00D43440D4FF30040BEF24BFB41A00500315
:10009E002461FFE50960021509050CE50C700205E7
:1000AE000B30070E900000E475F001120526EF02EA
:1000BE0005140206017403D2078003E4C207F50893
:1000CE0090000012053DE4F509F50BF50CE509600D
:1000DE00077F201200A180F5750AFFC201C200C27F
:1000EE0002C203C205C206C20812006DFF700D30B7
:1000FE0007057F001200B2AF0CAE0B22B4255FC213
:10010E00D5C20412006DFF24D0B40A00501A75F047
:10011E000A780930D50508B6FF0106C6A426F620D2
:10012E00D5047002D20380D924CFB41A00EF500444
:10013E00C2E5D2040202B3D20180C6D20080C0D280
:10014E000280BCD2D580BAD20580B47F201200A125
:10015E002002077401B5090040F112005EFF120083
:10016E00A10200DBD208D206809512005EFB1200BF
:10017E005EFA12005EF94A4B700679847A037BFFB1
:10018E0020022EE509602A7E008E827583001204FD
:10019E00E760060EEE650A70F0C2D5EBC0E0EAC06D
:1001AE00E0E9C0E0EE1202FAD0E0F9D0E0FAD0E0D9
:1001BE00FB1204CEFF60AAEBC0E0EAC0E0E9C0E0AB
:1001CE001200A1D0E02401F9D0E03400FAD0E0FB17
:1001DE00E50A0460DCD50AD980877BFF7A0279F6BE
:1001EE00D202809C791080027908C206C20880086B
:1001FE00D2D5790A8004790AC2D5E50A047002F5CF
:10020E000AE4FAFDFEFF12005EFC7B0820011312C9
:10021E00005EFD7B1030000A12005EFE12005EFFD3
:10022E007B20EC3382D592D55013C3E43000069F69
:10023E00FFE49EFEE42001039DFDE49CFCE4CBF86C
:10024E00C201EC700CCFCECDCCE824F8F870F38060
:10025E0017C3EF33FFEE33FEED33FDEC33FCEB3320
:10026E00FB994002FB0FD8E9EB300105F8D0E0C452
:10027E0048B201C0E00AEC4D4E4F78207B0070C2B0
:10028E00EAB50A0040BCC0E01202FCD0F0D0E0207B
:10029E000104C4C0E0C4B201C0F012008AD0F0D58F
:1002AE00F0EB0200DB12054601785301F2580149CA
:1002BE004C01454201F64F01FE4401FE49015E43E9
:0802CE0002045501E84601E8B5
:1002D6004501E84703A450014D2D01512E01742B11
:1002E600015523017220038D2A010D480000016C7F
:1002F6003F3F3F00790AA2D5200314300509B91003
:10030600020404B9080104A2D52006025001042003
:1003160002689202B509005034C0E07F203003190C
:100326007F30A20272067205500F120353C202C238
:1003360006C205C2087F30800F300503E9C0E0120F
:1003460000A1300503D0E0F9D0E0B509CC3005179F
:100356007F30B9100C1200A17F583004077F7880D7
:1003660003B908031200A13002057F2D0200A17F08
:10037600202008F87F2B2006F322920280CF286ED9
:10038600756C6C2900D20112005E3001F8C201784A
:100396000930D50108F602010D2D504349581200C7
:1003A6005E2403B405004001E490039F931200927B
:0D03B600743A120092D2037509040201F29C
:1004CE00BB010689828A83E0225002E722BBFE022C
:0904DE00E32289828A83E493225F
:1004E700BB010CE58229F582E5833AF583E02250CA
:1004F70006E92582F8E622BBFE06E92582F8E22214
:0D050700E58229F582E5833AF583E493222D
:10051400BB010689828A83F0225002F722BBFE01C6
:02052400F322C0
:10052600F8E0FBA3A3E0F925F0F0E582158270025E
:070536001583E0FA38F02202
:09053D00EBF0A3EAF0A3E9F022BF
:10054600D083D082F8E4937012740193700DA3A344
:1005560093F8740193F5828883E473740293686058
:06056600EFA3A3A380DF58
:10060100EFB40A07740D12060C740A309811A899F8
:10061100B8130CC2983098FDA899C298B811F63059
:0706210099FDC299F5992231
:00000001FF
