:0D072900EF44FE529A439A08C285D2EB229B
:10000300EF7009C281C2805393FD802AEFB40109C6
:10001300C281D2805393EF801DEFB40209D281C213
:10002300805393DF8010EFB40309D281D2805397BA
:09003300FB80037FFF227F002205
:10065F00439A04ED64017016EF70028019EFB40233
:10066F00028027EFB40304D28180157FFF22ED644F
:10067F00037022EF7004C2818012EFB40108C281AF
:10068F00D280C2838012EFB40208D281C280C283AB
:0F069F0080067FFF227FFF22C286D2EB7F0022E0
:03004B0002074267
:0B074200308502C285308602C286327C
:100703007374617274202E2E2E0A0041494E2530D7
:040713003278200018
:1005F100E4900002F0A3F01207177F147E001206A8
:10060100D512055C7BFF7A0779031200B9E4FF126A
:100611000729D2AFE4900000F0A3F0900000E0FEC3
:10062100A3E0FFC39404EE940050E97BFF7A0779BD
:100631000E900007EEF0A3EFF01200B9900000A3B6
:10064100E0FF120003D2847F1E7E0012003C900066
:0E06510001E004F070C5900000E004F080BDF0
:1007170075A15575A1AAE5B954F84404F5B9E4F5EE
:02072700A1220D
:0E003C00EF4E600905A1EF1F70F61E80F32243
:1006D500AD07AC06ED4C600E7FE87E0312003CEDE5
:0706E5001D70F11C80EE22E4
:0407770043C6102243
:10055C00C29FD29EC29DC2CDC2CC43878090000464
:10056C0012048D00000082E47B0AFAF9F890000472
:10057C00E0FCA3E0FDA3E0FEA3E0FF1203EF90007C
:10058C0008EBF0900004E0FCA3E0FDA3E0FEA3E088
:10059C00FFE47B0AFAF9F81203EF900004120481CD
:1005AC00900008E0C39405401F900004E0FCA3E019
:1005BC00FDA3E0FEA3E02401FFE43EFEE43DFDE4E8
:1005CC003CFC900004120481E589540F4420F58909
:1005DC0043C9A0900004A3A3A3E0F404F58DD28E2C
:0405EC00D299D29C32
:0105F00022E8
:080757003098FDC298AF992211
:08075F008F993099FDC2992227
:0A074D00C2C7D2C5D2C475C2F322A0
:0807670030C0FDC2C0AFC12289
:08076F008FC130C1FDD2C1228F
:1006EC0075A15575A1AAEF600543B101800353B103
:0706FC00FEE4F5A1F5FF2269
:03077B008FFF22CB
:03000000020736BE
:0C073600787FE4F6D8FD7581210205F102
:1003B30075F008758200EF2FFFEE33FECD33CDCC01
:1003C30033CCC58233C5829BED9AEC99E582984084
:1003D3000CF582EE9BFEED9AFDEC99FC0FD5F0D661
:1003E300E4CEFBE4CDFAE4CCF9A88222B800C1B98B
:1003F3000059BA002DEC8BF084CFCECDFCE5F0CBC9
:10040300F97818EF2FFFEE33FEED33FDEC33FCEB01
:1004130033FB10D703994004EB99FB0FD8E5E4F9BC
:10042300FA227818EF2FFFEE33FEED33FDEC33FCA9
:10043300C933C910D7059BE99A4007EC9BFCE99A9D
:10044300F90FD8E0E4C9FAE4CCFB2275F010EF2FE2
:10045300FFEE33FEED33FDCC33CCC833C810D707E2
:100463009BEC9AE899400AED9BFDEC9AFCE899F81D
:0E0473000FD5F0DAE4CDFBE4CCFAE4C8F922B0
:0C048100ECF0A3EDF0A3EEF0A3EFF022EE
:10048D00A8828583F0D083D0821204A41204A41212
:10049D0004A41204A4E473E493A3C583C5F0C58337
:1004AD00C8C582C8F0A3C583C5F0C583C8C582C8B9
:0104BD00221C
:10004E00E5082407F582E43400F583E005082290E4
:10005E000004300703900007E475F0011205160244
:10006E0004BE2000E97F2ED2008018EF540F24909A
:10007E00D43440D4FF30040BEF24BFB41A00500325
:10008E002461FFE50960021509050CE50C700205F7
:10009E000B30070E900004E475F001120516EF0206
:1000AE0005040206AE7403D2078003E4C207F50806
:1000BE0090000412052DE4F509F50BF50CE5096029
:1000CE00077F2012009180F5750AFFC201C200C29F
:1000DE0002C203C205C206C20812005DFF700D30D7
:1000EE0007057F001200A2AF0CAE0B22B4255FC233
:1000FE00D5C20412005DFF24D0B40A00501A75F068
:10010E000A780930D50508B6FF0106C6A426F620E2
:10011E00D5047002D20380D924CFB41A00EF500454
:10012E00C2E5D2040202A3D20180C6D20080C0D2A0
:10013E000280BCD2D580BAD20580B47F2012009145
:10014E002002077401B5090040F112004EFF1200A3
:10015E00910200CBD208D206809512004EFB1200FF
:10016E004EFA12004EF94A4B700679747A037BFFF1
:10017E0020022EE509602A7E008E8275830012040D
:10018E00D760060EEE650A70F0C2D5EBC0E0EAC08D
:10019E00E0E9C0E0EE1202EAD0E0F9D0E0FAD0E0F9
:1001AE00FB1204BEFF60AAEBC0E0EAC0E0E9C0E0CB
:1001BE00120091D0E02401F9D0E03400FAD0E0FB37
:1001CE00E50A0460DCD50AD980877BFF7A0279E6DE
:1001DE00D202809C791080027908C206C20880087B
:1001EE00D2D5790A8004790AC2D5E50A047002F5DF
:1001FE000AE4FAFDFEFF12004EFC7B0820011312EA
:10020E00004EFD7B1030000A12004EFE12004EFF13
:10021E007B20EC3382D592D55013C3E43000069F79
:10022E00FFE49EFEE42001039DFDE49CFCE4CBF87C
:10023E00C201EC700CCFCECDCCE824F8F870F38070
:10024E0017C3EF33FFEE33FEED33FDEC33FCEB3330
:10025E00FB994002FB0FD8E9EB300105F8D0E0C462
:10026E0048B201C0E00AEC4D4E4F78207B0070C2C0
:10027E00EAB50A0040BCC0E01202ECD0F0D0E0209B
:10028E000104C4C0E0C4B201C0F012007AD0F0D5AF
:10029E00F0EB0200CB12053601685301E25801392A
:1002AE004C01354201E64F01EE4401EE49014E4349
:0802BE0001F45501D84601D8F6
:1002C6004501D847039450013D2D01412E01642B71
:1002D600014523016220037D2A00FD480000015CE0
:1002E6003F3F3F00790AA2D5200314300509B91013
:1002F600020404B9080104A2D52006025001042014
:1003060002689202B509005034C0E07F203003191C
:100316007F30A20272067205500F120343C202C258
:1003260006C205C2087F30800F300503E9C0E0121F
:100336000091300503D0E0F9D0E0B509CC300517BF
:100346007F30B9100C1200917F583004077F7880F7
:1003560003B908031200913002057F2D0200917F38
:10036600202008F87F2B2006F322920280CF286EE9
:10037600756C6C2900D20112004E3001F8C201786A
:100386000930D50108F60200FD2D504349581200E8
:100396004E2403B405004001E490038F93120082BB
:0D03A600743A120082D2037509040201E2CC
:1004BE00BB010689828A83E0225002E722BBFE023C
:0904CE00E32289828A83E493226F
:1004D700BB010CE58229F582E5833AF583E02250DA
:1004E70006E92582F8E622BBFE06E92582F8E22224
:0D04F700E58229F582E5833AF583E493223E
:10050400BB010689828A83F0225002F722BBFE01D6
:02051400F322D0
:10051600F8E0FBA3A3E0F925F0F0E582158270026E
:070526001583E0FA38F02212
:09052D00EBF0A3EAF0A3E9F022CF
:10053600D083D082F8E4937012740193700DA3A354
:1005460093F8740193F5828883E473740293686068
:06055600EFA3A3A380DF68
:1006AE00EFB40A07740D1206B9740A309811A8999E
:1006BE00B8130CC2983098FDA899C298B811F630AC
:0706CE0099FDC299F5992284
:00000001FF
