:1005A000436F6E6669670A0073757370656E640ADF
:1005B00000457272457030526571436F64653D2528
:1005C0003032580A00457272457030526571536975
:1005D0007A650A00457272456E647020494E540A6D
:1005E0000072657365740A0053757370656E640AF2
:1005F000004177616B650A00556E6B6E6F776E20F8
:100600005553425F494E545F46473A305825303281
:10061000780A007374617274202E2E2E0A00120163
:1006200010010000000844333335000101020001CD
:1006300009022000010100A032090400000208069E
:10064000500007050102400000070581024000003C
:10065000040309040E037700630068002E006300A2
:100660006E000C03430048003500350034000000E4
:100670008002021F0000007763682E636E2020C78F
:10068000DFBAE3B5E7D7D355C5CCB7BDB0B80031B5
:100690002E31300000000800ECDFFF0300020000F4
:1006A000ECDFFF000002000B0080080000000000EB
:1006B000000200EBFE904D53444F53352E300002A4
:1006C0000820000200000000F000003F00FF0000D2
:1006D00000000000E0EC00393B00000000000002D8
:1006E0000000000100060000000000000000000003
:1006F00000000080002900008A494E4F204E414DE5
:100700004520202020464154333220202000000084
:1007100000000000000000000000000000000000D9
:1007200000000000000000000000000000000000C9
:1007300000000000000000000000000000000000B9
:1007400000000000000000000000000000000000A9
:100750000000000000000000000000000000000099
:100760000000000000000000000000000000000089
:100770000000000000000000000000000000000079
:100780000000000000000000000000000000000069
:100790000000000000000000000000000000000059
:1007A0000000000000000000000000000000000049
:1007B0000000000000000000000000000000000039
:1007C0000000000000000000000000000000000029
:1007D0000000000000000000000000000000000019
:1007E0000000000000000000000000000000000009
:1007F00000000000000000000000000000000000F9
:1008000000000000000000000000000000000000E8
:1008100000000000000000000000000000000000D8
:1008200000000000000000000000000000000000C8
:1008300000000000000000000000000000000000B8
:1008400000000000000000000000000000000000A8
:100850000000000000000000000000000000000098
:100860000000000000000000000000000000000088
:100870000000000000000000000000000000000078
:100880000000000000000000000000000000000068
:100890000000000000000000000000000000000058
:1008A0000000000000000000000000000000000048
:1008B0000055AAF0FFFFFFFFFFFFFFFFFFFF0F0044
:1008C0000000000000000000000000000000000028
:1008D0000000000000000000000000000000000018
:1008E0000000000000000000000000000000000008
:1008F00000000000000000000000000000000000F8
:1009000000000000000000000000000000000000E7
:1009100000000000000000000000000000000000D7
:1009200000000000000000000000000000000000C7
:1009300000000000000000000000000000000000B7
:1009400000000000000000000000000000000000A7
:100950000000000000000000000000000000000097
:100960000000000000000000000000000000000087
:100970000000000000000000000000000000000077
:100980000000000000000000000000000000000067
:100990000000000000000000000000000000000057
:1009A0000000000000000000000000000000000047
:1009B0000000000000000000000000000000000037
:1009C0000000000000000000000000000000000027
:1009D0000000000000000000000000000000000017
:1009E0000000000000000000000000000000000007
:1009F00000000000000000000000000000000000F7
:100A000000000000000000000000000000000000E6
:100A100000000000000000000000000000000000D6
:100A200000000000000000000000000000000000C6
:100A300000000000000000000000000000000000B6
:100A400000000000000000000000000000000000A6
:100A50000000000000000000000000000000000096
:100A60000000000000000000000000000000000086
:100A70000000000000000000000000000000000076
:100A80000000000000000000000000000000000066
:100A90000000000000000000000000000000000056
:100AA0000000000000000000000000000000000046
:030AB00000000043
:0A17C00041008E00C112C113C114D4
:10170B00E4F5E253E27F43E229F5E353E2BF53D121
:10171B00FB75D18043D10175EF0075EE0875EAC0FA
:10172B0075D21275ED0075EC0075DC02F5DDF5D3A5
:10173B0043E10443E10243E10143D81FD2EAD2AFB4
:01174B00227B
:101140009000A3E070030211DE24FD700302131D62
:1011500024E970030213BE24FC70030211DE24FB99
:10116000604724FE700302138A24FD607824166011
:10117000030213FE90008F74FFF0A37406F0A374B3
:101180006FF0E47F24FEFDFC9000D4E0F8A3E0F9CA
:10119000A3E0FAA3E0FBD312105A403F9000D41210
:1011A000108A0000002402131A90008F74FFF0A32D
:1011B0007406F0A37493F0E47F0CFEFDFC9000D461
:1011C000E0F8A3E0F9A3E0FAA3E0FBD312105A4041
:1011D0000A9000D412108A0000000C02131AC213E5
:1011E000C2120213F09000AAE0FFE4FCFDFE7808B2
:1011F00012106BC8ECC8C9EDC9CAEECACBEFCBA3BD
:10120000E0FFEB4FFFEAFEE9FDE8FCE4FB7A02F9C0
:10121000F8120F3D9000D412107E9000A6E0FFE47B
:10122000FCFDFE781012106BECC0E0EDC0E0EEC0EB
:10123000E0EFC0E09000A5E0FFE4FCFDFE781812AE
:10124000106BD0E0FBD0E0FAD0E0F9D0E0F8EF4B43
:10125000FFEE4AFEED49FDEC48FCECC0E0EDC0E0DD
:10126000EEC0E0EFC0E09000A7E0FFE4FCFDFE78F8
:101270000812106BD0E0FBD0E0FAD0E0F9D0E0F833
:10128000EF4BFBEE4AFAED49F9EC48F8A3E0FFEB2F
:101290004FFFEAFEE9FDE8FC9000DD12107EE4FF5E
:1012A000FEFDFC9000DDE0F8A3E0F9A3E0FAA3E086
:1012B000FBC312105A6015E47F06FEFDFC9000DDB2
:1012C000E0F8A3A3A3E0C312105A701090008F742B
:1012D000FFF0A37406F0A374B3F0803EE47F20FE19
:1012E000FDFC9000DDE0F8A3E0F9A3E0FAA3E0FB49
:1012F000C312105A6016E47F597E3BFDFC9000DD5E
:10130000E0F8A3A3A3E0C312105A700E90008F74EC
:10131000FFF0A37408F0A374B3F00213F0900094EC
:101320007470F0E4A3F0900092E0900096F0E4A3D3
:10133000F0A3F0A3F0A3F0A3740AF0E4A3F0A3F0E9
:10134000A3F0A3F09000D8E09000A0F0E4A3F0A3F5
:10135000F0A3F0A3F0A3F090008F04F0A37400F0CA
:10136000A37494F0E47F12FEFDFC9000D4E0F8A397
:10137000E0F9A3E0FAA3E0FBD312105A400A900070
:10138000D412108A000000128066E47F08FEFDFC83
:101390009000D4E0F8A3E0F9A3E0FAA3E0FBD312B5
:1013A000105A400A9000D412108A000000089000E1
:1013B0008F74FFF0A37406F0A3749FF08032E47F73
:1013C0000CFEFDFC9000D4E0F8A3E0F9A3E0FAA342
:1013D000E0FBD312105A400A9000D412108A000089
:1013E000000C90008F74FFF0A37406F0A374A7F0B4
:1013F000E4900093F0900092F09000D8F0229000DA
:10140000927405F09000D87424F09000937401F069
:0B14100030120443D2032243D20C220E
:10141B0090008F7401F0A37400F0A37494F0C214C5
:10142B00C2129000947455F0A37453F0A37442F05D
:10143B00A37453F09000D9E0900098F09000DAE09C
:10144B00900099F09000DBE090009AF09000DCE0C7
:10145B0090009BF09000D7E090009CF09000D6E0BD
:10146B0090009DF09000D5E090009EF09000D4E0AD
:10147B0090009FF0900093E09000A0F0E4FF9000AC
:10148B008FE0FBA3E0FAA3E0F9120F0EFE74482FD6
:10149B00F582E43400F583EEF0900090E475F001F2
:0E14AB00120F270FEFB40DD675D30D53D2FCE0
:0114B9002210
:1014BA00900094E064556003021551A3E064536000
:1014CA000302154FA3E064427079A3E06443707786
:1014DA0090009CE09000D7F090009DE09000D6F03C
:1014EA0090009EE09000D5F090009FE09000D4F02C
:1014FA00900098E09000D9F0900099E09000DAF01E
:10150A0090009AE09000DBF090009BE09000DCF005
:10151A009000D4E0FCA3E0FDA3E0FEA3E0FFEC4DC5
:10152A004E4F601A9000A0E030E703C38001D392C7
:10153A00139000A0E030E703D38001C39212D214C3
:0B154A000211408002800043D2032207
:10155500E47F40FEFDFC9000D4E0F8A3E0F9A3E0B1
:10156500FAA3E0FBD312105A402A9000E27440F02F
:101575009000D4E0FCA3E0FDA3E0FEA3E09440FFCF
:10158500EE9400FEED9400FDEC9400FC9000D41266
:10159500107E80179000D4A3A3A3E09000E2F09002
:1015A50000D412108A00000000C212E4FF9000E28D
:1015B500E0FEEFC39E502890008FE0FBA3E0FAA366
:1015C500E0F9120F0EFD74482FF582E43400F5831F
:1015D500EDF0900090E475F001120F270F80CE8E8C
:0415E500D353D2FC0E
:0115E90022DF
:0300430002004672
:0D004600C0E0C0F0C083C082C0D075D008FB
:1000530020D903020528E5D9543F70030205131480
:10006300602924E1700302049D24F06077240F606B
:100073000302051B301202805F301404C214805E39
:10008300E5D254FC4402F5D202052420DE03020526
:1000930024301303020524AFDBEF70030205249021
:1000A30000E1E4F09000E1E0FE6F602074082EF5BB
:1000B30082E43400F583E0FD74942EF582E4340089
:1000C300F583EDF09000E1E004F080D81214BA302B
:1000D30013030205243012061215550205241214C7
:1000E3001B0205249000E1E5DBF0E06408600302F5
:1000F3000468900007E0FE900006E0FDEDFF90002D
:1001030089EEF0A3EFF09000E1E4F0900001E090BD
:100113000088F0900000E05460604D900088E06437
:10012300FE60030203F790008B74FFF0A37406F0E4
:10013300A3746EF09000E17401F0E0FF7E00D390B1
:10014300008AE09F900089E09E4005EEF0A3EFF067
:10015300900089E0FEA3E0FFC39408EE94004005FD
:100163007F0802025C02025C900088E0B40B00404E
:100173000302044E90017EF828287302041B020236
:10018300D502044E02034C02044E02029702019F61
:1001930002044E0202A70202C40203FF900003E01E
:1001A30024FE601D1460302402707B90008B74FF6A
:1001B300F0A37406F0A3741EF09000E17412F080B3
:1001C3006B90008B74FFF0A37406F0A37430F0906F
:1001D30000E17420F08055900002E0603324FE605B
:1001E3001904704290008B74FFF0A37406F0A3749B
:1001F30054F09000E1740EF0803290008B74FFF0A5
:10020300A37406F0A37462F09000E1740CF0801CF8
:1002130090008B74FFF0A37406F0A37450F0900069
:10022300E17404F080069000E174FFF09000E1E0D7
:10023300FF7E00D390008AE09F900089E09E4005F6
:10024300EEF0A3EFF0900089E0FEA3E0FFC3940873
:10025300EE940040047F0880009000E1EFF07E0000
:1002630078007C007D0190008BE0FBA3E0FAA3E023
:10027300F9120EE89000E1E0FF7E00C390008AE0EF
:100283009FF0900089E09EF090008CEE8FF0120FAB
:1002930027020476900002E0FF900089E4F0A3EFC8
:1002A300F002047690008EE0900000F0C390008A84
:1002B300E09401900089E094005003020476020464
:1002C30013900002E090008EF07BFF7A0579A00284
:1002D3000473900000E0541FFD7020900003E0FEC3
:1002E300900002E0FBEB64014E700D9006379330F3
:1002F300E5030204760203F70203F7ED6402704696
:10030300900004E014602B146012248160141470B4
:1003130032E5D454BC4402F5D402047653D47302B8
:100323000476E5D254BC4402F5D2201403020476C9
:10033300800953D273201403020476C21412141BCF
:100343000204760203F70203F7900000E0541F70E3
:1003530041900003E0FE900002E0FDED64014E7069
:100363002F9006379330E5267BFF7A0579A8120B89
:100373001EE5A220E7FB75A15575A1AA75A98143C6
:10038300870275A15575A1AA75A900020476806438
:100393008062900000E0541F64027058900003E0F4
:1003A300FE900002E0FDED4E7048900005E0FE90E7
:1003B3000004E0FDEDFFEE7037EF14602B146012C4
:1003C30024816019147029E5D454BF4403F5D40281
:1003D3000476E5D4547F440CF5D4020476E5D25474
:1003E300BF4403F5D2020476E5D2547F440CF5D220
:1003F300800280009000E174FFF08077900000E4B9
:10040300F0C390008AE09401900089E09400406377
:100413009000E17401F0805B900000E0541F7008CD
:100423007402F0A3E4F08007900000E4F0A3F090DE
:100433000089E0FEA3E0FFC39402EE94009000E184
:1004430040057402F0802CEFF080289000E174FFE7
:10045300F0FB7A0579B1900088E0FF90010DE4F09C
:10046300A3EFF0800B9000E174FFF0FB7A0579C5F0
:10047300120B1E9000E1E0FFB4FF0C90008874FFA4
:10048300F075DCCF020524EFD3940850048FDD8090
:100493000375DD0075DCC0020524900088E024FBB1
:1004A3006057147063900089E0FEA3E0FFC39408D3
:1004B300EE940040047F0880009000E1EFF07E009E
:1004C30078007C007D0190008BE0FBA3E0FAA3E0C1
:1004D300F9120EE89000E1E0FFFD7C00C390008A72
:1004E300E09DF0900089E09CF090008CEC8DF01280
:1004F3000F278FDD63DC408028900089A3E0FFE5B0
:10050300E354804FF5E3800375DD0075DC02801151
:1005130075DD0063DC8080097BFF7A0579D4120BDB
:100523001EC2D9806D30D81A7BFF7A0579E1120B90
:100533001E75DC0275D21275E300C2DAC2D9C2D8C5
:10054300805030DA37C2DAE5DA30E2257BFF7A050C
:1005530079E8120B1EE5A220E7FB75A15575A1AA48
:1005630075A98143870275A15575A1AA75A9008054
:10057300217BFF7A0579F1120B1E80167BFF7A052A
:1005830079F8AFD890010DE4F0A3EFF0120B1E75CC
:02059300D8FF8F
:0B059500D0D0D082D083D0F0D0E03274
:10176E001217A07F057E0012002A1215EA7BFF7A5F
:0B177E00067913120B1E12170B80FEE1
:1017A00075A15575A1AAE5B954F84407F5B9E4F552
:0217B000A12274
:10174C00EF4E601D05A105A105A105A105A105A1EF
:10175C0005A105A105A105A105A1EF1F70E21E8041
:02176C00DF227A
:10002A00AD07AC06ED4C600E7FE87E0312174CED6F
:07003A001D70F11C80EE2295
:0417EB0043C61022BF
:1015EA00C29FD29EC29DC2CDC2CC43878090010ABF
:1015FA0012108A0000015BE47B0AFAF9F890010AEA
:10160A00E0FCA3E0FDA3E0FEA3E0FF120FC89001F7
:10161A000EEBF090010AE0FCA3E0FDA3E0FEA3E0DC
:10162A00FFE47B0AFAF9F8120FC890010A12107E39
:10163A0090010EE0C39405401F90010AE0FCA3E06C
:10164A00FDA3E0FEA3E02401FFE43EFEE43DFDE449
:10165A003CFC90010A12107EE589540F4420F5895A
:10166A0043C9A090010AA3A3A3E0F404F58DD28E86
:04167A00D29CD29993
:01167E002249
:0817CB003098FDC298AF99228D
:0817D3008F993099FDC29922A3
:0E17B200C2C7D2C5D2C475C2DED2ECD2AF22FD
:0817DB0030C0FDC2C0AFC12205
:0817E3008FC130C1FDC2C1221B
:1017890075A15575A1AAEF600543B101800353B155
:07179900FEE4F5A1F5FF22BB
:0317EF008FFF2247
:0300000002167F66
:0C167F00787FE4F6D8FD7581220216C6C3
:100E1800E709F608DFFA8046E709F208DFFA803EBC
:100E280088828C83E709F0A3DFFA8032E309F608A9
:100E3800DFFA8078E309F208DFFA807088828C8311
:100E4800E309F0A3DFFA806489828A83E0A3F608C5
:100E5800DFFA805889828A83E0A3F208DFFA804C9F
:100E680080D280FA80C680D4806980F28033801076
:100E780080A680EA809A80A880DA80E280CA8033DF
:100E880089828A83ECFAE493A3C8C582C8CCC58357
:100E9800CCF0A3C8C582C8CCC583CCDFE9DEE78027
:100EA8000D89828A83E493A3F608DFF9ECFAA9F0A6
:100EB800EDFB2289828A83ECFAE0A3C8C582C8CCFC
:100EC800C583CCF0A3C8C582C8CCC583CCDFEADE15
:100ED800E880DB89828A83E493A3F208DFF980CC77
:100EE80088F0EF60010E4E60C388F0ED2402B40470
:100EF8000050B9F582EB2402B4040050AF23234517
:060F08008223900E6873C5
:100F0E00BB010689828A83E0225002E722BBFE02E1
:090F1E00E32289828A83E4932214
:100F2700C5F0F8A3E028F0C5F0F8E5821582700255
:060F37001583E038F022F2
:100F3D00E88FF0A4CC8BF0A42CFCE98EF0A42CFC53
:100F4D008AF0EDA42CFCEA8EF0A4CDA8F08BF0A4D1
:100F5D002DCC3825F0FDE98FF0A42CCD35F0FCEB30
:100F6D008EF0A4FEA9F0EB8FF0A4CFC5F02ECD39F5
:0F0F7D00FEE43CFCEAA42DCE35F0FDE43CFC2262
:100F8C0075F008758200EF2FFFEE33FECD33CDCC1C
:100F9C0033CCC58233C5829BED9AEC99E58298409F
:100FAC000CF582EE9BFEED9AFDEC99FC0FD5F0D67C
:100FBC00E4CEFBE4CDFAE4CCF9A88222B800C1B9A6
:100FCC000059BA002DEC8BF084CFCECDFCE5F0CBE4
:100FDC00F97818EF2FFFEE33FEED33FDEC33FCEB1D
:100FEC0033FB10D703994004EB99FB0FD8E5E4F9D8
:100FFC00FA227818EF2FFFEE33FEED33FDEC33FCC5
:10100C00C933C910D7059BE99A4007EC9BFCE99AB8
:10101C00F90FD8E0E4C9FAE4CCFB2275F010EF2FFD
:10102C00FFEE33FEED33FDCC33CCC833C810D707FD
:10103C009BEC9AE899400AED9BFDEC9AFCE899F838
:0E104C000FD5F0DAE4CDFBE4CCFAE4C8F922CB
:10105A00EB9FF5F0EA9E42F0E99D42F0E89C45F0EC
:01106A002263
:10106B00E8600FEFC333FFEE33FEED33FDEC33FCE3
:03107B00D8F12287
:0C107E00ECF0A3EDF0A3EEF0A3EFF022E5
:10108A00A8828583F0D083D0821210A11210A112F7
:10109A0010A11210A1E473E493A3C583C5F0C5831C
:1010AA00C8C582C8F0A3C583C5F0C583C8C582C8B0
:0110BA002213
:100AB300E515240DF582E43401F583E00515229054
:100AC300010A30100390010DE475F0011210FA02CF
:100AD3000F0E2009E97F2ED2098018EF540F2490BE
:100AE300D43440D4FF300D0BEF24BFB41A005003AD
:100AF3002461FFE516600215160519E51970020554
:100B03001830100E90010AE475F0011210FAEF028A
:100B130010E80200037403D2108003E4C210F51539
:100B230090010A121111E4F516F518F519E516608E
:100B3300077F20120AF680F57517FFC20AC209C2A1
:100B43000BC20CC20EC20FC211120AC2FF700D30CB
:100B530010057F00120B07AF19AE1822B4255FC230
:100B6300D5C20D120AC2FF24D0B40A00501A75F080
:100B73000A781630D50508B6FF0106C6A426F62066
:100B8300D5047002D20C80D924CFB41A00EF5004DC
:100B9300C2E5D20D020D08D20A80C6D20980C0D2A6
:100BA3000B80BCD2D580BAD20E80B47F20120AF655
:100BB300200B077401B5160040F1120AB3FF120AA5
:100BC300F6020B30D211D20F8095120AB3FB120A30
:100BD300B3FA120AB3F94A4B700679D97A0D7BFF3F
:100BE300200B2EE516602A7E008E8275830012107C
:100BF300BB60060EEE651770F0C2D5EBC0E0EAC02D
:100C0300E0E9C0E0EE120D4FD0E0F9D0E0FAD0E019
:100C1300FB120F0EFF60AAEBC0E0EAC0E0E9C0E000
:100C2300120AF6D0E02401F9D0E03400FAD0E0FB58
:100C3300E5170460DCD517D980877BFF7A0D794BE4
:100C4300D20B809C791080027908C20FC2118008F0
:100C5300D2D5790A8004790AC2D5E517047002F562
:100C630017E4FAFDFEFF120AB3FC7B08200A1312F5
:100C73000AB3FD7B1030090A120AB3FE120AB3FF4E
:100C83007B20EC3382D592D55013C3E43009069F01
:100C9300FFE49EFEE4200A039DFDE49CFCE4CBF804
:100CA300C20AEC700CCFCECDCCE824F8F870F380F8
:100CB30017C3EF33FFEE33FEED33FDEC33FCEB33C1
:100CC300FB994002FB0FD8E9EB300A05F8D0E0C4EA
:100CD30048B20AC0E00AEC4D4E4F78207B0070C248
:100CE300EAB5170040BCC0E0120D51D0F0D0E020AF
:100CF3000A04C4C0E0C4B20AC0F0120ADFD0F0D5BF
:100D0300F0EB020B3012111A0BCD530C47580B9E0C
:100D13004C0B9A420C4B4F0C53440C53490BB343AB
:080D23000C59550C3D460C3D36
:100D2B00450C3D470DF9500BA22D0BA62E0BC92BD5
:100D3B000BAA230BC7200DE22A0B624800000BC144
:100D4B003F3F3F00790AA2D5200C14300E09B91091
:100D5B00020404B9080104A2D5200F02500104209B
:100D6B000B68920BB516005034C0E07F20300C1985
:100D7B007F30A20B720F720E500F120DA8C20BC256
:100D8B000FC20EC2117F30800F300E03E9C0E0128C
:100D9B000AF6300E03D0E0F9D0E0B516CC300E17C2
:100DAB007F30B9100C120AF67F58300D077F788010
:100DBB0003B90803120AF6300B057F2D020AF67FE2
:100DCB00202011F87F2B200FF322920B80CF286E5F
:100DDB00756C6C2900D20A120AB3300AF8C20A7871
:100DEB001630D50108F6020B622D50434958120AF2
:100DFB00B32403B405004001E4900DF493120AE709
:0D0E0B00743A120AE7D20C751604020C4767
:10168B0002176EE493A3F8E493A34003F68001F2F0
:10169B0008DFF48029E493A3F85407240CC8C33360
:1016AB00C4540F4420C8834004F456800146F6DF2F
:1016BB00E4800B01020408102040809017C0E47EE8
:1016CB00019360BCA3FF543F30E509541FFEE49324
:1016DB00A360010ECF54C025E060A840B8E493A3EB
:1016EB00FAE493A3F8E493A3C8C582C8CAC583CA16
:1016FB00F0A3C8C582C8CAC583CADFE9DEE780BECE
:0117CA00001E
:1010BB00BB010CE58229F582E5833AF583E02250EA
:1010CB0006E92582F8E622BBFE06E92582F8E22234
:0D10DB00E58229F582E5833AF583E493224E
:1010E800BB010689828A83F0225002F722BBFE01E7
:0210F800F322E1
:1010FA00F8E0FBA3A3E0F925F0F0E582158270027F
:07110A001583E0FA38F02222
:09111100EBF0A3EAF0A3E9F022DF
:10111A00D083D082F8E4937012740193700DA3A364
:10112A0093F8740193F5828883E473740293686078
:06113A00EFA3A3A380DF78
:10000300EFB40A07740D12000E740A309811A89900
:10001300B8130CC2983098FDA899C298B811F6305D
:0700230099FDC299F5992235
:00000001FF
