:1007780075A15575A1AAE5B954F84404F5B9E4F58D
:02078800A122AC
:0E078A00EF4E600905A1EF1F70F61E80F322EE
:10074A00AD07AC06ED4C600E7FE87E0312078AED1A
:07075A001D70F11C80EE226E
:0407CE0043C61022EC
:1005AC00C29FD29EC29DC2CDC2CC43878090000216
:1005BC0012044200000082E47B0AFAF9F89000026F
:1005CC00E0FCA3E0FDA3E0FEA3E0FF1203A4900077
:1005DC0006EBF0900002E0FCA3E0FDA3E0FEA3E03C
:1005EC00FFE47B0AFAF9F81203A490000212043615
:1005FC00900006E0C39405401F900002E0FCA3E0CD
:10060C00FDA3E0FEA3E02401FFE43EFEE43DFDE497
:10061C003CFC900002120436E589540F4420F58905
:10062C0043C9A0900002A3A3A3E0F404F58DD28EDD
:04063C00D299D29CE1
:010640002297
:0807AE003098FDC298AF9922BA
:0807B6008F993099FDC29922D0
:0A07A400C2C7D2C5D2C475C2F32249
:0807BE0030C0FDC2C0AFC12232
:0807C6008FC130C1FDD2C12238
:1007610075A15575A1AAEF600543B101800353B18D
:07077100FEE4F5A1F5FF22F3
:0307D2008FFF2274
:1006C0007374617274202E2E2E0A004446502064EA
:1006D000656661756C74506F7765722E2E2E0A00F8
:1006E00044465020312E35412E2E2E0A00444650CD
:1006F00020332E302E2E2E0A00646973636F6E6EC7
:080700006563742E2E2E0A0021
:10064100E4900000F0A3F01207787F147E001207F7
:100651004A1205AC7BFF7A0679C012006E12072F91
:100661001205117E00900000EEF0A3EFF070097BFF
:10067100FF7A0679CB12006E900000E07004A3E0CF
:10068100640170097BFF7A0679E012006E90000028
:10069100E07004A3E0640270097BFF7A0679ED1231
:1006A100006E900000E07003A3E0F470097BFF7A14
:0F06B1000679F912006E7FF47E0112074A80A1CC
:10072F005392CF5393CF439144E59A54FE4408F527
:0B073F009A5393ED7F027E0002078AB0
:10051100C281D2807F027E0012078AD2842084FDAC
:10052100900002E59FF0E0FFC394434009EFD394AC
:100531006850037F0222900002E0FFC39424400927
:10054100EFD3943B50037F0122900002E0FFC3945C
:100551000D4009EFD3941F50037F0022D281C28046
:100561007F027E0012078AD2842084FD900002E57A
:100571009FF0E0FFC394434009EFD3946850037F99
:100581000222900002E0FFC394244009EFD3943B80
:1005910050037F0122900002E0FFC3940D4009EF58
:0A05A100D3941F50037F00227FFF58
:0105AB00222D
:030000000207985C
:0C079800787FE4F6D8FD7581210206414F
:1003680075F008758200EF2FFFEE33FECD33CDCC4C
:1003780033CCC58233C5829BED9AEC99E5829840CF
:100388000CF582EE9BFEED9AFDEC99FC0FD5F0D6AC
:10039800E4CEFBE4CDFAE4CCF9A88222B800C1B9D6
:1003A8000059BA002DEC8BF084CFCECDFCE5F0CB14
:1003B800F97818EF2FFFEE33FEED33FDEC33FCEB4D
:1003C80033FB10D703994004EB99FB0FD8E5E4F908
:1003D800FA227818EF2FFFEE33FEED33FDEC33FCF5
:1003E800C933C910D7059BE99A4007EC9BFCE99AE9
:1003F800F90FD8E0E4C9FAE4CCFB2275F010EF2F2E
:10040800FFEE33FEED33FDCC33CCC833C810D7072D
:100418009BEC9AE899400AED9BFDEC9AFCE899F868
:0E0428000FD5F0DAE4CDFBE4CCFAE4C8F922FB
:0C043600ECF0A3EDF0A3EEF0A3EFF02239
:10044200A8828583F0D083D08212045912045912F3
:100452000459120459E473E493A3C583C5F0C58318
:10046200C8C582C8F0A3C583C5F0C583C8C582C804
:010472002267
:10000300E5082405F582E43400F583E00508229031
:100013000002300703900005E475F0011204CB02DF
:1000230004732000E97F2ED2008018EF540F249030
:10003300D43440D4FF30040BEF24BFB41A00500370
:100043002461FFE50960021509050CE50C70020542
:100053000B30070E900002E475F0011204CBEF029F
:1000630004B90207087403D2078003E4C207F50842
:100073009000021204E2E4F509F50BF50CE50960C2
:10008300077F2012004680F5750AFFC201C200C235
:1000930002C203C205C206C208120012FF700D306D
:1000A30007057F00120057AF0CAE0B22B4255FC2C9
:1000B300D5C204120012FF24D0B40A00501A75F0FE
:1000C3000A780930D50508B6FF0106C6A426F6202E
:1000D300D5047002D20380D924CFB41A00EF5004A0
:1000E300C2E5D204020258D20180C6D20080C0D237
:1000F3000280BCD2D580BAD20580B47F20120046DC
:100103002002077401B5090040F1120003FF120039
:1001130046020080D208D2068095120003FB12002B
:1001230003FA120003F94A4B700679297A037BFF1D
:1001330020022EE509602A7E008E82758300120458
:100143008C60060EEE650A70F0C2D5EBC0E0EAC023
:10015300E0E9C0E0EE12029FD0E0F9D0E0FAD0E08F
:10016300FB120473FF60AAEBC0E0EAC0E0E9C0E061
:10017300120046D0E02401F9D0E03400FAD0E0FBCD
:10018300E50A0460DCD50AD980877BFF7A02799B74
:10019300D202809C791080027908C206C2088008C6
:1001A300D2D5790A8004790AC2D5E50A047002F52A
:1001B3000AE4FAFDFEFF120003FC7B082001131280
:1001C3000003FD7B1030000A120003FE120003FF40
:1001D3007B20EC3382D592D55013C3E43000069FC5
:1001E300FFE49EFEE42001039DFDE49CFCE4CBF8C8
:1001F300C201EC700CCFCECDCCE824F8F870F380BC
:1002030017C3EF33FFEE33FEED33FDEC33FCEB337B
:10021300FB994002FB0FD8E9EB300105F8D0E0C4AD
:1002230048B201C0E00AEC4D4E4F78207B0070C20B
:10023300EAB50A0040BCC0E01202A1D0F0D0E02031
:100243000104C4C0E0C4B201C0F012002FD0F0D545
:10025300F0EB0200801204EB011D5301975800EEEE
:100263004C00EA42019B4F01A34401A3490103430C
:0802730001A955018D46018D22
:10027B0045018D4703495000F22D00F62E01192B35
:10028B0000FA2301172003322A00B24800000111A3
:10029B003F3F3F00790AA2D5200314300509B9105E
:1002AB00020404B9080104A2D5200602500104205F
:1002BB0002689202B509005034C0E07F2030031968
:1002CB007F30A20272067205500F1202F8C202C2F0
:1002DB0006C205C2087F30800F300503E9C0E0126B
:1002EB000046300503D0E0F9D0E0B509CC30051756
:1002FB007F30B9100C1200467F583004077F78808E
:10030B0003B908031200463002057F2D0200467F19
:10031B00202008F87F2B2006F322920280CF286E34
:10032B00756C6C2900D2011200033001F8C2017800
:10033B000930D50108F60200B22D5043495812007E
:10034B00032403B405004001E490034493120037E7
:0D035B00743A120037D203750904020197AD
:10047300BB010689828A83E0225002E722BBFE0287
:09048300E32289828A83E49322BA
:10048C00BB010CE58229F582E5833AF583E0225025
:10049C0006E92582F8E622BBFE06E92582F8E2226F
:0D04AC00E58229F582E5833AF583E4932289
:1004B900BB010689828A83F0225002F722BBFE0122
:0204C900F3221C
:1004CB00F8E0FBA3A3E0F925F0F0E58215827002BA
:0704DB001583E0FA38F0225E
:0904E200EBF0A3EAF0A3E9F0221B
:1004EB00D083D082F8E4937012740193700DA3A3A0
:1004FB0093F8740193F5828883E4737402936860B4
:06050B00EFA3A3A380DFB3
:10070800EFB40A07740D120713740A309811A899E8
:10071800B8130CC2983098FDA899C298B811F63051
:0707280099FDC299F5992229
:00000001FF
