:100C3B0075A15575A1AAE5B954F84404F5B9E4F5C5
:020C4B00A122E4
:0E0C4D00EF4E600905A1EF1F70F61E80F32226
:100C0D00AD07AC06ED4C600E7FE87E03120C4DED8A
:070C1D001D70F11C80EE22A6
:04003D0043C6102284
:100AE000C29FD29EC29DC2CDC2CC4387809001429C
:100AF00012097500000082E47B0AFAF9F8900142BD
:100B0000E0FCA3E0FDA3E0FEA3E0FF1208D7900104
:100B100046EBF0900142E0FCA3E0FDA3E0FEA3E081
:100B2000FFE47B0AFAF9F81208D79001421209692A
:100B3000900146E0C39405401F900142E0FCA3E011
:100B4000FDA3E0FEA3E02401FFE43EFEE43DFDE45E
:100B50003CFC900142120969E589540F4420F58953
:100B600043C9A0900142A3A3A3E0F404F58DD28E63
:040B7000D299D29CA8
:010B7400225E
:080C71003098FDC298AF9922F2
:080C79008F993099FDC2992208
:0A0C6700C2C7D2C5D2C475C2F32281
:080C810030C0FDC2C0AFC1226A
:080C89008FC130C1FDD2C12270
:100C240075A15575A1AAEF600543B101800353B1C5
:070C3400FEE4F5A1F5FF222B
:030C91008FFF22B0
:100A44004C69676874206F6E204E756D204C6F631F
:100A54006B204C4544210A004C69676874206F661A
:100A640066204E756D204C6F636B204C4544210A03
:100A7400007A7A007374617274202E2E2E0A00128A
:100A84000110010000004031510720000000000067
:100A94000109022900010104A02309040000020342
:100AA400000005092100010001222200070582033C
:100AB400400018070502034000180600FF0901A1C1
:100AC40001090215002600FF7508954081060902F8
:0C0AD40015002600FF750895409106C033
:10000300C2EAE4F5E253D1FB75E50075E44443EB42
:100013000443EB0853EBFE75D41275ED0075EC0049
:1000230053EAF375DC02F5E375D18075E22943D118
:0A0033000175D8FF75E107D2EA223B
:100BF30078847C007D017B017A0079CB7E007F4085
:0A0C030012085F75D54053D4FC229F
:0300430002004672
:0D004600C0E0C0F0C083C082C0D075D008FB
:1000530020D9030203D8E5D9543F70030203A62431
:10006300FE602024E2700302033524F06051240E65
:1000730060030203D675D500E5D454FC4402F5D4DD
:100083000203D620DE030203D6900119E5DBF0E478
:10009300FF900119E0FEEFC39E501C74442FF582BC
:1000A300E43400F583E0F4FD74842FF582E4340036
:1000B300F583EDF00F80DA8ED553D4FC0203D6908E
:1000C3000119E5DBF0E06408600302030890000611
:1000D300E090010BF0900007E0700990010BE0D372
:1000E300947F400690010B747FF0900119E4F09027
:1000F3000001E090010CF0900000E05460601A9061
:10010300010CE01424FD400302030E24FB24FD40F4
:100113000302030E800002030890010CE0B40B00FD
:10012300400302030690012FF82828730202E90214
:1001330002380203060202730203060202050201E9
:100143005002030602021002022D02030E90000366
:10015300E024FE601E24E0603024217048900115E5
:1001630074FFF0A3740AF0A37483F090011974125E
:10017300F0803890011574FFF0A3740AF0A374950E
:10018300F09001197429F0802290011574FFF0A3F7
:10019300740AF0A374BEF09001197422F090011850
:1001A3007401F0800690011974FFF0900119E0FFCB
:1001B30090010BE0D39F4002EFF090010BE0FFC3EF
:1001C300944040047F408000900119EFF07E007856
:1001D300007C007D01900115E0FBA3E0FAA3E0F9A8
:1001E30012085F90010BE0FF900119E0FEC3EF9E40
:1001F30090010BF0EEFF900116E48FF012088502D8
:10020300030E900002E090010BF002030E9000C871
:10021300E0900000F090010BE0C39401500302034F
:100223000E9001197401F002030E900002E0900099
:10023300C8F002030E900000E0541F6402702E9079
:100243000004E024FE601D2481600E14701CE5D4BC
:1002530054BC4402F5D402030EE5D254BC4402F567
:10026300D202030E53D47302030E020308020308DF
:10027300900000E0541FFD701B900003E0FE90000F
:1002830002E0FBEB64014E7009900A9C9320E57B2E
:1002930080738071ED6402704B900003E0FE900068
:1002A30002E0FDED4E703B900005E0FE900004E09F
:1002B300FDEDFFEE702AEF24FE6011248160171418
:1002C300701EE5D454BF4403F5D4803FE5D4547F76
:1002D300440CF5D48035E5D254BF4403F5D2802BCA
:1002E30080238021801F900000E4F0A3F090010B95
:1002F300E0FFC3940290011940057402F0800CEFF3
:10030300F08008800090011974FFF0900119E0FF5C
:10031300B4FF0C90010C74FFF075DCCF0203D6EF31
:10032300D3944050048FDD800375DD0075DCC0027B
:1003330003D690010CE024FB605314705E90010B14
:10034300E0FFC3944040047F408000900119EFF028
:100353007E0078007C007D01900115E0FBA3E0FAAC
:10036300A3E0F912085F90010BE0FF900119E0FE92
:10037300C3EF9E90010BF0EEFF900116E48FF01295
:100383000885900119E0F5DD63DC408046E5E35420
:1003930080FF90010BE04FF5E3800375DD0075DC12
:1003A300028030900119E5DBF090010CE0B4091DE7
:1003B300900000E060087BFF7A0A7944800C90008B
:1003C30000E070097BFF7A0A795C12049575DD0001
:1003D30075DC00C2D930D81275DC0275D21075D421
:1003E3001275E300C2DAC2D9C2D830DA2CC2DAE518
:1003F300DA30E2287BFF7A0A7975120495E5A220A8
:10040300E7FB75A15575A1AA75A98143870275A15B
:0C0413005575A1AA75A900800375D8FFDB
:0B041F00D0D0D082D083D0F0D0E032EB
:100B7500120C3B7F057E00120C0D120AE07BFF7AFA
:100B85000A7978120495E4FF74CB2FF582E43400DA
:100B9500F583EFF00FEFB440EF120003D2AFE4F5A9
:100BA500D3F5D59000CAF0900118F0900118E060D7
:100BB5000D20950A120BF37F647E00120C0D7F64E5
:070BC5007E00120C0D80E41C
:03000000020C5B94
:0C0C5B00787FE4F6D8FD758122020B754D
:10078F00E709F608DFFA8046E709F208DFFA803E4C
:10079F0088828C83E709F0A3DFFA8032E309F60839
:1007AF00DFFA8078E309F208DFFA807088828C83A1
:1007BF00E309F0A3DFFA806489828A83E0A3F60855
:1007CF00DFFA805889828A83E0A3F208DFFA804C2F
:1007DF0080D280FA80C680D4806980F28033801006
:1007EF0080A680EA809A80A880DA80E280CA80336F
:1007FF0089828A83ECFAE493A3C8C582C8CCC583E7
:10080F00CCF0A3C8C582C8CCC583CCDFE9DEE780B6
:10081F000D89828A83E493A3F608DFF9ECFAA9F035
:10082F00EDFB2289828A83ECFAE0A3C8C582C8CC8B
:10083F00C583CCF0A3C8C582C8CCC583CCDFEADEA4
:10084F00E880DB89828A83E493A3F208DFF980CC06
:10085F0088F0EF60010E4E60C388F0ED2402B404FF
:10086F000050B9F582EB2402B4040050AF232345A6
:06087F0082239007DF73E5
:10088500C5F0F8A3E028F0C5F0F8E58215827002FE
:060895001583E038F0229B
:10089B0075F008758200EF2FFFEE33FECD33CDCC14
:1008AB0033CCC58233C5829BED9AEC99E582984097
:1008BB000CF582EE9BFEED9AFDEC99FC0FD5F0D674
:1008CB00E4CEFBE4CDFAE4CCF9A88222B800C1B99E
:1008DB000059BA002DEC8BF084CFCECDFCE5F0CBDC
:1008EB00F97818EF2FFFEE33FEED33FDEC33FCEB15
:1008FB0033FB10D703994004EB99FB0FD8E5E4F9D0
:10090B00FA227818EF2FFFEE33FEED33FDEC33FCBC
:10091B00C933C910D7059BE99A4007EC9BFCE99AB0
:10092B00F90FD8E0E4C9FAE4CCFB2275F010EF2FF5
:10093B00FFEE33FEED33FDCC33CCC833C810D707F5
:10094B009BEC9AE899400AED9BFDEC9AFCE899F830
:0E095B000FD5F0DAE4CDFBE4CCFAE4C8F922C3
:0C096900ECF0A3EDF0A3EEF0A3EFF02201
:10097500A8828583F0D083D08212098C12098C124B
:10098500098C12098CE473E493A3C583C5F0C58370
:10099500C8C582C8F0A3C583C5F0C583C8C582C8CC
:0109A500222F
:10042A00E5152445F582E43401F583E005152290AB
:10043A000142301003900145E475F0011209FE02F1
:10044A0009A62009E97F2ED2098018EF540F2490BB
:10045A00D43440D4FF300D0BEF24BFB41A0050033C
:10046A002461FFE516600215160519E519700205E3
:10047A001830100E900142E475F0011209FEEF02E5
:10048A0009EC020BCC7403D2108003E4C210F515F8
:10049A00900142120A15E4F516F518F519E51660E9
:1004AA00077F2012046D80F57517FFC20AC209C2C0
:1004BA000BC20CC20EC20FC211120439FF700D30EA
:1004CA0010057F0012047EAF19AE1822B4255FC250
:1004DA00D5C20D120439FF24D0B40A00501A75F09F
:1004EA000A781630D50508B6FF0106C6A426F620F6
:1004FA00D5047002D20C80D924CFB41A00EF50046C
:10050A00C2E5D20D02067FD20A80C6D20980C0D2C5
:10051A000B80BCD2D580BAD20E80B47F2012046D73
:10052A00200B077401B5160040F112042AFF1204C9
:10053A006D0204A7D211D20F809512042AFB12046D
:10054A002AFA12042AF94A4B700679507A077BFF75
:10055A00200B2EE516602A7E008E82758300120912
:10056A00BF60060EEE651770F0C2D5EBC0E0EAC0B8
:10057A00E0E9C0E0EE1206C6D0E0F9D0E0FAD0E039
:10058A00FB1209A6FF60AAEBC0E0EAC0E0E9C0E0FE
:10059A0012046DD0E02401F9D0E03400FAD0E0FB77
:1005AA00E5170460DCD517D980877BFF7A0679C204
:1005BA00D20B809C791080027908C20FC211800880
:1005CA00D2D5790A8004790AC2D5E517047002F5F2
:1005DA0017E4FAFDFEFF12042AFC7B08200A131214
:1005EA00042AFD7B1030090A12042AFE12042AFF8B
:1005FA007B20EC3382D592D55013C3E43009069F91
:10060A00FFE49EFEE4200A039DFDE49CFCE4CBF893
:10061A00C20AEC700CCFCECDCCE824F8F870F38087
:10062A0017C3EF33FFEE33FEED33FDEC33FCEB3350
:10063A00FB994002FB0FD8E9EB300A05F8D0E0C479
:10064A0048B20AC0E00AEC4D4E4F78207B0070C2D7
:10065A00EAB5170040BCC0E01206C8D0F0D0E020CE
:10066A000A04C4C0E0C4B20AC0F0120456D0F0D5DD
:10067A00F0EB0204A7120A1E05445305BE580515DD
:10068A004C05114205C24F05CA4405CA49052A4309
:08069A0005D05505B44605B476
:1006A2004505B44707705005192D051D2E05402B31
:1006B200052123053E2007592A04D94800000538A0
:1006C2003F3F3F00790AA2D5200C14300E09B91021
:1006D200020404B9080104A2D5200F02500104202B
:1006E2000B68920BB516005034C0E07F20300C1915
:1006F2007F30A20B720F720E500F12071FC20BC275
:100702000FC20EC2117F30800F300E03E9C0E0121B
:10071200046D300E03D0E0F9D0E0B516CC300E17E0
:100722007F30B9100C12046D7F58300D077F78802E
:1007320003B9080312046D300B057F2D02046D7F8F
:10074200202011F87F2B200FF322920B80CF286EEE
:10075200756C6C2900D20A12042A300AF8C20A788F
:100762001630D50108F60204D92D50434958120417
:100772002A2403B405004001E490076B9312045E3F
:0D078200743A12045ED20C7516040205BE16
:1009A600BB010689828A83E0225002E722BBFE024F
:0909B600E32289828A83E4932282
:1009BF00BB010CE58229F582E5833AF583E02250ED
:1009CF0006E92582F8E622BBFE06E92582F8E22237
:0D09DF00E58229F582E5833AF583E4932251
:1009EC00BB010689828A83F0225002F722BBFE01EA
:0209FC00F322E4
:1009FE00F8E0FBA3A3E0F925F0F0E5821582700282
:070A0E001583E0FA38F02225
:090A1500EBF0A3EAF0A3E9F022E2
:100A1E00D083D082F8E4937012740193700DA3A367
:100A2E0093F8740193F5828883E47374029368607B
:060A3E00EFA3A3A380DF7B
:100BCC00EFB40A07740D120BD7740A309811A89958
:100BDC00B8130CC2983098FDA899C298B811F63089
:070BEC0099FDC299F5992261
:00000001FF
