:100C890075A15575A1AAE5B954F84404F5B9E4F577
:020C9900A12296
:0E0C9B00EF4E600905A1EF1F70F61E80F322D8
:100C5B00AD07AC06ED4C600E7FE87E03120C9BEDEE
:070C6B001D70F11C80EE2258
:040CDD0043C61022D8
:100A0200C29FD29EC29DC2CDC2CC4387809000FAC3
:100A120012093300000082E47B0AFAF9F89000FA26
:100A2200E0FCA3E0FDA3E0FEA3E0FF120895900026
:100A3200FEEBF09000FAE0FCA3E0FDA3E0FEA3E0F1
:100A4200FFE47B0AFAF9F81208959000FA120927D6
:100A52009000FEE0C39405401F9000FAE0FCA3E082
:100A6200FDA3E0FEA3E02401FFE43EFEE43DFDE43D
:100A72003CFC9000FA120927E589540F4420F589BD
:100A820043C9A09000FAA3A3A3E0F404F58DD28E8B
:040A9200D299D29C87
:010A9600223D
:080CBD003098FDC298AF9922A6
:080CC5008F993099FDC29922BC
:0A0CA900C2C7D2C5D2C475C2F3223F
:080CCD0030C0FDC2C0AFC1221E
:080CD5008FC130C1FDD2C12224
:100C720075A15575A1AAEF600543B101800353B177
:070C8200FEE4F5A1F5FF22DD
:030CE1008FFF2260
:100A9700457272457030526571436F64653D25300C
:100AA70032580A0045727245703052657153697A3F
:100AB700650A007A7A00537461727420404368694A
:100AC7007049443D253032580A0025630012011051
:100AD70001FF80550848433755000101020001090D
:100AE70002270001010080320904000003FF80553E
:100AF70000070582024000000705020240000007C8
:100B0700058103400000040309040E037700630016
:100B170068002E0063006E000C0343004800350098
:040B27003500340061
:04003D004100050079
:0300430002004672
:0D004600C0E0C0F0C083C082C0D075D008FB
:1000530020D90302039430DF03020390E5D9543F10
:10006300700302038824E0700302031A146055141A
:10007300604724F26059242E600302039020DE03BC
:100083000203909000D0E5DBF0E4FF9000D0E0FEA7
:10009300EFC39E501C74502FF582E43400F583E0C7
:1000A300F4FD74902FF582E43400F583EDF00F80B6
:1000B300DA8ED553D4FC020390E5D454FC4402F504
:1000C300D4020390E5D254FC4402F5D2020390908B
:1000D30000D0E5DBF0E0640860030202E690000C68
:1000E300E0900001F090000DE07009900001E0D372
:1000F300947F4006900001747FF09000D0E4F0906C
:100103000007E0900000F0900006E05460600302F6
:100113000291900000E070030202AF147003020228
:100123005624FC700302022C24FD700302023714D0
:10013300700302024B147003020299240460030249
:1001430002CC900009E024FE601D1460302402708C
:100153007B90000274FFF0A3740AF0A374D4F090B0
:1001630000D07412F0806B90000274FFF0A3740A45
:10017300F0A374E6F09000D07427F0805590000847
:10018300E0603324FE601904704290000274FFF0B3
:10019300A3740BF0A37411F09000D0740EF08032AE
:1001A30090000274FFF0A3740BF0A3741FF090008F
:1001B300D0740CF0801C90000274FFF0A3740BF059
:1001C300A3740DF09000D07404F080069000D074F6
:1001D300FFF09000D0E0FF900001E0D39F4002EFDA
:1001E300F0900001E0FFC3940840047F0880009072
:1001F30000D0EFF07E0078067C007D01900002E0E5
:10020300FBA3E0FAA3E0F912081D900001E0FF90C0
:1002130000D0E0FEC3EF9E900001F0EEFF900003DC
:10022300E48FF01208430202F4900008E09000010A
:10023300F00202F4900005E0A3F0900001E0C39403
:100243000150030202F4805C900008E0900005F086
:100253000202F4900006E0541F6402703190000A19
:10026300E01460231460112481601214701EE5D41D
:1002730054BC4402F5D4807953D4738074E5D254CA
:10028300BC4402F5D2806A53D2738065800090002B
:10029300D074FFF0805B900006E4F0900001E0C3AF
:1002A3009401404D9000D07401F08045900006E425
:1002B300F0A3F0900001E0FFC394029000D040054A
:1002C3007402F0802CEFF080289000D074FFF0FBD4
:1002D3007A0A7997900000E0FF9000FDE4F0A3EF25
:1002E300F0800B9000D074FFF0FB7A0A79AB120414
:1002F300539000D0E0FFB4FF0C90000074FFF07542
:10030300DCCF020390EFD3940850048FDD80037594
:10031300DD0075DCC08076900000E024FB605314A0
:10032300705E900001E0FFC3940840047F088000E2
:100333009000D0EFF07E0078067C007D01900002F3
:10034300E0FBA3E0FAA3E0F912081D900001E0FF2F
:100353009000D0E0FEC3EF9E900001F0EEFF90000E
:1003630003E48FF01208439000D0E0F5DD63DC4036
:10037300801BE5E35480FF900001E04FF5E3800A22
:1003830075DD008005900000E0FF75DC02C2D980B6
:100393004930D81475DC0275D21075D41275E30098
:1003A300C2DAC2D9C2D8803230DA2CC2DAE5DA3006
:1003B300E2287BFF7A0A79BA120453E5A220E7FB0D
:1003C30075A15575A1AA75A98143870275A15575B4
:0A03D300A1AA75A900800375D8FFE8
:0B03DD00D0D0D082D083D0F0D0E0322E
:10000300C2EAE4F5E275EA4075EB0C75ED0075ECB8
:100013000675EF0075EE1075E50075E45075DC02AA
:1000230075D21075D412F5E375D18075E22943D1E9
:0A0033000175D8FF75E107D2EA223B
:100BB700120C897F057E00120C5B120A027BFF7AFA
:100BC7000A79BDAFA19000FDE4F0A3EFF012045342
:100BD700120003D2AF120CB39000F9EFF07BFF7A4B
:100BE7000A79D19000FDF01204539000F9E0FFC399
:100BF700943040E1EFD3947A50DBEF24D0FFE43414
:100C0700FFFAC9EFC97BFF78107C007D017E007F6A
:100C17004012081D9000F9E024D0FFD39408400645
:0D0C27007E087F0880008FD353D2FC80A888
:03000000020B2BC5
:0C0B2B00787FE4F6D8FD758122020B7281
:10074D00E709F608DFFA8046E709F208DFFA803E8E
:10075D0088828C83E709F0A3DFFA8032E309F6087B
:10076D00DFFA8078E309F208DFFA807088828C83E3
:10077D00E309F0A3DFFA806489828A83E0A3F60897
:10078D00DFFA805889828A83E0A3F208DFFA804C71
:10079D0080D280FA80C680D4806980F28033801048
:1007AD0080A680EA809A80A880DA80E280CA8033B1
:1007BD0089828A83ECFAE493A3C8C582C8CCC58329
:1007CD00CCF0A3C8C582C8CCC583CCDFE9DEE780F9
:1007DD000D89828A83E493A3F608DFF9ECFAA9F078
:1007ED00EDFB2289828A83ECFAE0A3C8C582C8CCCE
:1007FD00C583CCF0A3C8C582C8CCC583CCDFEADEE7
:10080D00E880DB89828A83E493A3F208DFF980CC48
:10081D0088F0EF60010E4E60C388F0ED2402B40441
:10082D000050B9F582EB2402B4040050AF232345E8
:06083D00822390079D7369
:10084300C5F0F8A3E028F0C5F0F8E5821582700240
:060853001583E038F022DD
:1008590075F008758200EF2FFFEE33FECD33CDCC56
:1008690033CCC58233C5829BED9AEC99E5829840D9
:100879000CF582EE9BFEED9AFDEC99FC0FD5F0D6B6
:10088900E4CEFBE4CDFAE4CCF9A88222B800C1B9E0
:100899000059BA002DEC8BF084CFCECDFCE5F0CB1E
:1008A900F97818EF2FFFEE33FEED33FDEC33FCEB57
:1008B90033FB10D703994004EB99FB0FD8E5E4F912
:1008C900FA227818EF2FFFEE33FEED33FDEC33FCFF
:1008D900C933C910D7059BE99A4007EC9BFCE99AF3
:1008E900F90FD8E0E4C9FAE4CCFB2275F010EF2F38
:1008F900FFEE33FEED33FDCC33CCC833C810D70738
:100909009BEC9AE899400AED9BFDEC9AFCE899F872
:0E0919000FD5F0DAE4CDFBE4CCFAE4C8F92205
:0C092700ECF0A3EDF0A3EEF0A3EFF02243
:10093300A8828583F0D083D08212094A12094A1211
:10094300094A12094AE473E493A3C583C5F0C58336
:10095300C8C582C8F0A3C583C5F0C583C8C582C80E
:010963002271
:1003E800E51524FDF582E43400F583E00515229037
:1003F80000FA3010039000FDE475F0011209BC0208
:1004080009642009E97F2ED2098018EF540F24903F
:10041800D43440D4FF300D0BEF24BFB41A0050037E
:100428002461FFE516600215160519E51970020525
:100438001830100E9000FAE475F0011209BCEF02B2
:1004480009AA020C347403D2108003E4C210F51513
:100458009000FA1209D3E4F516F518F519E51660B7
:10046800077F2012042B80F57517FFC20AC209C244
:100478000BC20CC20EC20FC2111203F7FF700D306F
:1004880010057F0012043CAF19AE1822B4255FC2D4
:10049800D5C20D1203F7FF24D0B40A00501A75F024
:1004A8000A781630D50508B6FF0106C6A426F62038
:1004B800D5047002D20C80D924CFB41A00EF5004AE
:1004C800C2E5D20D02063DD20A80C6D20980C0D24A
:1004D8000B80BCD2D580BAD20E80B47F2012042BF8
:1004E800200B077401B5160040F11203E8FF12044F
:1004F8002B020465D211D20F80951203E8FB120378
:10050800E8FA1203E8F94A4B7006790E7A077BFF7E
:10051800200B2EE516602A7E008E82758300120954
:100528007D60060EEE651770F0C2D5EBC0E0EAC03C
:10053800E0E9C0E0EE120684D0E0F9D0E0FAD0E0BD
:10054800FB120964FF60AAEBC0E0EAC0E0E9C0E082
:1005580012042BD0E02401F9D0E03400FAD0E0FBFB
:10056800E5170460DCD517D980877BFF7A06798088
:10057800D20B809C791080027908C20FC2118008C2
:10058800D2D5790A8004790AC2D5E517047002F534
:1005980017E4FAFDFEFF1203E8FC7B08200A131299
:1005A80003E8FD7B1030090A1203E8FE1203E8FF96
:1005B8007B20EC3382D592D55013C3E43009069FD3
:1005C800FFE49EFEE4200A039DFDE49CFCE4CBF8D6
:1005D800C20AEC700CCFCECDCCE824F8F870F380CA
:1005E80017C3EF33FFEE33FEED33FDEC33FCEB3393
:1005F800FB994002FB0FD8E9EB300A05F8D0E0C4BC
:1006080048B20AC0E00AEC4D4E4F78207B0070C219
:10061800EAB5170040BCC0E0120686D0F0D0E02052
:100628000A04C4C0E0C4B20AC0F0120414D0F0D561
:10063800F0EB0204651209DC050253057C5804D36B
:100648004C04CF4205804F05884405884904E84397
:08065800058E5505724605727E
:1006600045057247072E5004D72D04DB2E04FE2BC0
:1006700004DF2304FC2007172A049748000004F62F
:100680003F3F3F00790AA2D5200C14300E09B91063
:10069000020404B9080104A2D5200F02500104206D
:1006A0000B68920BB516005034C0E07F20300C1957
:1006B0007F30A20B720F720E500F1206DDC20BC2FA
:1006C0000FC20EC2117F30800F300E03E9C0E0125E
:1006D000042B300E03D0E0F9D0E0B516CC300E1765
:1006E0007F30B9100C12042B7F58300D077F7880B3
:1006F00003B9080312042B300B057F2D02042B7F56
:10070000202011F87F2B200FF322920B80CF286E30
:10071000756C6C2900D20A1203E8300AF8C20A7814
:100720001630D50108F60204972D5043495812039C
:10073000E82403B405004001E49007299312041C47
:0D074000743A12041CD20C75160402057CDC
:0A0CB3003098FDAF99C2987E002230
:100B3700020BB7E493A3F8E493A34003F68001F212
:100B470008DFF48029E493A3F85407240CC8C333BF
:100B5700C4540F4420C8834004F456800146F6DF8E
:100B6700E4800B010204081020408090003DE47EE1
:100B7700019360BCA3FF543F30E509541FFEE49383
:100B8700A360010ECF54C025E060A840B8E493A34A
:100B9700FAE493A3F8E493A3C8C582C8CAC583CA75
:100BA700F0A3C8C582C8CAC583CADFE9DEE780BE2D
:0100410000BE
:10096400BB010689828A83E0225002E722BBFE0291
:09097400E32289828A83E49322C4
:10097D00BB010CE58229F582E5833AF583E022502F
:10098D0006E92582F8E622BBFE06E92582F8E22279
:0D099D00E58229F582E5833AF583E4932293
:1009AA00BB010689828A83F0225002F722BBFE012C
:0209BA00F32226
:1009BC00F8E0FBA3A3E0F925F0F0E58215827002C4
:0709CC001583E0FA38F02268
:0909D300EBF0A3EAF0A3E9F02225
:1009DC00D083D082F8E4937012740193700DA3A3AA
:1009EC0093F8740193F5828883E4737402936860BE
:0609FC00EFA3A3A380DFBE
:100C3400EFB40A07740D120C3F740A309811A89986
:100C4400B8130CC2983098FDA899C298B811F63020
:070C540099FDC299F59922F8
:00000001FF
