:1008430075A15575A1AAE5B954F84404F5B9E4F5C1
:02085300A122E0
:0E085500EF4E600905A1EF1F70F61E80F32222
:10081500AD07AC06ED4C600E7FE87E03120855ED82
:070825001D70F11C80EE22A2
:0408990043C6102220
:10064500C29FD29EC29DC2CDC2CC43878090000579
:1006550012049100000082E47B0AFAF9F890000583
:10066500E0FCA3E0FDA3E0FEA3E0FF1203F390008E
:1006750009EBF0900005E0FCA3E0FDA3E0FEA3E09C
:10068500FFE47B0AFAF9F81203F3900005120485DA
:10069500900009E0C39405401F900005E0FCA3E02D
:1006A500FDA3E0FEA3E02401FFE43EFEE43DFDE4FE
:1006B5003CFC900005120485E589540F4420F5891A
:1006C50043C9A0900005A3A3A3E0F404F58DD28E41
:0406D500D299D29C48
:0106D90022FE
:080879003098FDC298AF9922EE
:080881008F993099FDC2992204
:0A086F00C2C7D2C5D2C475C2F3227D
:0808890030C0FDC2C0AFC12266
:080891008FC130C1FDD2C1226C
:10082C0075A15575A1AAEF600543B101800353B1C1
:07083C00FEE4F5A1F5FF2227
:03089D008FFF22A8
:0B06DA00900006EBF0A3EAF0A3E9F0AB
:1006E50075A15575A1AA43B104E4F5A17585C0EFBF
:1006F50025E0FFE4FE900009E0FDEEC39D5032EEDB
:1007050025E02FF584900006E0FBA3E0FAA3E0F9CD
:100715008E82758300120368F58EE58630E60375D3
:10072500869AE5866440D394004003AF06220E8086
:0F073500C475A15575A1AA53B1FBE4F5A1AF0698
:010744002292
:0E07AB00900005EDF0A3EBF0A3EAF0A3E9F057
:1007B9007585C0EF25E0FFE4FE900005E0FDEEC37E
:1007C9009D501FEE25E02FF58475868EA3E0FBA3CF
:1007D900E0FAA3E0F98E82758300E58E1203950E87
:0407E90080D7AF0600
:0107ED0022E9
:100745007374617274202E2E2E0A005772697465B7
:100755002045727220B4CE203D20253032782C6D94
:10076500203D20253032780A0052656164204572AB
:100775007220B4CE203D20253032782C203D202516
:100785003032782C61646472203D25303278202C1B
:10079500D6B53D20253032780A0024244F4B20253C
:0607A500303278200A004A
:10053300E4900003F0A3F01208437F147E00120836
:10054300151206457BFF7A07794512006EE4900089
:1005530000F0900000E0FFC3948050437B017A00D9
:1005630079009000097401F01206DA900002EFF0AE
:10057300640160237BFF7A077950A3E0FFA3E09037
:100583000008CFF0A3EFF0900001E0FF90000AE431
:10059300F0A3EFF012006E900000E004F080B3E4EB
:1005A300900000F0900000E0FFC3948050647B0152
:1005B3007A0079017D011207AB900002EFF0BF01D1
:1005C3000A900000E0FFA3E06F603F7BFF7A0779AA
:1005D3006E900003E0FFA3E0900008CFF0A3EFF0DC
:1005E300900000E075F002A4FF90000AE5F0F0A38C
:1005F300EFF0AF8EA3E4F0A3EFF0900001E0FF90E3
:10060300000EE4F0A3EFF012006E900000E004F09F
:1006130080927BFF7A07799F900003E0FFA3E0902D
:100623000008CFF0A3EFF012006E900004E004F096
:100633007006900003E004F07F647E001208150248
:02064300055060
:0300000002086390
:0C086300787FE4F6D8FD75812102053392
:10036800BB010CE58229F582E5833AF583E022504A
:1003780006E92582F8E622BBFE06E92582F8E22294
:0D038800E58229F582E5833AF583E49322AE
:10039500F8BB010DE58229F582E5833AF583E8F09E
:1003A500225006E92582C8F622BBFE05E92582C84A
:0203B500F22232
:1003B70075F008758200EF2FFFEE33FECD33CDCCFD
:1003C70033CCC58233C5829BED9AEC99E582984080
:1003D7000CF582EE9BFEED9AFDEC99FC0FD5F0D65D
:1003E700E4CEFBE4CDFAE4CCF9A88222B800C1B987
:1003F7000059BA002DEC8BF084CFCECDFCE5F0CBC5
:10040700F97818EF2FFFEE33FEED33FDEC33FCEBFD
:1004170033FB10D703994004EB99FB0FD8E5E4F9B8
:10042700FA227818EF2FFFEE33FEED33FDEC33FCA5
:10043700C933C910D7059BE99A4007EC9BFCE99A99
:10044700F90FD8E0E4C9FAE4CCFB2275F010EF2FDE
:10045700FFEE33FEED33FDCC33CCC833C810D707DE
:100467009BEC9AE899400AED9BFDEC9AFCE899F819
:0E0477000FD5F0DAE4CDFBE4CCFAE4C8F922AC
:0C048500ECF0A3EDF0A3EEF0A3EFF022EA
:10049100A8828583F0D083D0821204A81204A81206
:1004A10004A81204A8E473E493A3C583C5F0C5832B
:1004B100C8C582C8F0A3C583C5F0C583C8C582C8B5
:0104C1002218
:10000300E5082408F582E43400F583E0050822902E
:100013000005300703900008E475F0011204ED02B7
:1000230004C22000E97F2ED2008018EF540F2490E1
:10003300D43440D4FF30040BEF24BFB41A00500370
:100043002461FFE50960021509050CE50C70020542
:100053000B30070E900005E475F0011204EDEF027A
:1000630004DB0207EE7403D2078003E4C207F5083A
:10007300900005120504E4F509F50BF50CE509609C
:10008300077F2012004680F5750AFFC201C200C235
:1000930002C203C205C206C208120012FF700D306D
:1000A30007057F00120057AF0CAE0B22B4255FC2C9
:1000B300D5C204120012FF24D0B40A00501A75F0FE
:1000C3000A780930D50508B6FF0106C6A426F6202E
:1000D300D5047002D20380D924CFB41A00EF5004A0
:1000E300C2E5D204020258D20180C6D20080C0D237
:1000F3000280BCD2D580BAD20580B47F20120046DC
:100103002002077401B5090040F1120003FF120039
:1001130046020080D208D2068095120003FB12002B
:1001230003FA120003F94A4B700679297A037BFF1D
:1001330020022EE509602A7E008E82758300120359
:100143006860060EEE650A70F0C2D5EBC0E0EAC047
:10015300E0E9C0E0EE12029FD0E0F9D0E0FAD0E08F
:10016300FB1204C2FF60AAEBC0E0EAC0E0E9C0E012
:10017300120046D0E02401F9D0E03400FAD0E0FBCD
:10018300E50A0460DCD50AD980877BFF7A02799B74
:10019300D202809C791080027908C206C2088008C6
:1001A300D2D5790A8004790AC2D5E50A047002F52A
:1001B3000AE4FAFDFEFF120003FC7B082001131280
:1001C3000003FD7B1030000A120003FE120003FF40
:1001D3007B20EC3382D592D55013C3E43000069FC5
:1001E300FFE49EFEE42001039DFDE49CFCE4CBF8C8
:1001F300C201EC700CCFCECDCCE824F8F870F380BC
:1002030017C3EF33FFEE33FEED33FDEC33FCEB337B
:10021300FB994002FB0FD8E9EB300105F8D0E0C4AD
:1002230048B201C0E00AEC4D4E4F78207B0070C20B
:10023300EAB50A0040BCC0E01202A1D0F0D0E02031
:100243000104C4C0E0C4B201C0F012002FD0F0D545
:10025300F0EB02008012050D011D5301975800EECB
:100263004C00EA42019B4F01A34401A3490103430C
:0802730001A955018D46018D22
:10027B0045018D4703495000F22D00F62E01192B35
:10028B0000FA2301172003322A00B24800000111A3
:10029B003F3F3F00790AA2D5200314300509B9105E
:1002AB00020404B9080104A2D5200602500104205F
:1002BB0002689202B509005034C0E07F2030031968
:1002CB007F30A20272067205500F1202F8C202C2F0
:1002DB0006C205C2087F30800F300503E9C0E0126B
:1002EB000046300503D0E0F9D0E0B509CC30051756
:1002FB007F30B9100C1200467F583004077F78808E
:10030B0003B908031200463002057F2D0200467F19
:10031B00202008F87F2B2006F322920280CF286E34
:10032B00756C6C2900D2011200033001F8C2017800
:10033B000930D50108F60200B22D5043495812007E
:10034B00032403B405004001E490034493120037E7
:0D035B00743A120037D203750904020197AD
:1004C200BB010689828A83E0225002E722BBFE0238
:0904D200E32289828A83E493226B
:1004DB00BB010689828A83F0225002F722BBFE0100
:0204EB00F322FA
:1004ED00F8E0FBA3A3E0F925F0F0E5821582700298
:0704FD001583E0FA38F0223C
:09050400EBF0A3EAF0A3E9F022F8
:10050D00D083D082F8E4937012740193700DA3A37D
:10051D0093F8740193F5828883E473740293686091
:06052D00EFA3A3A380DF91
:1007EE00EFB40A07740D1207F9740A309811A8991C
:1007FE00B8130CC2983098FDA899C298B811F6306B
:07080E0099FDC299F5992242
:00000001FF
